{
  "contracts/BuilderFiSharesV1.sol": {
    "BuidlerFiSharesV1": {
      "abi": [
        {
          "inputs": [],
          "name": "CannotSellLastShare",
          "type": "error"
        },
        {
          "inputs": [],
          "name": "FundsTransferFailed",
          "type": "error"
        },
        {
          "inputs": [],
          "name": "InsufficientPayment",
          "type": "error"
        },
        {
          "inputs": [],
          "name": "InsufficientShares",
          "type": "error"
        },
        {
          "inputs": [],
          "name": "OnlySharesSubjectCanBuyFirstShare",
          "type": "error"
        },
        {
          "anonymous": false,
          "inputs": [
            {
              "indexed": true,
              "internalType": "address",
              "name": "previousOwner",
              "type": "address"
            },
            {
              "indexed": true,
              "internalType": "address",
              "name": "newOwner",
              "type": "address"
            }
          ],
          "name": "OwnershipTransferred",
          "type": "event"
        },
        {
          "anonymous": false,
          "inputs": [
            {
              "indexed": false,
              "internalType": "address",
              "name": "trader",
              "type": "address"
            },
            {
              "indexed": false,
              "internalType": "address",
              "name": "subject",
              "type": "address"
            },
            {
              "indexed": false,
              "internalType": "bool",
              "name": "isBuy",
              "type": "bool"
            },
            {
              "indexed": false,
              "internalType": "uint256",
              "name": "shareAmount",
              "type": "uint256"
            },
            {
              "indexed": false,
              "internalType": "uint256",
              "name": "ethAmount",
              "type": "uint256"
            },
            {
              "indexed": false,
              "internalType": "uint256",
              "name": "protocolEthAmount",
              "type": "uint256"
            },
            {
              "indexed": false,
              "internalType": "uint256",
              "name": "subjectEthAmount",
              "type": "uint256"
            },
            {
              "indexed": false,
              "internalType": "uint256",
              "name": "hodlerEthAmount",
              "type": "uint256"
            },
            {
              "indexed": false,
              "internalType": "uint256",
              "name": "supply",
              "type": "uint256"
            }
          ],
          "name": "Trade",
          "type": "event"
        },
        {
          "inputs": [
            {
              "internalType": "address",
              "name": "sharesSubject",
              "type": "address"
            }
          ],
          "name": "buyShares",
          "outputs": [],
          "stateMutability": "payable",
          "type": "function"
        },
        {
          "inputs": [
            {
              "internalType": "address",
              "name": "sharesSubject",
              "type": "address"
            }
          ],
          "name": "getAtMostTopTenSupporters",
          "outputs": [
            {
              "internalType": "address[]",
              "name": "",
              "type": "address[]"
            },
            {
              "internalType": "uint256",
              "name": "",
              "type": "uint256"
            }
          ],
          "stateMutability": "view",
          "type": "function"
        },
        {
          "inputs": [
            {
              "internalType": "address",
              "name": "sharesSubject",
              "type": "address"
            }
          ],
          "name": "getBuyPrice",
          "outputs": [
            {
              "internalType": "uint256",
              "name": "",
              "type": "uint256"
            }
          ],
          "stateMutability": "view",
          "type": "function"
        },
        {
          "inputs": [
            {
              "internalType": "address",
              "name": "sharesSubject",
              "type": "address"
            }
          ],
          "name": "getBuyPriceAfterFee",
          "outputs": [
            {
              "internalType": "uint256",
              "name": "",
              "type": "uint256"
            }
          ],
          "stateMutability": "view",
          "type": "function"
        },
        {
          "inputs": [
            {
              "internalType": "uint256",
              "name": "supply",
              "type": "uint256"
            },
            {
              "internalType": "uint256",
              "name": "amount",
              "type": "uint256"
            }
          ],
          "name": "getPrice",
          "outputs": [
            {
              "internalType": "uint256",
              "name": "",
              "type": "uint256"
            }
          ],
          "stateMutability": "pure",
          "type": "function"
        },
        {
          "inputs": [
            {
              "internalType": "address",
              "name": "sharesSubject",
              "type": "address"
            },
            {
              "internalType": "uint256",
              "name": "amount",
              "type": "uint256"
            }
          ],
          "name": "getSellPrice",
          "outputs": [
            {
              "internalType": "uint256",
              "name": "",
              "type": "uint256"
            }
          ],
          "stateMutability": "view",
          "type": "function"
        },
        {
          "inputs": [
            {
              "internalType": "address",
              "name": "sharesSubject",
              "type": "address"
            },
            {
              "internalType": "uint256",
              "name": "amount",
              "type": "uint256"
            }
          ],
          "name": "getSellPriceAfterFee",
          "outputs": [
            {
              "internalType": "uint256",
              "name": "",
              "type": "uint256"
            }
          ],
          "stateMutability": "view",
          "type": "function"
        },
        {
          "inputs": [],
          "name": "hodlerFeePercent",
          "outputs": [
            {
              "internalType": "uint256",
              "name": "",
              "type": "uint256"
            }
          ],
          "stateMutability": "view",
          "type": "function"
        },
        {
          "inputs": [],
          "name": "owner",
          "outputs": [
            {
              "internalType": "address",
              "name": "",
              "type": "address"
            }
          ],
          "stateMutability": "view",
          "type": "function"
        },
        {
          "inputs": [],
          "name": "protocolFeeDestination",
          "outputs": [
            {
              "internalType": "address",
              "name": "",
              "type": "address"
            }
          ],
          "stateMutability": "view",
          "type": "function"
        },
        {
          "inputs": [],
          "name": "protocolFeePercent",
          "outputs": [
            {
              "internalType": "uint256",
              "name": "",
              "type": "uint256"
            }
          ],
          "stateMutability": "view",
          "type": "function"
        },
        {
          "inputs": [],
          "name": "renounceOwnership",
          "outputs": [],
          "stateMutability": "nonpayable",
          "type": "function"
        },
        {
          "inputs": [
            {
              "internalType": "address",
              "name": "sharesSubject",
              "type": "address"
            },
            {
              "internalType": "uint256",
              "name": "amount",
              "type": "uint256"
            }
          ],
          "name": "sellShares",
          "outputs": [],
          "stateMutability": "payable",
          "type": "function"
        },
        {
          "inputs": [
            {
              "internalType": "address",
              "name": "_feeDestination",
              "type": "address"
            }
          ],
          "name": "setFeeDestination",
          "outputs": [],
          "stateMutability": "nonpayable",
          "type": "function"
        },
        {
          "inputs": [
            {
              "internalType": "uint256",
              "name": "_feePercent",
              "type": "uint256"
            }
          ],
          "name": "setHodlerFeePercent",
          "outputs": [],
          "stateMutability": "nonpayable",
          "type": "function"
        },
        {
          "inputs": [
            {
              "internalType": "uint256",
              "name": "_feePercent",
              "type": "uint256"
            }
          ],
          "name": "setProtocolFeePercent",
          "outputs": [],
          "stateMutability": "nonpayable",
          "type": "function"
        },
        {
          "inputs": [
            {
              "internalType": "uint256",
              "name": "_feePercent",
              "type": "uint256"
            }
          ],
          "name": "setSubjectFeePercent",
          "outputs": [],
          "stateMutability": "nonpayable",
          "type": "function"
        },
        {
          "inputs": [
            {
              "internalType": "address",
              "name": "",
              "type": "address"
            },
            {
              "internalType": "address",
              "name": "",
              "type": "address"
            }
          ],
          "name": "sharesBalance",
          "outputs": [
            {
              "internalType": "uint256",
              "name": "",
              "type": "uint256"
            }
          ],
          "stateMutability": "view",
          "type": "function"
        },
        {
          "inputs": [
            {
              "internalType": "address",
              "name": "",
              "type": "address"
            }
          ],
          "name": "sharesSupply",
          "outputs": [
            {
              "internalType": "uint256",
              "name": "",
              "type": "uint256"
            }
          ],
          "stateMutability": "view",
          "type": "function"
        },
        {
          "inputs": [],
          "name": "subjectFeePercent",
          "outputs": [
            {
              "internalType": "uint256",
              "name": "",
              "type": "uint256"
            }
          ],
          "stateMutability": "view",
          "type": "function"
        },
        {
          "inputs": [
            {
              "internalType": "address",
              "name": "",
              "type": "address"
            },
            {
              "internalType": "uint256",
              "name": "",
              "type": "uint256"
            }
          ],
          "name": "supporterAddressArray",
          "outputs": [
            {
              "internalType": "address",
              "name": "",
              "type": "address"
            }
          ],
          "stateMutability": "view",
          "type": "function"
        },
        {
          "inputs": [
            {
              "internalType": "address",
              "name": "",
              "type": "address"
            },
            {
              "internalType": "uint256",
              "name": "",
              "type": "uint256"
            }
          ],
          "name": "supporterKeysArray",
          "outputs": [
            {
              "internalType": "uint256",
              "name": "",
              "type": "uint256"
            }
          ],
          "stateMutability": "view",
          "type": "function"
        },
        {
          "inputs": [
            {
              "internalType": "address",
              "name": "",
              "type": "address"
            },
            {
              "internalType": "address",
              "name": "",
              "type": "address"
            }
          ],
          "name": "supporterNumber",
          "outputs": [
            {
              "internalType": "uint256",
              "name": "",
              "type": "uint256"
            }
          ],
          "stateMutability": "view",
          "type": "function"
        },
        {
          "inputs": [
            {
              "internalType": "address",
              "name": "newOwner",
              "type": "address"
            }
          ],
          "name": "transferOwnership",
          "outputs": [],
          "stateMutability": "nonpayable",
          "type": "function"
        }
      ],
      "evm": {
        "bytecode": {
          "linkReferences": {},
          "object": "608060405234801561001057600080fd5b5061001a3361001f565b61006f565b600080546001600160a01b038381166001600160a01b0319831681178455604051919092169283917f8be0079c531659141344cd1fd0a4f28419497f9722a3daafe3b4186f6b6457e09190a35050565b6116228061007e6000396000f3fe60806040526004361061018b5760003560e01c80638da5cb5b116100d6578063cedc72771161007f578063f2fde38b11610059578063f2fde38b14610456578063f9931be014610476578063fbe53234146104a357600080fd5b8063cedc727714610400578063d6e6eb9f14610420578063e5aef9f81461043657600080fd5b8063a4983421116100b0578063a49834211461039f578063b51d0534146103bf578063c8ee425d146103d257600080fd5b80638da5cb5b14610341578063932e8dc61461035f5780639ae717811461037f57600080fd5b80635a8a764e116101385780637da4757f116101125780637da4757f146102d35780637f33a1c9146102f35780638546e75f1461032b57600080fd5b80635a8a764e1461027e5780635cf4ee911461029e578063715018a6146102be57600080fd5b80633365dd94116101695780633365dd94146102115780634c85b425146102335780634ce7957c1461024657600080fd5b8063020235ff146101905780632267a89c146101db57806324dc441d146101fb575b600080fd5b34801561019c57600080fd5b506101c86101ab366004611444565b600860209081526000928352604080842090915290825290205481565b6040519081526020015b60405180910390f35b3480156101e757600080fd5b506101c86101f6366004611477565b6104c3565b34801561020757600080fd5b506101c860035481565b34801561021d57600080fd5b5061023161022c3660046114a1565b61056e565b005b6102316102413660046114ba565b61057b565b34801561025257600080fd5b50600154610266906001600160a01b031681565b6040516001600160a01b0390911681526020016101d2565b34801561028a57600080fd5b506102316102993660046114a1565b610973565b3480156102aa57600080fd5b506101c86102b93660046114d5565b610980565b3480156102ca57600080fd5b50610231610aa1565b3480156102df57600080fd5b506102666102ee366004611477565b610ab5565b3480156102ff57600080fd5b506101c861030e366004611444565b600560209081526000928352604080842090915290825290205481565b34801561033757600080fd5b506101c860045481565b34801561034d57600080fd5b506000546001600160a01b0316610266565b34801561036b57600080fd5b506101c861037a366004611477565b610aed565b34801561038b57600080fd5b506101c861039a366004611477565b610b1e565b3480156103ab57600080fd5b506102316103ba3660046114a1565b610b53565b6102316103cd366004611477565b610b60565b3480156103de57600080fd5b506103f26103ed3660046114ba565b610f43565b6040516101d29291906114f7565b34801561040c57600080fd5b506101c861041b3660046114ba565b611075565b34801561042c57600080fd5b506101c860025481565b34801561044257600080fd5b506101c86104513660046114ba565b611099565b34801561046257600080fd5b506102316104713660046114ba565b611136565b34801561048257600080fd5b506101c86104913660046114ba565b60096020526000908152604090205481565b3480156104af57600080fd5b506102316104be3660046114ba565b6111cb565b6000806104d08484610b1e565b90506000670de0b6b3a7640000600254836104eb919061155e565b6104f59190611575565b90506000670de0b6b3a764000060035484610510919061155e565b61051a9190611575565b90506000670de0b6b3a764000060045485610535919061155e565b61053f9190611575565b9050808261054d8587611597565b6105579190611597565b6105619190611597565b9450505050505b92915050565b610576611202565b600455565b6001600160a01b038116600090815260096020526040902054801580156105ab57506001600160a01b0382163314155b156105e2576040517f80843b1700000000000000000000000000000000000000000000000000000000815260040160405180910390fd5b60006105ef826001610980565b90506000670de0b6b3a76400006002548361060a919061155e565b6106149190611575565b90506000670de0b6b3a76400006003548461062f919061155e565b6106399190611575565b90506000670de0b6b3a764000060045485610654919061155e565b61065e9190611575565b9050808261066c85876115aa565b61067691906115aa565b61068091906115aa565b3410156106b9576040517fcd1c886700000000000000000000000000000000000000000000000000000000815260040160405180910390fd5b6001600160a01b038616600090815260086020908152604080832033845290915281208054918291906106eb836115bd565b90915550506001600160a01b0387166000908152600960205260408120805491610714836115bd565b909155507f952ff8d90add9fdeaeb478102d54441cf0cc0cbe53b1d99e51f747cdc8379e54905033886001808989898961074e8f866115aa565b604080516001600160a01b039a8b168152989099166020890152951515878901526060870194909452608086019290925260a085015260c084015260e08301526101008201529051908190036101200190a16001546040516000916001600160a01b03169086908381818185875af1925050503d80600081146107ed576040519150601f19603f3d011682016040523d82523d6000602084013e6107f2565b606091505b505090506000886001600160a01b03168560405160006040518083038185875af1925050503d8060008114610843576040519150601f19603f3d011682016040523d82523d6000602084013e610848565b606091505b5050905060006108588a8661125c565b90508280156108645750815b801561086d5750805b61088a57604051634a66f90360e01b815260040160405180910390fd5b8360000361090f576001600160a01b038a166000818152600660209081526040808320805460058452828520338087529085528386208290556001808301845592865284862090910182905594845260078352908320805491820181558352912001805473ffffffffffffffffffffffffffffffffffffffff19169091179055610967565b6001600160a01b038a16600090815260066020908152604080832060058352818420338552909252909120548154811061094b5761094b6115d6565b60009182526020822001805491610961836115bd565b91905055505b50505050505050505050565b61097b611202565b600355565b60008083156109db576006610996600186611597565b6109a190600261155e565b6109ac9060016115aa565b856109b8600182611597565b6109c2919061155e565b6109cc919061155e565b6109d69190611575565b6109de565b60005b90506000841580156109f05750836001145b610a655760066001610a0286886115aa565b610a0c9190611597565b610a1790600261155e565b610a229060016115aa565b610a2c86886115aa565b6001610a38888a6115aa565b610a429190611597565b610a4c919061155e565b610a56919061155e565b610a609190611575565b610a68565b60005b90506000610a768383611597565b9050613e80610a8d82670de0b6b3a764000061155e565b610a979190611575565b9695505050505050565b610aa9611202565b610ab360006113cb565b565b60076020528160005260406000208181548110610ad157600080fd5b6000918252602090912001546001600160a01b03169150829050565b60066020528160005260406000208181548110610b0957600080fd5b90600052602060002001600091509150505481565b6001600160a01b038216600090815260096020526040812054610b4c90610b46908490611597565b83610980565b9392505050565b610b5b611202565b600255565b6001600160a01b038216600090815260096020526040902054818111610bb2576040517fb4abda3900000000000000000000000000000000000000000000000000000000815260040160405180910390fd5b6001600160a01b0383166000908152600860209081526040808320338452909152902054821115610c0f576040517f3999656700000000000000000000000000000000000000000000000000000000815260040160405180910390fd5b6000610c24610c1e8484611597565b84610980565b90506000670de0b6b3a764000060025483610c3f919061155e565b610c499190611575565b90506000670de0b6b3a764000060035484610c64919061155e565b610c6e9190611575565b90506000670de0b6b3a764000060045485610c89919061155e565b610c939190611575565b6001600160a01b03881660009081526006602090815260408083206005835281842033855290925290912054815492935088928110610cd457610cd46115d6565b906000526020600020016000828254610ced9190611597565b90915550506001600160a01b038716600090815260086020908152604080832033845290915281208054889290610d25908490611597565b90915550610d3590508686611597565b6001600160a01b0388166000908152600960205260408120919091557f952ff8d90add9fdeaeb478102d54441cf0cc0cbe53b1d99e51f747cdc8379e5490339089908988888888610d86858f611597565b604080516001600160a01b039a8b168152989099166020890152951515878901526060870194909452608086019290925260a085015260c084015260e08301526101008201529051908190036101200190a16000338284610de78789611597565b610df19190611597565b610dfb9190611597565b604051600081818185875af1925050503d8060008114610e37576040519150601f19603f3d011682016040523d82523d6000602084013e610e3c565b606091505b50506001546040519192506000916001600160a01b039091169086908381818185875af1925050503d8060008114610e90576040519150601f19603f3d011682016040523d82523d6000602084013e610e95565b606091505b505090506000896001600160a01b03168560405160006040518083038185875af1925050503d8060008114610ee6576040519150601f19603f3d011682016040523d82523d6000602084013e610eeb565b606091505b505090506000610efb8b8661125c565b9050838015610f075750825b8015610f105750815b8015610f195750805b610f3657604051634a66f90360e01b815260040160405180910390fd5b5050505050505050505050565b60408051600a8082526101608201909252606091600091829160208201610140803683375050506001600160a01b03851660009081526006602052604081205491925090815b81811015611069576001600160a01b0387166000908152600660205260409020805482908110610fbb57610fbb6115d6565b906000526020600020015460001461104d576001600160a01b0387166000908152600760205260409020805482908110610ff757610ff76115d6565b9060005260206000200160009054906101000a90046001600160a01b0316848481518110611027576110276115d6565b6001600160a01b039092166020928302919091019091015282611049816115bd565b9350505b600983118061105d57506103e781115b61106957600101610f89565b50919590945092505050565b6001600160a01b038116600090815260096020526040812054610568906001610980565b6000806110a583611075565b90506000670de0b6b3a7640000600254836110c0919061155e565b6110ca9190611575565b90506000670de0b6b3a7640000600354846110e5919061155e565b6110ef9190611575565b90506000670de0b6b3a76400006004548561110a919061155e565b6111149190611575565b9050808261112285876115aa565b61112c91906115aa565b610a9791906115aa565b61113e611202565b6001600160a01b0381166111bf5760405162461bcd60e51b815260206004820152602660248201527f4f776e61626c653a206e6577206f776e657220697320746865207a65726f206160448201527f646472657373000000000000000000000000000000000000000000000000000060648201526084015b60405180910390fd5b6111c8816113cb565b50565b6111d3611202565b6001805473ffffffffffffffffffffffffffffffffffffffff19166001600160a01b0392909216919091179055565b6000546001600160a01b03163314610ab35760405162461bcd60e51b815260206004820181905260248201527f4f776e61626c653a2063616c6c6572206973206e6f7420746865206f776e657260448201526064016111b6565b600080600061126a85610f43565b91509150806000036112f0576001546040516000916001600160a01b03169086908381818185875af1925050503d80600081146112c3576040519150601f19603f3d011682016040523d82523d6000602084013e6112c8565b606091505b50509050806112ea57604051634a66f90360e01b815260040160405180910390fd5b506113c0565b6000670de0b6b3a764000082611306878361155e565b6113109190611575565b61131a9190611575565b905060005b828110156113bd57600084828151811061133b5761133b6115d6565b60200260200101516001600160a01b03168360405160006040518083038185875af1925050503d806000811461138d576040519150601f19603f3d011682016040523d82523d6000602084013e611392565b606091505b50509050806113b457604051634a66f90360e01b815260040160405180910390fd5b5060010161131f565b50505b506001949350505050565b600080546001600160a01b0383811673ffffffffffffffffffffffffffffffffffffffff19831681178455604051919092169283917f8be0079c531659141344cd1fd0a4f28419497f9722a3daafe3b4186f6b6457e09190a35050565b80356001600160a01b038116811461143f57600080fd5b919050565b6000806040838503121561145757600080fd5b61146083611428565b915061146e60208401611428565b90509250929050565b6000806040838503121561148a57600080fd5b61149383611428565b946020939093013593505050565b6000602082840312156114b357600080fd5b5035919050565b6000602082840312156114cc57600080fd5b610b4c82611428565b600080604083850312156114e857600080fd5b50508035926020909101359150565b604080825283519082018190526000906020906060840190828701845b828110156115395781516001600160a01b031684529284019290840190600101611514565b50505092019290925292915050565b634e487b7160e01b600052601160045260246000fd5b808202811582820484141761056857610568611548565b60008261159257634e487b7160e01b600052601260045260246000fd5b500490565b8181038181111561056857610568611548565b8082018082111561056857610568611548565b6000600182016115cf576115cf611548565b5060010190565b634e487b7160e01b600052603260045260246000fdfea2646970667358221220c2c31fac99339a7b50e470219e2bc8e99b036d6cc035fdcc85b1d2684d86a99664736f6c63430008130033",
          "opcodes": "PUSH1 0x80 PUSH1 0x40 MSTORE CALLVALUE DUP1 ISZERO PUSH2 0x10 JUMPI PUSH1 0x0 DUP1 REVERT JUMPDEST POP PUSH2 0x1A CALLER PUSH2 0x1F JUMP JUMPDEST PUSH2 0x6F JUMP JUMPDEST PUSH1 0x0 DUP1 SLOAD PUSH1 0x1 PUSH1 0x1 PUSH1 0xA0 SHL SUB DUP4 DUP2 AND PUSH1 0x1 PUSH1 0x1 PUSH1 0xA0 SHL SUB NOT DUP4 AND DUP2 OR DUP5 SSTORE PUSH1 0x40 MLOAD SWAP2 SWAP1 SWAP3 AND SWAP3 DUP4 SWAP2 PUSH32 0x8BE0079C531659141344CD1FD0A4F28419497F9722A3DAAFE3B4186F6B6457E0 SWAP2 SWAP1 LOG3 POP POP JUMP JUMPDEST PUSH2 0x1622 DUP1 PUSH2 0x7E PUSH1 0x0 CODECOPY PUSH1 0x0 RETURN INVALID PUSH1 0x80 PUSH1 0x40 MSTORE PUSH1 0x4 CALLDATASIZE LT PUSH2 0x18B JUMPI PUSH1 0x0 CALLDATALOAD PUSH1 0xE0 SHR DUP1 PUSH4 0x8DA5CB5B GT PUSH2 0xD6 JUMPI DUP1 PUSH4 0xCEDC7277 GT PUSH2 0x7F JUMPI DUP1 PUSH4 0xF2FDE38B GT PUSH2 0x59 JUMPI DUP1 PUSH4 0xF2FDE38B EQ PUSH2 0x456 JUMPI DUP1 PUSH4 0xF9931BE0 EQ PUSH2 0x476 JUMPI DUP1 PUSH4 0xFBE53234 EQ PUSH2 0x4A3 JUMPI PUSH1 0x0 DUP1 REVERT JUMPDEST DUP1 PUSH4 0xCEDC7277 EQ PUSH2 0x400 JUMPI DUP1 PUSH4 0xD6E6EB9F EQ PUSH2 0x420 JUMPI DUP1 PUSH4 0xE5AEF9F8 EQ PUSH2 0x436 JUMPI PUSH1 0x0 DUP1 REVERT JUMPDEST DUP1 PUSH4 0xA4983421 GT PUSH2 0xB0 JUMPI DUP1 PUSH4 0xA4983421 EQ PUSH2 0x39F JUMPI DUP1 PUSH4 0xB51D0534 EQ PUSH2 0x3BF JUMPI DUP1 PUSH4 0xC8EE425D EQ PUSH2 0x3D2 JUMPI PUSH1 0x0 DUP1 REVERT JUMPDEST DUP1 PUSH4 0x8DA5CB5B EQ PUSH2 0x341 JUMPI DUP1 PUSH4 0x932E8DC6 EQ PUSH2 0x35F JUMPI DUP1 PUSH4 0x9AE71781 EQ PUSH2 0x37F JUMPI PUSH1 0x0 DUP1 REVERT JUMPDEST DUP1 PUSH4 0x5A8A764E GT PUSH2 0x138 JUMPI DUP1 PUSH4 0x7DA4757F GT PUSH2 0x112 JUMPI DUP1 PUSH4 0x7DA4757F EQ PUSH2 0x2D3 JUMPI DUP1 PUSH4 0x7F33A1C9 EQ PUSH2 0x2F3 JUMPI DUP1 PUSH4 0x8546E75F EQ PUSH2 0x32B JUMPI PUSH1 0x0 DUP1 REVERT JUMPDEST DUP1 PUSH4 0x5A8A764E EQ PUSH2 0x27E JUMPI DUP1 PUSH4 0x5CF4EE91 EQ PUSH2 0x29E JUMPI DUP1 PUSH4 0x715018A6 EQ PUSH2 0x2BE JUMPI PUSH1 0x0 DUP1 REVERT JUMPDEST DUP1 PUSH4 0x3365DD94 GT PUSH2 0x169 JUMPI DUP1 PUSH4 0x3365DD94 EQ PUSH2 0x211 JUMPI DUP1 PUSH4 0x4C85B425 EQ PUSH2 0x233 JUMPI DUP1 PUSH4 0x4CE7957C EQ PUSH2 0x246 JUMPI PUSH1 0x0 DUP1 REVERT JUMPDEST DUP1 PUSH4 0x20235FF EQ PUSH2 0x190 JUMPI DUP1 PUSH4 0x2267A89C EQ PUSH2 0x1DB JUMPI DUP1 PUSH4 0x24DC441D EQ PUSH2 0x1FB JUMPI JUMPDEST PUSH1 0x0 DUP1 REVERT JUMPDEST CALLVALUE DUP1 ISZERO PUSH2 0x19C JUMPI PUSH1 0x0 DUP1 REVERT JUMPDEST POP PUSH2 0x1C8 PUSH2 0x1AB CALLDATASIZE PUSH1 0x4 PUSH2 0x1444 JUMP JUMPDEST PUSH1 0x8 PUSH1 0x20 SWAP1 DUP2 MSTORE PUSH1 0x0 SWAP3 DUP4 MSTORE PUSH1 0x40 DUP1 DUP5 KECCAK256 SWAP1 SWAP2 MSTORE SWAP1 DUP3 MSTORE SWAP1 KECCAK256 SLOAD DUP2 JUMP JUMPDEST PUSH1 0x40 MLOAD SWAP1 DUP2 MSTORE PUSH1 0x20 ADD JUMPDEST PUSH1 0x40 MLOAD DUP1 SWAP2 SUB SWAP1 RETURN JUMPDEST CALLVALUE DUP1 ISZERO PUSH2 0x1E7 JUMPI PUSH1 0x0 DUP1 REVERT JUMPDEST POP PUSH2 0x1C8 PUSH2 0x1F6 CALLDATASIZE PUSH1 0x4 PUSH2 0x1477 JUMP JUMPDEST PUSH2 0x4C3 JUMP JUMPDEST CALLVALUE DUP1 ISZERO PUSH2 0x207 JUMPI PUSH1 0x0 DUP1 REVERT JUMPDEST POP PUSH2 0x1C8 PUSH1 0x3 SLOAD DUP2 JUMP JUMPDEST CALLVALUE DUP1 ISZERO PUSH2 0x21D JUMPI PUSH1 0x0 DUP1 REVERT JUMPDEST POP PUSH2 0x231 PUSH2 0x22C CALLDATASIZE PUSH1 0x4 PUSH2 0x14A1 JUMP JUMPDEST PUSH2 0x56E JUMP JUMPDEST STOP JUMPDEST PUSH2 0x231 PUSH2 0x241 CALLDATASIZE PUSH1 0x4 PUSH2 0x14BA JUMP JUMPDEST PUSH2 0x57B JUMP JUMPDEST CALLVALUE DUP1 ISZERO PUSH2 0x252 JUMPI PUSH1 0x0 DUP1 REVERT JUMPDEST POP PUSH1 0x1 SLOAD PUSH2 0x266 SWAP1 PUSH1 0x1 PUSH1 0x1 PUSH1 0xA0 SHL SUB AND DUP2 JUMP JUMPDEST PUSH1 0x40 MLOAD PUSH1 0x1 PUSH1 0x1 PUSH1 0xA0 SHL SUB SWAP1 SWAP2 AND DUP2 MSTORE PUSH1 0x20 ADD PUSH2 0x1D2 JUMP JUMPDEST CALLVALUE DUP1 ISZERO PUSH2 0x28A JUMPI PUSH1 0x0 DUP1 REVERT JUMPDEST POP PUSH2 0x231 PUSH2 0x299 CALLDATASIZE PUSH1 0x4 PUSH2 0x14A1 JUMP JUMPDEST PUSH2 0x973 JUMP JUMPDEST CALLVALUE DUP1 ISZERO PUSH2 0x2AA JUMPI PUSH1 0x0 DUP1 REVERT JUMPDEST POP PUSH2 0x1C8 PUSH2 0x2B9 CALLDATASIZE PUSH1 0x4 PUSH2 0x14D5 JUMP JUMPDEST PUSH2 0x980 JUMP JUMPDEST CALLVALUE DUP1 ISZERO PUSH2 0x2CA JUMPI PUSH1 0x0 DUP1 REVERT JUMPDEST POP PUSH2 0x231 PUSH2 0xAA1 JUMP JUMPDEST CALLVALUE DUP1 ISZERO PUSH2 0x2DF JUMPI PUSH1 0x0 DUP1 REVERT JUMPDEST POP PUSH2 0x266 PUSH2 0x2EE CALLDATASIZE PUSH1 0x4 PUSH2 0x1477 JUMP JUMPDEST PUSH2 0xAB5 JUMP JUMPDEST CALLVALUE DUP1 ISZERO PUSH2 0x2FF JUMPI PUSH1 0x0 DUP1 REVERT JUMPDEST POP PUSH2 0x1C8 PUSH2 0x30E CALLDATASIZE PUSH1 0x4 PUSH2 0x1444 JUMP JUMPDEST PUSH1 0x5 PUSH1 0x20 SWAP1 DUP2 MSTORE PUSH1 0x0 SWAP3 DUP4 MSTORE PUSH1 0x40 DUP1 DUP5 KECCAK256 SWAP1 SWAP2 MSTORE SWAP1 DUP3 MSTORE SWAP1 KECCAK256 SLOAD DUP2 JUMP JUMPDEST CALLVALUE DUP1 ISZERO PUSH2 0x337 JUMPI PUSH1 0x0 DUP1 REVERT JUMPDEST POP PUSH2 0x1C8 PUSH1 0x4 SLOAD DUP2 JUMP JUMPDEST CALLVALUE DUP1 ISZERO PUSH2 0x34D JUMPI PUSH1 0x0 DUP1 REVERT JUMPDEST POP PUSH1 0x0 SLOAD PUSH1 0x1 PUSH1 0x1 PUSH1 0xA0 SHL SUB AND PUSH2 0x266 JUMP JUMPDEST CALLVALUE DUP1 ISZERO PUSH2 0x36B JUMPI PUSH1 0x0 DUP1 REVERT JUMPDEST POP PUSH2 0x1C8 PUSH2 0x37A CALLDATASIZE PUSH1 0x4 PUSH2 0x1477 JUMP JUMPDEST PUSH2 0xAED JUMP JUMPDEST CALLVALUE DUP1 ISZERO PUSH2 0x38B JUMPI PUSH1 0x0 DUP1 REVERT JUMPDEST POP PUSH2 0x1C8 PUSH2 0x39A CALLDATASIZE PUSH1 0x4 PUSH2 0x1477 JUMP JUMPDEST PUSH2 0xB1E JUMP JUMPDEST CALLVALUE DUP1 ISZERO PUSH2 0x3AB JUMPI PUSH1 0x0 DUP1 REVERT JUMPDEST POP PUSH2 0x231 PUSH2 0x3BA CALLDATASIZE PUSH1 0x4 PUSH2 0x14A1 JUMP JUMPDEST PUSH2 0xB53 JUMP JUMPDEST PUSH2 0x231 PUSH2 0x3CD CALLDATASIZE PUSH1 0x4 PUSH2 0x1477 JUMP JUMPDEST PUSH2 0xB60 JUMP JUMPDEST CALLVALUE DUP1 ISZERO PUSH2 0x3DE JUMPI PUSH1 0x0 DUP1 REVERT JUMPDEST POP PUSH2 0x3F2 PUSH2 0x3ED CALLDATASIZE PUSH1 0x4 PUSH2 0x14BA JUMP JUMPDEST PUSH2 0xF43 JUMP JUMPDEST PUSH1 0x40 MLOAD PUSH2 0x1D2 SWAP3 SWAP2 SWAP1 PUSH2 0x14F7 JUMP JUMPDEST CALLVALUE DUP1 ISZERO PUSH2 0x40C JUMPI PUSH1 0x0 DUP1 REVERT JUMPDEST POP PUSH2 0x1C8 PUSH2 0x41B CALLDATASIZE PUSH1 0x4 PUSH2 0x14BA JUMP JUMPDEST PUSH2 0x1075 JUMP JUMPDEST CALLVALUE DUP1 ISZERO PUSH2 0x42C JUMPI PUSH1 0x0 DUP1 REVERT JUMPDEST POP PUSH2 0x1C8 PUSH1 0x2 SLOAD DUP2 JUMP JUMPDEST CALLVALUE DUP1 ISZERO PUSH2 0x442 JUMPI PUSH1 0x0 DUP1 REVERT JUMPDEST POP PUSH2 0x1C8 PUSH2 0x451 CALLDATASIZE PUSH1 0x4 PUSH2 0x14BA JUMP JUMPDEST PUSH2 0x1099 JUMP JUMPDEST CALLVALUE DUP1 ISZERO PUSH2 0x462 JUMPI PUSH1 0x0 DUP1 REVERT JUMPDEST POP PUSH2 0x231 PUSH2 0x471 CALLDATASIZE PUSH1 0x4 PUSH2 0x14BA JUMP JUMPDEST PUSH2 0x1136 JUMP JUMPDEST CALLVALUE DUP1 ISZERO PUSH2 0x482 JUMPI PUSH1 0x0 DUP1 REVERT JUMPDEST POP PUSH2 0x1C8 PUSH2 0x491 CALLDATASIZE PUSH1 0x4 PUSH2 0x14BA JUMP JUMPDEST PUSH1 0x9 PUSH1 0x20 MSTORE PUSH1 0x0 SWAP1 DUP2 MSTORE PUSH1 0x40 SWAP1 KECCAK256 SLOAD DUP2 JUMP JUMPDEST CALLVALUE DUP1 ISZERO PUSH2 0x4AF JUMPI PUSH1 0x0 DUP1 REVERT JUMPDEST POP PUSH2 0x231 PUSH2 0x4BE CALLDATASIZE PUSH1 0x4 PUSH2 0x14BA JUMP JUMPDEST PUSH2 0x11CB JUMP JUMPDEST PUSH1 0x0 DUP1 PUSH2 0x4D0 DUP5 DUP5 PUSH2 0xB1E JUMP JUMPDEST SWAP1 POP PUSH1 0x0 PUSH8 0xDE0B6B3A7640000 PUSH1 0x2 SLOAD DUP4 PUSH2 0x4EB SWAP2 SWAP1 PUSH2 0x155E JUMP JUMPDEST PUSH2 0x4F5 SWAP2 SWAP1 PUSH2 0x1575 JUMP JUMPDEST SWAP1 POP PUSH1 0x0 PUSH8 0xDE0B6B3A7640000 PUSH1 0x3 SLOAD DUP5 PUSH2 0x510 SWAP2 SWAP1 PUSH2 0x155E JUMP JUMPDEST PUSH2 0x51A SWAP2 SWAP1 PUSH2 0x1575 JUMP JUMPDEST SWAP1 POP PUSH1 0x0 PUSH8 0xDE0B6B3A7640000 PUSH1 0x4 SLOAD DUP6 PUSH2 0x535 SWAP2 SWAP1 PUSH2 0x155E JUMP JUMPDEST PUSH2 0x53F SWAP2 SWAP1 PUSH2 0x1575 JUMP JUMPDEST SWAP1 POP DUP1 DUP3 PUSH2 0x54D DUP6 DUP8 PUSH2 0x1597 JUMP JUMPDEST PUSH2 0x557 SWAP2 SWAP1 PUSH2 0x1597 JUMP JUMPDEST PUSH2 0x561 SWAP2 SWAP1 PUSH2 0x1597 JUMP JUMPDEST SWAP5 POP POP POP POP POP JUMPDEST SWAP3 SWAP2 POP POP JUMP JUMPDEST PUSH2 0x576 PUSH2 0x1202 JUMP JUMPDEST PUSH1 0x4 SSTORE JUMP JUMPDEST PUSH1 0x1 PUSH1 0x1 PUSH1 0xA0 SHL SUB DUP2 AND PUSH1 0x0 SWAP1 DUP2 MSTORE PUSH1 0x9 PUSH1 0x20 MSTORE PUSH1 0x40 SWAP1 KECCAK256 SLOAD DUP1 ISZERO DUP1 ISZERO PUSH2 0x5AB JUMPI POP PUSH1 0x1 PUSH1 0x1 PUSH1 0xA0 SHL SUB DUP3 AND CALLER EQ ISZERO JUMPDEST ISZERO PUSH2 0x5E2 JUMPI PUSH1 0x40 MLOAD PUSH32 0x80843B1700000000000000000000000000000000000000000000000000000000 DUP2 MSTORE PUSH1 0x4 ADD PUSH1 0x40 MLOAD DUP1 SWAP2 SUB SWAP1 REVERT JUMPDEST PUSH1 0x0 PUSH2 0x5EF DUP3 PUSH1 0x1 PUSH2 0x980 JUMP JUMPDEST SWAP1 POP PUSH1 0x0 PUSH8 0xDE0B6B3A7640000 PUSH1 0x2 SLOAD DUP4 PUSH2 0x60A SWAP2 SWAP1 PUSH2 0x155E JUMP JUMPDEST PUSH2 0x614 SWAP2 SWAP1 PUSH2 0x1575 JUMP JUMPDEST SWAP1 POP PUSH1 0x0 PUSH8 0xDE0B6B3A7640000 PUSH1 0x3 SLOAD DUP5 PUSH2 0x62F SWAP2 SWAP1 PUSH2 0x155E JUMP JUMPDEST PUSH2 0x639 SWAP2 SWAP1 PUSH2 0x1575 JUMP JUMPDEST SWAP1 POP PUSH1 0x0 PUSH8 0xDE0B6B3A7640000 PUSH1 0x4 SLOAD DUP6 PUSH2 0x654 SWAP2 SWAP1 PUSH2 0x155E JUMP JUMPDEST PUSH2 0x65E SWAP2 SWAP1 PUSH2 0x1575 JUMP JUMPDEST SWAP1 POP DUP1 DUP3 PUSH2 0x66C DUP6 DUP8 PUSH2 0x15AA JUMP JUMPDEST PUSH2 0x676 SWAP2 SWAP1 PUSH2 0x15AA JUMP JUMPDEST PUSH2 0x680 SWAP2 SWAP1 PUSH2 0x15AA JUMP JUMPDEST CALLVALUE LT ISZERO PUSH2 0x6B9 JUMPI PUSH1 0x40 MLOAD PUSH32 0xCD1C886700000000000000000000000000000000000000000000000000000000 DUP2 MSTORE PUSH1 0x4 ADD PUSH1 0x40 MLOAD DUP1 SWAP2 SUB SWAP1 REVERT JUMPDEST PUSH1 0x1 PUSH1 0x1 PUSH1 0xA0 SHL SUB DUP7 AND PUSH1 0x0 SWAP1 DUP2 MSTORE PUSH1 0x8 PUSH1 0x20 SWAP1 DUP2 MSTORE PUSH1 0x40 DUP1 DUP4 KECCAK256 CALLER DUP5 MSTORE SWAP1 SWAP2 MSTORE DUP2 KECCAK256 DUP1 SLOAD SWAP2 DUP3 SWAP2 SWAP1 PUSH2 0x6EB DUP4 PUSH2 0x15BD JUMP JUMPDEST SWAP1 SWAP2 SSTORE POP POP PUSH1 0x1 PUSH1 0x1 PUSH1 0xA0 SHL SUB DUP8 AND PUSH1 0x0 SWAP1 DUP2 MSTORE PUSH1 0x9 PUSH1 0x20 MSTORE PUSH1 0x40 DUP2 KECCAK256 DUP1 SLOAD SWAP2 PUSH2 0x714 DUP4 PUSH2 0x15BD JUMP JUMPDEST SWAP1 SWAP2 SSTORE POP PUSH32 0x952FF8D90ADD9FDEAEB478102D54441CF0CC0CBE53B1D99E51F747CDC8379E54 SWAP1 POP CALLER DUP9 PUSH1 0x1 DUP1 DUP10 DUP10 DUP10 DUP10 PUSH2 0x74E DUP16 DUP7 PUSH2 0x15AA JUMP JUMPDEST PUSH1 0x40 DUP1 MLOAD PUSH1 0x1 PUSH1 0x1 PUSH1 0xA0 SHL SUB SWAP11 DUP12 AND DUP2 MSTORE SWAP9 SWAP1 SWAP10 AND PUSH1 0x20 DUP10 ADD MSTORE SWAP6 ISZERO ISZERO DUP8 DUP10 ADD MSTORE PUSH1 0x60 DUP8 ADD SWAP5 SWAP1 SWAP5 MSTORE PUSH1 0x80 DUP7 ADD SWAP3 SWAP1 SWAP3 MSTORE PUSH1 0xA0 DUP6 ADD MSTORE PUSH1 0xC0 DUP5 ADD MSTORE PUSH1 0xE0 DUP4 ADD MSTORE PUSH2 0x100 DUP3 ADD MSTORE SWAP1 MLOAD SWAP1 DUP2 SWAP1 SUB PUSH2 0x120 ADD SWAP1 LOG1 PUSH1 0x1 SLOAD PUSH1 0x40 MLOAD PUSH1 0x0 SWAP2 PUSH1 0x1 PUSH1 0x1 PUSH1 0xA0 SHL SUB AND SWAP1 DUP7 SWAP1 DUP4 DUP2 DUP2 DUP2 DUP6 DUP8 GAS CALL SWAP3 POP POP POP RETURNDATASIZE DUP1 PUSH1 0x0 DUP2 EQ PUSH2 0x7ED JUMPI PUSH1 0x40 MLOAD SWAP2 POP PUSH1 0x1F NOT PUSH1 0x3F RETURNDATASIZE ADD AND DUP3 ADD PUSH1 0x40 MSTORE RETURNDATASIZE DUP3 MSTORE RETURNDATASIZE PUSH1 0x0 PUSH1 0x20 DUP5 ADD RETURNDATACOPY PUSH2 0x7F2 JUMP JUMPDEST PUSH1 0x60 SWAP2 POP JUMPDEST POP POP SWAP1 POP PUSH1 0x0 DUP9 PUSH1 0x1 PUSH1 0x1 PUSH1 0xA0 SHL SUB AND DUP6 PUSH1 0x40 MLOAD PUSH1 0x0 PUSH1 0x40 MLOAD DUP1 DUP4 SUB DUP2 DUP6 DUP8 GAS CALL SWAP3 POP POP POP RETURNDATASIZE DUP1 PUSH1 0x0 DUP2 EQ PUSH2 0x843 JUMPI PUSH1 0x40 MLOAD SWAP2 POP PUSH1 0x1F NOT PUSH1 0x3F RETURNDATASIZE ADD AND DUP3 ADD PUSH1 0x40 MSTORE RETURNDATASIZE DUP3 MSTORE RETURNDATASIZE PUSH1 0x0 PUSH1 0x20 DUP5 ADD RETURNDATACOPY PUSH2 0x848 JUMP JUMPDEST PUSH1 0x60 SWAP2 POP JUMPDEST POP POP SWAP1 POP PUSH1 0x0 PUSH2 0x858 DUP11 DUP7 PUSH2 0x125C JUMP JUMPDEST SWAP1 POP DUP3 DUP1 ISZERO PUSH2 0x864 JUMPI POP DUP2 JUMPDEST DUP1 ISZERO PUSH2 0x86D JUMPI POP DUP1 JUMPDEST PUSH2 0x88A JUMPI PUSH1 0x40 MLOAD PUSH4 0x4A66F903 PUSH1 0xE0 SHL DUP2 MSTORE PUSH1 0x4 ADD PUSH1 0x40 MLOAD DUP1 SWAP2 SUB SWAP1 REVERT JUMPDEST DUP4 PUSH1 0x0 SUB PUSH2 0x90F JUMPI PUSH1 0x1 PUSH1 0x1 PUSH1 0xA0 SHL SUB DUP11 AND PUSH1 0x0 DUP2 DUP2 MSTORE PUSH1 0x6 PUSH1 0x20 SWAP1 DUP2 MSTORE PUSH1 0x40 DUP1 DUP4 KECCAK256 DUP1 SLOAD PUSH1 0x5 DUP5 MSTORE DUP3 DUP6 KECCAK256 CALLER DUP1 DUP8 MSTORE SWAP1 DUP6 MSTORE DUP4 DUP7 KECCAK256 DUP3 SWAP1 SSTORE PUSH1 0x1 DUP1 DUP4 ADD DUP5 SSTORE SWAP3 DUP7 MSTORE DUP5 DUP7 KECCAK256 SWAP1 SWAP2 ADD DUP3 SWAP1 SSTORE SWAP5 DUP5 MSTORE PUSH1 0x7 DUP4 MSTORE SWAP1 DUP4 KECCAK256 DUP1 SLOAD SWAP2 DUP3 ADD DUP2 SSTORE DUP4 MSTORE SWAP2 KECCAK256 ADD DUP1 SLOAD PUSH20 0xFFFFFFFFFFFFFFFFFFFFFFFFFFFFFFFFFFFFFFFF NOT AND SWAP1 SWAP2 OR SWAP1 SSTORE PUSH2 0x967 JUMP JUMPDEST PUSH1 0x1 PUSH1 0x1 PUSH1 0xA0 SHL SUB DUP11 AND PUSH1 0x0 SWAP1 DUP2 MSTORE PUSH1 0x6 PUSH1 0x20 SWAP1 DUP2 MSTORE PUSH1 0x40 DUP1 DUP4 KECCAK256 PUSH1 0x5 DUP4 MSTORE DUP2 DUP5 KECCAK256 CALLER DUP6 MSTORE SWAP1 SWAP3 MSTORE SWAP1 SWAP2 KECCAK256 SLOAD DUP2 SLOAD DUP2 LT PUSH2 0x94B JUMPI PUSH2 0x94B PUSH2 0x15D6 JUMP JUMPDEST PUSH1 0x0 SWAP2 DUP3 MSTORE PUSH1 0x20 DUP3 KECCAK256 ADD DUP1 SLOAD SWAP2 PUSH2 0x961 DUP4 PUSH2 0x15BD JUMP JUMPDEST SWAP2 SWAP1 POP SSTORE POP JUMPDEST POP POP POP POP POP POP POP POP POP POP JUMP JUMPDEST PUSH2 0x97B PUSH2 0x1202 JUMP JUMPDEST PUSH1 0x3 SSTORE JUMP JUMPDEST PUSH1 0x0 DUP1 DUP4 ISZERO PUSH2 0x9DB JUMPI PUSH1 0x6 PUSH2 0x996 PUSH1 0x1 DUP7 PUSH2 0x1597 JUMP JUMPDEST PUSH2 0x9A1 SWAP1 PUSH1 0x2 PUSH2 0x155E JUMP JUMPDEST PUSH2 0x9AC SWAP1 PUSH1 0x1 PUSH2 0x15AA JUMP JUMPDEST DUP6 PUSH2 0x9B8 PUSH1 0x1 DUP3 PUSH2 0x1597 JUMP JUMPDEST PUSH2 0x9C2 SWAP2 SWAP1 PUSH2 0x155E JUMP JUMPDEST PUSH2 0x9CC SWAP2 SWAP1 PUSH2 0x155E JUMP JUMPDEST PUSH2 0x9D6 SWAP2 SWAP1 PUSH2 0x1575 JUMP JUMPDEST PUSH2 0x9DE JUMP JUMPDEST PUSH1 0x0 JUMPDEST SWAP1 POP PUSH1 0x0 DUP5 ISZERO DUP1 ISZERO PUSH2 0x9F0 JUMPI POP DUP4 PUSH1 0x1 EQ JUMPDEST PUSH2 0xA65 JUMPI PUSH1 0x6 PUSH1 0x1 PUSH2 0xA02 DUP7 DUP9 PUSH2 0x15AA JUMP JUMPDEST PUSH2 0xA0C SWAP2 SWAP1 PUSH2 0x1597 JUMP JUMPDEST PUSH2 0xA17 SWAP1 PUSH1 0x2 PUSH2 0x155E JUMP JUMPDEST PUSH2 0xA22 SWAP1 PUSH1 0x1 PUSH2 0x15AA JUMP JUMPDEST PUSH2 0xA2C DUP7 DUP9 PUSH2 0x15AA JUMP JUMPDEST PUSH1 0x1 PUSH2 0xA38 DUP9 DUP11 PUSH2 0x15AA JUMP JUMPDEST PUSH2 0xA42 SWAP2 SWAP1 PUSH2 0x1597 JUMP JUMPDEST PUSH2 0xA4C SWAP2 SWAP1 PUSH2 0x155E JUMP JUMPDEST PUSH2 0xA56 SWAP2 SWAP1 PUSH2 0x155E JUMP JUMPDEST PUSH2 0xA60 SWAP2 SWAP1 PUSH2 0x1575 JUMP JUMPDEST PUSH2 0xA68 JUMP JUMPDEST PUSH1 0x0 JUMPDEST SWAP1 POP PUSH1 0x0 PUSH2 0xA76 DUP4 DUP4 PUSH2 0x1597 JUMP JUMPDEST SWAP1 POP PUSH2 0x3E80 PUSH2 0xA8D DUP3 PUSH8 0xDE0B6B3A7640000 PUSH2 0x155E JUMP JUMPDEST PUSH2 0xA97 SWAP2 SWAP1 PUSH2 0x1575 JUMP JUMPDEST SWAP7 SWAP6 POP POP POP POP POP POP JUMP JUMPDEST PUSH2 0xAA9 PUSH2 0x1202 JUMP JUMPDEST PUSH2 0xAB3 PUSH1 0x0 PUSH2 0x13CB JUMP JUMPDEST JUMP JUMPDEST PUSH1 0x7 PUSH1 0x20 MSTORE DUP2 PUSH1 0x0 MSTORE PUSH1 0x40 PUSH1 0x0 KECCAK256 DUP2 DUP2 SLOAD DUP2 LT PUSH2 0xAD1 JUMPI PUSH1 0x0 DUP1 REVERT JUMPDEST PUSH1 0x0 SWAP2 DUP3 MSTORE PUSH1 0x20 SWAP1 SWAP2 KECCAK256 ADD SLOAD PUSH1 0x1 PUSH1 0x1 PUSH1 0xA0 SHL SUB AND SWAP2 POP DUP3 SWAP1 POP JUMP JUMPDEST PUSH1 0x6 PUSH1 0x20 MSTORE DUP2 PUSH1 0x0 MSTORE PUSH1 0x40 PUSH1 0x0 KECCAK256 DUP2 DUP2 SLOAD DUP2 LT PUSH2 0xB09 JUMPI PUSH1 0x0 DUP1 REVERT JUMPDEST SWAP1 PUSH1 0x0 MSTORE PUSH1 0x20 PUSH1 0x0 KECCAK256 ADD PUSH1 0x0 SWAP2 POP SWAP2 POP POP SLOAD DUP2 JUMP JUMPDEST PUSH1 0x1 PUSH1 0x1 PUSH1 0xA0 SHL SUB DUP3 AND PUSH1 0x0 SWAP1 DUP2 MSTORE PUSH1 0x9 PUSH1 0x20 MSTORE PUSH1 0x40 DUP2 KECCAK256 SLOAD PUSH2 0xB4C SWAP1 PUSH2 0xB46 SWAP1 DUP5 SWAP1 PUSH2 0x1597 JUMP JUMPDEST DUP4 PUSH2 0x980 JUMP JUMPDEST SWAP4 SWAP3 POP POP POP JUMP JUMPDEST PUSH2 0xB5B PUSH2 0x1202 JUMP JUMPDEST PUSH1 0x2 SSTORE JUMP JUMPDEST PUSH1 0x1 PUSH1 0x1 PUSH1 0xA0 SHL SUB DUP3 AND PUSH1 0x0 SWAP1 DUP2 MSTORE PUSH1 0x9 PUSH1 0x20 MSTORE PUSH1 0x40 SWAP1 KECCAK256 SLOAD DUP2 DUP2 GT PUSH2 0xBB2 JUMPI PUSH1 0x40 MLOAD PUSH32 0xB4ABDA3900000000000000000000000000000000000000000000000000000000 DUP2 MSTORE PUSH1 0x4 ADD PUSH1 0x40 MLOAD DUP1 SWAP2 SUB SWAP1 REVERT JUMPDEST PUSH1 0x1 PUSH1 0x1 PUSH1 0xA0 SHL SUB DUP4 AND PUSH1 0x0 SWAP1 DUP2 MSTORE PUSH1 0x8 PUSH1 0x20 SWAP1 DUP2 MSTORE PUSH1 0x40 DUP1 DUP4 KECCAK256 CALLER DUP5 MSTORE SWAP1 SWAP2 MSTORE SWAP1 KECCAK256 SLOAD DUP3 GT ISZERO PUSH2 0xC0F JUMPI PUSH1 0x40 MLOAD PUSH32 0x3999656700000000000000000000000000000000000000000000000000000000 DUP2 MSTORE PUSH1 0x4 ADD PUSH1 0x40 MLOAD DUP1 SWAP2 SUB SWAP1 REVERT JUMPDEST PUSH1 0x0 PUSH2 0xC24 PUSH2 0xC1E DUP5 DUP5 PUSH2 0x1597 JUMP JUMPDEST DUP5 PUSH2 0x980 JUMP JUMPDEST SWAP1 POP PUSH1 0x0 PUSH8 0xDE0B6B3A7640000 PUSH1 0x2 SLOAD DUP4 PUSH2 0xC3F SWAP2 SWAP1 PUSH2 0x155E JUMP JUMPDEST PUSH2 0xC49 SWAP2 SWAP1 PUSH2 0x1575 JUMP JUMPDEST SWAP1 POP PUSH1 0x0 PUSH8 0xDE0B6B3A7640000 PUSH1 0x3 SLOAD DUP5 PUSH2 0xC64 SWAP2 SWAP1 PUSH2 0x155E JUMP JUMPDEST PUSH2 0xC6E SWAP2 SWAP1 PUSH2 0x1575 JUMP JUMPDEST SWAP1 POP PUSH1 0x0 PUSH8 0xDE0B6B3A7640000 PUSH1 0x4 SLOAD DUP6 PUSH2 0xC89 SWAP2 SWAP1 PUSH2 0x155E JUMP JUMPDEST PUSH2 0xC93 SWAP2 SWAP1 PUSH2 0x1575 JUMP JUMPDEST PUSH1 0x1 PUSH1 0x1 PUSH1 0xA0 SHL SUB DUP9 AND PUSH1 0x0 SWAP1 DUP2 MSTORE PUSH1 0x6 PUSH1 0x20 SWAP1 DUP2 MSTORE PUSH1 0x40 DUP1 DUP4 KECCAK256 PUSH1 0x5 DUP4 MSTORE DUP2 DUP5 KECCAK256 CALLER DUP6 MSTORE SWAP1 SWAP3 MSTORE SWAP1 SWAP2 KECCAK256 SLOAD DUP2 SLOAD SWAP3 SWAP4 POP DUP9 SWAP3 DUP2 LT PUSH2 0xCD4 JUMPI PUSH2 0xCD4 PUSH2 0x15D6 JUMP JUMPDEST SWAP1 PUSH1 0x0 MSTORE PUSH1 0x20 PUSH1 0x0 KECCAK256 ADD PUSH1 0x0 DUP3 DUP3 SLOAD PUSH2 0xCED SWAP2 SWAP1 PUSH2 0x1597 JUMP JUMPDEST SWAP1 SWAP2 SSTORE POP POP PUSH1 0x1 PUSH1 0x1 PUSH1 0xA0 SHL SUB DUP8 AND PUSH1 0x0 SWAP1 DUP2 MSTORE PUSH1 0x8 PUSH1 0x20 SWAP1 DUP2 MSTORE PUSH1 0x40 DUP1 DUP4 KECCAK256 CALLER DUP5 MSTORE SWAP1 SWAP2 MSTORE DUP2 KECCAK256 DUP1 SLOAD DUP9 SWAP3 SWAP1 PUSH2 0xD25 SWAP1 DUP5 SWAP1 PUSH2 0x1597 JUMP JUMPDEST SWAP1 SWAP2 SSTORE POP PUSH2 0xD35 SWAP1 POP DUP7 DUP7 PUSH2 0x1597 JUMP JUMPDEST PUSH1 0x1 PUSH1 0x1 PUSH1 0xA0 SHL SUB DUP9 AND PUSH1 0x0 SWAP1 DUP2 MSTORE PUSH1 0x9 PUSH1 0x20 MSTORE PUSH1 0x40 DUP2 KECCAK256 SWAP2 SWAP1 SWAP2 SSTORE PUSH32 0x952FF8D90ADD9FDEAEB478102D54441CF0CC0CBE53B1D99E51F747CDC8379E54 SWAP1 CALLER SWAP1 DUP10 SWAP1 DUP10 DUP9 DUP9 DUP9 DUP9 PUSH2 0xD86 DUP6 DUP16 PUSH2 0x1597 JUMP JUMPDEST PUSH1 0x40 DUP1 MLOAD PUSH1 0x1 PUSH1 0x1 PUSH1 0xA0 SHL SUB SWAP11 DUP12 AND DUP2 MSTORE SWAP9 SWAP1 SWAP10 AND PUSH1 0x20 DUP10 ADD MSTORE SWAP6 ISZERO ISZERO DUP8 DUP10 ADD MSTORE PUSH1 0x60 DUP8 ADD SWAP5 SWAP1 SWAP5 MSTORE PUSH1 0x80 DUP7 ADD SWAP3 SWAP1 SWAP3 MSTORE PUSH1 0xA0 DUP6 ADD MSTORE PUSH1 0xC0 DUP5 ADD MSTORE PUSH1 0xE0 DUP4 ADD MSTORE PUSH2 0x100 DUP3 ADD MSTORE SWAP1 MLOAD SWAP1 DUP2 SWAP1 SUB PUSH2 0x120 ADD SWAP1 LOG1 PUSH1 0x0 CALLER DUP3 DUP5 PUSH2 0xDE7 DUP8 DUP10 PUSH2 0x1597 JUMP JUMPDEST PUSH2 0xDF1 SWAP2 SWAP1 PUSH2 0x1597 JUMP JUMPDEST PUSH2 0xDFB SWAP2 SWAP1 PUSH2 0x1597 JUMP JUMPDEST PUSH1 0x40 MLOAD PUSH1 0x0 DUP2 DUP2 DUP2 DUP6 DUP8 GAS CALL SWAP3 POP POP POP RETURNDATASIZE DUP1 PUSH1 0x0 DUP2 EQ PUSH2 0xE37 JUMPI PUSH1 0x40 MLOAD SWAP2 POP PUSH1 0x1F NOT PUSH1 0x3F RETURNDATASIZE ADD AND DUP3 ADD PUSH1 0x40 MSTORE RETURNDATASIZE DUP3 MSTORE RETURNDATASIZE PUSH1 0x0 PUSH1 0x20 DUP5 ADD RETURNDATACOPY PUSH2 0xE3C JUMP JUMPDEST PUSH1 0x60 SWAP2 POP JUMPDEST POP POP PUSH1 0x1 SLOAD PUSH1 0x40 MLOAD SWAP2 SWAP3 POP PUSH1 0x0 SWAP2 PUSH1 0x1 PUSH1 0x1 PUSH1 0xA0 SHL SUB SWAP1 SWAP2 AND SWAP1 DUP7 SWAP1 DUP4 DUP2 DUP2 DUP2 DUP6 DUP8 GAS CALL SWAP3 POP POP POP RETURNDATASIZE DUP1 PUSH1 0x0 DUP2 EQ PUSH2 0xE90 JUMPI PUSH1 0x40 MLOAD SWAP2 POP PUSH1 0x1F NOT PUSH1 0x3F RETURNDATASIZE ADD AND DUP3 ADD PUSH1 0x40 MSTORE RETURNDATASIZE DUP3 MSTORE RETURNDATASIZE PUSH1 0x0 PUSH1 0x20 DUP5 ADD RETURNDATACOPY PUSH2 0xE95 JUMP JUMPDEST PUSH1 0x60 SWAP2 POP JUMPDEST POP POP SWAP1 POP PUSH1 0x0 DUP10 PUSH1 0x1 PUSH1 0x1 PUSH1 0xA0 SHL SUB AND DUP6 PUSH1 0x40 MLOAD PUSH1 0x0 PUSH1 0x40 MLOAD DUP1 DUP4 SUB DUP2 DUP6 DUP8 GAS CALL SWAP3 POP POP POP RETURNDATASIZE DUP1 PUSH1 0x0 DUP2 EQ PUSH2 0xEE6 JUMPI PUSH1 0x40 MLOAD SWAP2 POP PUSH1 0x1F NOT PUSH1 0x3F RETURNDATASIZE ADD AND DUP3 ADD PUSH1 0x40 MSTORE RETURNDATASIZE DUP3 MSTORE RETURNDATASIZE PUSH1 0x0 PUSH1 0x20 DUP5 ADD RETURNDATACOPY PUSH2 0xEEB JUMP JUMPDEST PUSH1 0x60 SWAP2 POP JUMPDEST POP POP SWAP1 POP PUSH1 0x0 PUSH2 0xEFB DUP12 DUP7 PUSH2 0x125C JUMP JUMPDEST SWAP1 POP DUP4 DUP1 ISZERO PUSH2 0xF07 JUMPI POP DUP3 JUMPDEST DUP1 ISZERO PUSH2 0xF10 JUMPI POP DUP2 JUMPDEST DUP1 ISZERO PUSH2 0xF19 JUMPI POP DUP1 JUMPDEST PUSH2 0xF36 JUMPI PUSH1 0x40 MLOAD PUSH4 0x4A66F903 PUSH1 0xE0 SHL DUP2 MSTORE PUSH1 0x4 ADD PUSH1 0x40 MLOAD DUP1 SWAP2 SUB SWAP1 REVERT JUMPDEST POP POP POP POP POP POP POP POP POP POP POP JUMP JUMPDEST PUSH1 0x40 DUP1 MLOAD PUSH1 0xA DUP1 DUP3 MSTORE PUSH2 0x160 DUP3 ADD SWAP1 SWAP3 MSTORE PUSH1 0x60 SWAP2 PUSH1 0x0 SWAP2 DUP3 SWAP2 PUSH1 0x20 DUP3 ADD PUSH2 0x140 DUP1 CALLDATASIZE DUP4 CALLDATACOPY POP POP POP PUSH1 0x1 PUSH1 0x1 PUSH1 0xA0 SHL SUB DUP6 AND PUSH1 0x0 SWAP1 DUP2 MSTORE PUSH1 0x6 PUSH1 0x20 MSTORE PUSH1 0x40 DUP2 KECCAK256 SLOAD SWAP2 SWAP3 POP SWAP1 DUP2 JUMPDEST DUP2 DUP2 LT ISZERO PUSH2 0x1069 JUMPI PUSH1 0x1 PUSH1 0x1 PUSH1 0xA0 SHL SUB DUP8 AND PUSH1 0x0 SWAP1 DUP2 MSTORE PUSH1 0x6 PUSH1 0x20 MSTORE PUSH1 0x40 SWAP1 KECCAK256 DUP1 SLOAD DUP3 SWAP1 DUP2 LT PUSH2 0xFBB JUMPI PUSH2 0xFBB PUSH2 0x15D6 JUMP JUMPDEST SWAP1 PUSH1 0x0 MSTORE PUSH1 0x20 PUSH1 0x0 KECCAK256 ADD SLOAD PUSH1 0x0 EQ PUSH2 0x104D JUMPI PUSH1 0x1 PUSH1 0x1 PUSH1 0xA0 SHL SUB DUP8 AND PUSH1 0x0 SWAP1 DUP2 MSTORE PUSH1 0x7 PUSH1 0x20 MSTORE PUSH1 0x40 SWAP1 KECCAK256 DUP1 SLOAD DUP3 SWAP1 DUP2 LT PUSH2 0xFF7 JUMPI PUSH2 0xFF7 PUSH2 0x15D6 JUMP JUMPDEST SWAP1 PUSH1 0x0 MSTORE PUSH1 0x20 PUSH1 0x0 KECCAK256 ADD PUSH1 0x0 SWAP1 SLOAD SWAP1 PUSH2 0x100 EXP SWAP1 DIV PUSH1 0x1 PUSH1 0x1 PUSH1 0xA0 SHL SUB AND DUP5 DUP5 DUP2 MLOAD DUP2 LT PUSH2 0x1027 JUMPI PUSH2 0x1027 PUSH2 0x15D6 JUMP JUMPDEST PUSH1 0x1 PUSH1 0x1 PUSH1 0xA0 SHL SUB SWAP1 SWAP3 AND PUSH1 0x20 SWAP3 DUP4 MUL SWAP2 SWAP1 SWAP2 ADD SWAP1 SWAP2 ADD MSTORE DUP3 PUSH2 0x1049 DUP2 PUSH2 0x15BD JUMP JUMPDEST SWAP4 POP POP JUMPDEST PUSH1 0x9 DUP4 GT DUP1 PUSH2 0x105D JUMPI POP PUSH2 0x3E7 DUP2 GT JUMPDEST PUSH2 0x1069 JUMPI PUSH1 0x1 ADD PUSH2 0xF89 JUMP JUMPDEST POP SWAP2 SWAP6 SWAP1 SWAP5 POP SWAP3 POP POP POP JUMP JUMPDEST PUSH1 0x1 PUSH1 0x1 PUSH1 0xA0 SHL SUB DUP2 AND PUSH1 0x0 SWAP1 DUP2 MSTORE PUSH1 0x9 PUSH1 0x20 MSTORE PUSH1 0x40 DUP2 KECCAK256 SLOAD PUSH2 0x568 SWAP1 PUSH1 0x1 PUSH2 0x980 JUMP JUMPDEST PUSH1 0x0 DUP1 PUSH2 0x10A5 DUP4 PUSH2 0x1075 JUMP JUMPDEST SWAP1 POP PUSH1 0x0 PUSH8 0xDE0B6B3A7640000 PUSH1 0x2 SLOAD DUP4 PUSH2 0x10C0 SWAP2 SWAP1 PUSH2 0x155E JUMP JUMPDEST PUSH2 0x10CA SWAP2 SWAP1 PUSH2 0x1575 JUMP JUMPDEST SWAP1 POP PUSH1 0x0 PUSH8 0xDE0B6B3A7640000 PUSH1 0x3 SLOAD DUP5 PUSH2 0x10E5 SWAP2 SWAP1 PUSH2 0x155E JUMP JUMPDEST PUSH2 0x10EF SWAP2 SWAP1 PUSH2 0x1575 JUMP JUMPDEST SWAP1 POP PUSH1 0x0 PUSH8 0xDE0B6B3A7640000 PUSH1 0x4 SLOAD DUP6 PUSH2 0x110A SWAP2 SWAP1 PUSH2 0x155E JUMP JUMPDEST PUSH2 0x1114 SWAP2 SWAP1 PUSH2 0x1575 JUMP JUMPDEST SWAP1 POP DUP1 DUP3 PUSH2 0x1122 DUP6 DUP8 PUSH2 0x15AA JUMP JUMPDEST PUSH2 0x112C SWAP2 SWAP1 PUSH2 0x15AA JUMP JUMPDEST PUSH2 0xA97 SWAP2 SWAP1 PUSH2 0x15AA JUMP JUMPDEST PUSH2 0x113E PUSH2 0x1202 JUMP JUMPDEST PUSH1 0x1 PUSH1 0x1 PUSH1 0xA0 SHL SUB DUP2 AND PUSH2 0x11BF JUMPI PUSH1 0x40 MLOAD PUSH3 0x461BCD PUSH1 0xE5 SHL DUP2 MSTORE PUSH1 0x20 PUSH1 0x4 DUP3 ADD MSTORE PUSH1 0x26 PUSH1 0x24 DUP3 ADD MSTORE PUSH32 0x4F776E61626C653A206E6577206F776E657220697320746865207A65726F2061 PUSH1 0x44 DUP3 ADD MSTORE PUSH32 0x6464726573730000000000000000000000000000000000000000000000000000 PUSH1 0x64 DUP3 ADD MSTORE PUSH1 0x84 ADD JUMPDEST PUSH1 0x40 MLOAD DUP1 SWAP2 SUB SWAP1 REVERT JUMPDEST PUSH2 0x11C8 DUP2 PUSH2 0x13CB JUMP JUMPDEST POP JUMP JUMPDEST PUSH2 0x11D3 PUSH2 0x1202 JUMP JUMPDEST PUSH1 0x1 DUP1 SLOAD PUSH20 0xFFFFFFFFFFFFFFFFFFFFFFFFFFFFFFFFFFFFFFFF NOT AND PUSH1 0x1 PUSH1 0x1 PUSH1 0xA0 SHL SUB SWAP3 SWAP1 SWAP3 AND SWAP2 SWAP1 SWAP2 OR SWAP1 SSTORE JUMP JUMPDEST PUSH1 0x0 SLOAD PUSH1 0x1 PUSH1 0x1 PUSH1 0xA0 SHL SUB AND CALLER EQ PUSH2 0xAB3 JUMPI PUSH1 0x40 MLOAD PUSH3 0x461BCD PUSH1 0xE5 SHL DUP2 MSTORE PUSH1 0x20 PUSH1 0x4 DUP3 ADD DUP2 SWAP1 MSTORE PUSH1 0x24 DUP3 ADD MSTORE PUSH32 0x4F776E61626C653A2063616C6C6572206973206E6F7420746865206F776E6572 PUSH1 0x44 DUP3 ADD MSTORE PUSH1 0x64 ADD PUSH2 0x11B6 JUMP JUMPDEST PUSH1 0x0 DUP1 PUSH1 0x0 PUSH2 0x126A DUP6 PUSH2 0xF43 JUMP JUMPDEST SWAP2 POP SWAP2 POP DUP1 PUSH1 0x0 SUB PUSH2 0x12F0 JUMPI PUSH1 0x1 SLOAD PUSH1 0x40 MLOAD PUSH1 0x0 SWAP2 PUSH1 0x1 PUSH1 0x1 PUSH1 0xA0 SHL SUB AND SWAP1 DUP7 SWAP1 DUP4 DUP2 DUP2 DUP2 DUP6 DUP8 GAS CALL SWAP3 POP POP POP RETURNDATASIZE DUP1 PUSH1 0x0 DUP2 EQ PUSH2 0x12C3 JUMPI PUSH1 0x40 MLOAD SWAP2 POP PUSH1 0x1F NOT PUSH1 0x3F RETURNDATASIZE ADD AND DUP3 ADD PUSH1 0x40 MSTORE RETURNDATASIZE DUP3 MSTORE RETURNDATASIZE PUSH1 0x0 PUSH1 0x20 DUP5 ADD RETURNDATACOPY PUSH2 0x12C8 JUMP JUMPDEST PUSH1 0x60 SWAP2 POP JUMPDEST POP POP SWAP1 POP DUP1 PUSH2 0x12EA JUMPI PUSH1 0x40 MLOAD PUSH4 0x4A66F903 PUSH1 0xE0 SHL DUP2 MSTORE PUSH1 0x4 ADD PUSH1 0x40 MLOAD DUP1 SWAP2 SUB SWAP1 REVERT JUMPDEST POP PUSH2 0x13C0 JUMP JUMPDEST PUSH1 0x0 PUSH8 0xDE0B6B3A7640000 DUP3 PUSH2 0x1306 DUP8 DUP4 PUSH2 0x155E JUMP JUMPDEST PUSH2 0x1310 SWAP2 SWAP1 PUSH2 0x1575 JUMP JUMPDEST PUSH2 0x131A SWAP2 SWAP1 PUSH2 0x1575 JUMP JUMPDEST SWAP1 POP PUSH1 0x0 JUMPDEST DUP3 DUP2 LT ISZERO PUSH2 0x13BD JUMPI PUSH1 0x0 DUP5 DUP3 DUP2 MLOAD DUP2 LT PUSH2 0x133B JUMPI PUSH2 0x133B PUSH2 0x15D6 JUMP JUMPDEST PUSH1 0x20 MUL PUSH1 0x20 ADD ADD MLOAD PUSH1 0x1 PUSH1 0x1 PUSH1 0xA0 SHL SUB AND DUP4 PUSH1 0x40 MLOAD PUSH1 0x0 PUSH1 0x40 MLOAD DUP1 DUP4 SUB DUP2 DUP6 DUP8 GAS CALL SWAP3 POP POP POP RETURNDATASIZE DUP1 PUSH1 0x0 DUP2 EQ PUSH2 0x138D JUMPI PUSH1 0x40 MLOAD SWAP2 POP PUSH1 0x1F NOT PUSH1 0x3F RETURNDATASIZE ADD AND DUP3 ADD PUSH1 0x40 MSTORE RETURNDATASIZE DUP3 MSTORE RETURNDATASIZE PUSH1 0x0 PUSH1 0x20 DUP5 ADD RETURNDATACOPY PUSH2 0x1392 JUMP JUMPDEST PUSH1 0x60 SWAP2 POP JUMPDEST POP POP SWAP1 POP DUP1 PUSH2 0x13B4 JUMPI PUSH1 0x40 MLOAD PUSH4 0x4A66F903 PUSH1 0xE0 SHL DUP2 MSTORE PUSH1 0x4 ADD PUSH1 0x40 MLOAD DUP1 SWAP2 SUB SWAP1 REVERT JUMPDEST POP PUSH1 0x1 ADD PUSH2 0x131F JUMP JUMPDEST POP POP JUMPDEST POP PUSH1 0x1 SWAP5 SWAP4 POP POP POP POP JUMP JUMPDEST PUSH1 0x0 DUP1 SLOAD PUSH1 0x1 PUSH1 0x1 PUSH1 0xA0 SHL SUB DUP4 DUP2 AND PUSH20 0xFFFFFFFFFFFFFFFFFFFFFFFFFFFFFFFFFFFFFFFF NOT DUP4 AND DUP2 OR DUP5 SSTORE PUSH1 0x40 MLOAD SWAP2 SWAP1 SWAP3 AND SWAP3 DUP4 SWAP2 PUSH32 0x8BE0079C531659141344CD1FD0A4F28419497F9722A3DAAFE3B4186F6B6457E0 SWAP2 SWAP1 LOG3 POP POP JUMP JUMPDEST DUP1 CALLDATALOAD PUSH1 0x1 PUSH1 0x1 PUSH1 0xA0 SHL SUB DUP2 AND DUP2 EQ PUSH2 0x143F JUMPI PUSH1 0x0 DUP1 REVERT JUMPDEST SWAP2 SWAP1 POP JUMP JUMPDEST PUSH1 0x0 DUP1 PUSH1 0x40 DUP4 DUP6 SUB SLT ISZERO PUSH2 0x1457 JUMPI PUSH1 0x0 DUP1 REVERT JUMPDEST PUSH2 0x1460 DUP4 PUSH2 0x1428 JUMP JUMPDEST SWAP2 POP PUSH2 0x146E PUSH1 0x20 DUP5 ADD PUSH2 0x1428 JUMP JUMPDEST SWAP1 POP SWAP3 POP SWAP3 SWAP1 POP JUMP JUMPDEST PUSH1 0x0 DUP1 PUSH1 0x40 DUP4 DUP6 SUB SLT ISZERO PUSH2 0x148A JUMPI PUSH1 0x0 DUP1 REVERT JUMPDEST PUSH2 0x1493 DUP4 PUSH2 0x1428 JUMP JUMPDEST SWAP5 PUSH1 0x20 SWAP4 SWAP1 SWAP4 ADD CALLDATALOAD SWAP4 POP POP POP JUMP JUMPDEST PUSH1 0x0 PUSH1 0x20 DUP3 DUP5 SUB SLT ISZERO PUSH2 0x14B3 JUMPI PUSH1 0x0 DUP1 REVERT JUMPDEST POP CALLDATALOAD SWAP2 SWAP1 POP JUMP JUMPDEST PUSH1 0x0 PUSH1 0x20 DUP3 DUP5 SUB SLT ISZERO PUSH2 0x14CC JUMPI PUSH1 0x0 DUP1 REVERT JUMPDEST PUSH2 0xB4C DUP3 PUSH2 0x1428 JUMP JUMPDEST PUSH1 0x0 DUP1 PUSH1 0x40 DUP4 DUP6 SUB SLT ISZERO PUSH2 0x14E8 JUMPI PUSH1 0x0 DUP1 REVERT JUMPDEST POP POP DUP1 CALLDATALOAD SWAP3 PUSH1 0x20 SWAP1 SWAP2 ADD CALLDATALOAD SWAP2 POP JUMP JUMPDEST PUSH1 0x40 DUP1 DUP3 MSTORE DUP4 MLOAD SWAP1 DUP3 ADD DUP2 SWAP1 MSTORE PUSH1 0x0 SWAP1 PUSH1 0x20 SWAP1 PUSH1 0x60 DUP5 ADD SWAP1 DUP3 DUP8 ADD DUP5 JUMPDEST DUP3 DUP2 LT ISZERO PUSH2 0x1539 JUMPI DUP2 MLOAD PUSH1 0x1 PUSH1 0x1 PUSH1 0xA0 SHL SUB AND DUP5 MSTORE SWAP3 DUP5 ADD SWAP3 SWAP1 DUP5 ADD SWAP1 PUSH1 0x1 ADD PUSH2 0x1514 JUMP JUMPDEST POP POP POP SWAP3 ADD SWAP3 SWAP1 SWAP3 MSTORE SWAP3 SWAP2 POP POP JUMP JUMPDEST PUSH4 0x4E487B71 PUSH1 0xE0 SHL PUSH1 0x0 MSTORE PUSH1 0x11 PUSH1 0x4 MSTORE PUSH1 0x24 PUSH1 0x0 REVERT JUMPDEST DUP1 DUP3 MUL DUP2 ISZERO DUP3 DUP3 DIV DUP5 EQ OR PUSH2 0x568 JUMPI PUSH2 0x568 PUSH2 0x1548 JUMP JUMPDEST PUSH1 0x0 DUP3 PUSH2 0x1592 JUMPI PUSH4 0x4E487B71 PUSH1 0xE0 SHL PUSH1 0x0 MSTORE PUSH1 0x12 PUSH1 0x4 MSTORE PUSH1 0x24 PUSH1 0x0 REVERT JUMPDEST POP DIV SWAP1 JUMP JUMPDEST DUP2 DUP2 SUB DUP2 DUP2 GT ISZERO PUSH2 0x568 JUMPI PUSH2 0x568 PUSH2 0x1548 JUMP JUMPDEST DUP1 DUP3 ADD DUP1 DUP3 GT ISZERO PUSH2 0x568 JUMPI PUSH2 0x568 PUSH2 0x1548 JUMP JUMPDEST PUSH1 0x0 PUSH1 0x1 DUP3 ADD PUSH2 0x15CF JUMPI PUSH2 0x15CF PUSH2 0x1548 JUMP JUMPDEST POP PUSH1 0x1 ADD SWAP1 JUMP JUMPDEST PUSH4 0x4E487B71 PUSH1 0xE0 SHL PUSH1 0x0 MSTORE PUSH1 0x32 PUSH1 0x4 MSTORE PUSH1 0x24 PUSH1 0x0 REVERT INVALID LOG2 PUSH5 0x6970667358 0x22 SLT KECCAK256 0xC2 0xC3 0x1F 0xAC SWAP10 CALLER SWAP11 PUSH28 0x50E470219E2BC8E99B036D6CC035FDCC85B1D2684D86A99664736F6C PUSH4 0x43000813 STOP CALLER "
        },
        "methodIdentifiers": {
          "buyShares(address)": "4c85b425",
          "getAtMostTopTenSupporters(address)": "c8ee425d",
          "getBuyPrice(address)": "cedc7277",
          "getBuyPriceAfterFee(address)": "e5aef9f8",
          "getPrice(uint256,uint256)": "5cf4ee91",
          "getSellPrice(address,uint256)": "9ae71781",
          "getSellPriceAfterFee(address,uint256)": "2267a89c",
          "hodlerFeePercent()": "8546e75f",
          "owner()": "8da5cb5b",
          "protocolFeeDestination()": "4ce7957c",
          "protocolFeePercent()": "d6e6eb9f",
          "renounceOwnership()": "715018a6",
          "sellShares(address,uint256)": "b51d0534",
          "setFeeDestination(address)": "fbe53234",
          "setHodlerFeePercent(uint256)": "3365dd94",
          "setProtocolFeePercent(uint256)": "a4983421",
          "setSubjectFeePercent(uint256)": "5a8a764e",
          "sharesBalance(address,address)": "020235ff",
          "sharesSupply(address)": "f9931be0",
          "subjectFeePercent()": "24dc441d",
          "supporterAddressArray(address,uint256)": "7da4757f",
          "supporterKeysArray(address,uint256)": "932e8dc6",
          "supporterNumber(address,address)": "7f33a1c9",
          "transferOwnership(address)": "f2fde38b"
        }
      },
      "storageLayout": {
        "storage": [
          {
            "astId": 7,
            "contract": "contracts/BuilderFiSharesV1.sol:BuidlerFiSharesV1",
            "label": "_owner",
            "offset": 0,
            "slot": "0",
            "type": "t_address"
          },
          {
            "astId": 152,
            "contract": "contracts/BuilderFiSharesV1.sol:BuidlerFiSharesV1",
            "label": "protocolFeeDestination",
            "offset": 0,
            "slot": "1",
            "type": "t_address"
          },
          {
            "astId": 154,
            "contract": "contracts/BuilderFiSharesV1.sol:BuidlerFiSharesV1",
            "label": "protocolFeePercent",
            "offset": 0,
            "slot": "2",
            "type": "t_uint256"
          },
          {
            "astId": 156,
            "contract": "contracts/BuilderFiSharesV1.sol:BuidlerFiSharesV1",
            "label": "subjectFeePercent",
            "offset": 0,
            "slot": "3",
            "type": "t_uint256"
          },
          {
            "astId": 158,
            "contract": "contracts/BuilderFiSharesV1.sol:BuidlerFiSharesV1",
            "label": "hodlerFeePercent",
            "offset": 0,
            "slot": "4",
            "type": "t_uint256"
          },
          {
            "astId": 184,
            "contract": "contracts/BuilderFiSharesV1.sol:BuidlerFiSharesV1",
            "label": "supporterNumber",
            "offset": 0,
            "slot": "5",
            "type": "t_mapping(t_address,t_mapping(t_address,t_uint256))"
          },
          {
            "astId": 189,
            "contract": "contracts/BuilderFiSharesV1.sol:BuidlerFiSharesV1",
            "label": "supporterKeysArray",
            "offset": 0,
            "slot": "6",
            "type": "t_mapping(t_address,t_array(t_uint256)dyn_storage)"
          },
          {
            "astId": 194,
            "contract": "contracts/BuilderFiSharesV1.sol:BuidlerFiSharesV1",
            "label": "supporterAddressArray",
            "offset": 0,
            "slot": "7",
            "type": "t_mapping(t_address,t_array(t_address)dyn_storage)"
          },
          {
            "astId": 200,
            "contract": "contracts/BuilderFiSharesV1.sol:BuidlerFiSharesV1",
            "label": "sharesBalance",
            "offset": 0,
            "slot": "8",
            "type": "t_mapping(t_address,t_mapping(t_address,t_uint256))"
          },
          {
            "astId": 204,
            "contract": "contracts/BuilderFiSharesV1.sol:BuidlerFiSharesV1",
            "label": "sharesSupply",
            "offset": 0,
            "slot": "9",
            "type": "t_mapping(t_address,t_uint256)"
          }
        ],
        "types": {
          "t_address": {
            "encoding": "inplace",
            "label": "address",
            "numberOfBytes": "20"
          },
          "t_array(t_address)dyn_storage": {
            "base": "t_address",
            "encoding": "dynamic_array",
            "label": "address[]",
            "numberOfBytes": "32"
          },
          "t_array(t_uint256)dyn_storage": {
            "base": "t_uint256",
            "encoding": "dynamic_array",
            "label": "uint256[]",
            "numberOfBytes": "32"
          },
          "t_mapping(t_address,t_array(t_address)dyn_storage)": {
            "encoding": "mapping",
            "key": "t_address",
            "label": "mapping(address => address[])",
            "numberOfBytes": "32",
            "value": "t_array(t_address)dyn_storage"
          },
          "t_mapping(t_address,t_array(t_uint256)dyn_storage)": {
            "encoding": "mapping",
            "key": "t_address",
            "label": "mapping(address => uint256[])",
            "numberOfBytes": "32",
            "value": "t_array(t_uint256)dyn_storage"
          },
          "t_mapping(t_address,t_mapping(t_address,t_uint256))": {
            "encoding": "mapping",
            "key": "t_address",
            "label": "mapping(address => mapping(address => uint256))",
            "numberOfBytes": "32",
            "value": "t_mapping(t_address,t_uint256)"
          },
          "t_mapping(t_address,t_uint256)": {
            "encoding": "mapping",
            "key": "t_address",
            "label": "mapping(address => uint256)",
            "numberOfBytes": "32",
            "value": "t_uint256"
          },
          "t_uint256": {
            "encoding": "inplace",
            "label": "uint256",
            "numberOfBytes": "32"
          }
        }
      }
    }
  }
}