{
  "contracts/BuilderFiV1.sol": {
    "BuilderFiV1": {
      "abi": [
        {
          "inputs": [],
          "name": "CannotSellLastShare",
          "type": "error"
        },
        {
          "inputs": [],
          "name": "FundsTransferFailed",
          "type": "error"
        },
        {
          "inputs": [],
          "name": "InsufficientPayment",
          "type": "error"
        },
        {
          "inputs": [],
          "name": "InsufficientShares",
          "type": "error"
        },
        {
          "inputs": [],
          "name": "OnlySharesSubjectCanBuyFirstShare",
          "type": "error"
        },
        {
          "anonymous": false,
          "inputs": [
            {
              "indexed": true,
              "internalType": "address",
              "name": "previousOwner",
              "type": "address"
            },
            {
              "indexed": true,
              "internalType": "address",
              "name": "newOwner",
              "type": "address"
            }
          ],
          "name": "OwnershipTransferred",
          "type": "event"
        },
        {
          "anonymous": false,
          "inputs": [
            {
              "indexed": false,
              "internalType": "address",
              "name": "trader",
              "type": "address"
            },
            {
              "indexed": false,
              "internalType": "address",
              "name": "subject",
              "type": "address"
            },
            {
              "indexed": false,
              "internalType": "bool",
              "name": "isBuy",
              "type": "bool"
            },
            {
              "indexed": false,
              "internalType": "uint256",
              "name": "shareAmount",
              "type": "uint256"
            },
            {
              "indexed": false,
              "internalType": "uint256",
              "name": "ethAmount",
              "type": "uint256"
            },
            {
              "indexed": false,
              "internalType": "uint256",
              "name": "protocolEthAmount",
              "type": "uint256"
            },
            {
              "indexed": false,
              "internalType": "uint256",
              "name": "subjectEthAmount",
              "type": "uint256"
            },
            {
              "indexed": false,
              "internalType": "uint256",
              "name": "hodlerEthAmount",
              "type": "uint256"
            },
            {
              "indexed": false,
              "internalType": "uint256",
              "name": "supply",
              "type": "uint256"
            }
          ],
          "name": "Trade",
          "type": "event"
        },
        {
          "inputs": [
            {
              "internalType": "address",
              "name": "builder",
              "type": "address"
            },
            {
              "internalType": "address",
              "name": "holder",
              "type": "address"
            }
          ],
          "name": "builderCardsBalance",
          "outputs": [
            {
              "internalType": "uint256",
              "name": "balance",
              "type": "uint256"
            }
          ],
          "stateMutability": "view",
          "type": "function"
        },
        {
          "inputs": [
            {
              "internalType": "address",
              "name": "builder",
              "type": "address"
            }
          ],
          "name": "builderCardsSupply",
          "outputs": [
            {
              "internalType": "uint256",
              "name": "supply",
              "type": "uint256"
            }
          ],
          "stateMutability": "view",
          "type": "function"
        },
        {
          "inputs": [
            {
              "internalType": "address",
              "name": "sharesSubject",
              "type": "address"
            }
          ],
          "name": "buyShares",
          "outputs": [],
          "stateMutability": "payable",
          "type": "function"
        },
        {
          "inputs": [
            {
              "internalType": "address",
              "name": "sharesSubject",
              "type": "address"
            }
          ],
          "name": "getBuyPrice",
          "outputs": [
            {
              "internalType": "uint256",
              "name": "",
              "type": "uint256"
            }
          ],
          "stateMutability": "view",
          "type": "function"
        },
        {
          "inputs": [
            {
              "internalType": "address",
              "name": "sharesSubject",
              "type": "address"
            }
          ],
          "name": "getBuyPriceAfterFee",
          "outputs": [
            {
              "internalType": "uint256",
              "name": "",
              "type": "uint256"
            }
          ],
          "stateMutability": "view",
          "type": "function"
        },
        {
          "inputs": [
            {
              "internalType": "uint256",
              "name": "supply",
              "type": "uint256"
            },
            {
              "internalType": "uint256",
              "name": "amount",
              "type": "uint256"
            }
          ],
          "name": "getPrice",
          "outputs": [
            {
              "internalType": "uint256",
              "name": "",
              "type": "uint256"
            }
          ],
          "stateMutability": "pure",
          "type": "function"
        },
        {
          "inputs": [
            {
              "internalType": "address",
              "name": "sharesSubject",
              "type": "address"
            },
            {
              "internalType": "uint256",
              "name": "amount",
              "type": "uint256"
            }
          ],
          "name": "getSellPrice",
          "outputs": [
            {
              "internalType": "uint256",
              "name": "",
              "type": "uint256"
            }
          ],
          "stateMutability": "view",
          "type": "function"
        },
        {
          "inputs": [
            {
              "internalType": "address",
              "name": "sharesSubject",
              "type": "address"
            },
            {
              "internalType": "uint256",
              "name": "amount",
              "type": "uint256"
            }
          ],
          "name": "getSellPriceAfterFee",
          "outputs": [
            {
              "internalType": "uint256",
              "name": "",
              "type": "uint256"
            }
          ],
          "stateMutability": "view",
          "type": "function"
        },
        {
          "inputs": [],
          "name": "hodlerFeePercent",
          "outputs": [
            {
              "internalType": "uint256",
              "name": "",
              "type": "uint256"
            }
          ],
          "stateMutability": "view",
          "type": "function"
        },
        {
          "inputs": [],
          "name": "owner",
          "outputs": [
            {
              "internalType": "address",
              "name": "",
              "type": "address"
            }
          ],
          "stateMutability": "view",
          "type": "function"
        },
        {
          "inputs": [],
          "name": "protocolFeeDestination",
          "outputs": [
            {
              "internalType": "address",
              "name": "",
              "type": "address"
            }
          ],
          "stateMutability": "view",
          "type": "function"
        },
        {
          "inputs": [],
          "name": "protocolFeePercent",
          "outputs": [
            {
              "internalType": "uint256",
              "name": "",
              "type": "uint256"
            }
          ],
          "stateMutability": "view",
          "type": "function"
        },
        {
          "inputs": [],
          "name": "renounceOwnership",
          "outputs": [],
          "stateMutability": "nonpayable",
          "type": "function"
        },
        {
          "inputs": [
            {
              "internalType": "address",
              "name": "sharesSubject",
              "type": "address"
            },
            {
              "internalType": "uint256",
              "name": "amount",
              "type": "uint256"
            }
          ],
          "name": "sellShares",
          "outputs": [],
          "stateMutability": "payable",
          "type": "function"
        },
        {
          "inputs": [
            {
              "internalType": "address",
              "name": "_feeDestination",
              "type": "address"
            }
          ],
          "name": "setFeeDestination",
          "outputs": [],
          "stateMutability": "nonpayable",
          "type": "function"
        },
        {
          "inputs": [
            {
              "internalType": "uint256",
              "name": "_feePercent",
              "type": "uint256"
            }
          ],
          "name": "setHodlerFeePercent",
          "outputs": [],
          "stateMutability": "nonpayable",
          "type": "function"
        },
        {
          "inputs": [
            {
              "internalType": "uint256",
              "name": "_feePercent",
              "type": "uint256"
            }
          ],
          "name": "setProtocolFeePercent",
          "outputs": [],
          "stateMutability": "nonpayable",
          "type": "function"
        },
        {
          "inputs": [
            {
              "internalType": "uint256",
              "name": "_feePercent",
              "type": "uint256"
            }
          ],
          "name": "setSubjectFeePercent",
          "outputs": [],
          "stateMutability": "nonpayable",
          "type": "function"
        },
        {
          "inputs": [],
          "name": "subjectFeePercent",
          "outputs": [
            {
              "internalType": "uint256",
              "name": "",
              "type": "uint256"
            }
          ],
          "stateMutability": "view",
          "type": "function"
        },
        {
          "inputs": [
            {
              "internalType": "address",
              "name": "newOwner",
              "type": "address"
            }
          ],
          "name": "transferOwnership",
          "outputs": [],
          "stateMutability": "nonpayable",
          "type": "function"
        }
      ],
      "evm": {
        "bytecode": {
          "linkReferences": {},
          "object": "608060405234801561001057600080fd5b5061001a3361001f565b61006f565b600080546001600160a01b038381166001600160a01b0319831681178455604051919092169283917f8be0079c531659141344cd1fd0a4f28419497f9722a3daafe3b4186f6b6457e09190a35050565b6110748061007e6000396000f3fe60806040526004361061015f5760003560e01c80638e8da06f116100c0578063cedc727711610074578063e5aef9f811610059578063e5aef9f814610391578063f2fde38b146103b1578063fbe53234146103d157600080fd5b8063cedc72771461035b578063d6e6eb9f1461037b57600080fd5b8063a22a5e66116100a5578063a22a5e66146102fb578063a498342114610328578063b51d05341461034857600080fd5b80638e8da06f146102a35780639ae71781146102db57600080fd5b80635a8a764e11610117578063715018a6116100fc578063715018a61461025a5780638546e75f1461026f5780638da5cb5b1461028557600080fd5b80635a8a764e1461021a5780635cf4ee911461023a57600080fd5b80633365dd94116101485780633365dd94146101ad5780634c85b425146101cf5780634ce7957c146101e257600080fd5b80632267a89c1461016457806324dc441d14610197575b600080fd5b34801561017057600080fd5b5061018461017f366004610efd565b6103f1565b6040519081526020015b60405180910390f35b3480156101a357600080fd5b5061018460035481565b3480156101b957600080fd5b506101cd6101c8366004610f27565b61049c565b005b6101cd6101dd366004610f40565b6104a9565b3480156101ee57600080fd5b50600154610202906001600160a01b031681565b6040516001600160a01b03909116815260200161018e565b34801561022657600080fd5b506101cd610235366004610f27565b6107a8565b34801561024657600080fd5b50610184610255366004610f5b565b6107b5565b34801561026657600080fd5b506101cd6108d6565b34801561027b57600080fd5b5061018460045481565b34801561029157600080fd5b506000546001600160a01b0316610202565b3480156102af57600080fd5b506101846102be366004610f7d565b600560209081526000928352604080842090915290825290205481565b3480156102e757600080fd5b506101846102f6366004610efd565b6108ea565b34801561030757600080fd5b50610184610316366004610f40565b60066020526000908152604090205481565b34801561033457600080fd5b506101cd610343366004610f27565b61091f565b6101cd610356366004610efd565b61092c565b34801561036757600080fd5b50610184610376366004610f40565b610c9d565b34801561038757600080fd5b5061018460025481565b34801561039d57600080fd5b506101846103ac366004610f40565b610cc1565b3480156103bd57600080fd5b506101cd6103cc366004610f40565b610d5e565b3480156103dd57600080fd5b506101cd6103ec366004610f40565b610df3565b6000806103fe84846108ea565b90506000670de0b6b3a7640000600254836104199190610fc6565b6104239190610fdd565b90506000670de0b6b3a76400006003548461043e9190610fc6565b6104489190610fdd565b90506000670de0b6b3a7640000600454856104639190610fc6565b61046d9190610fdd565b9050808261047b8587610fff565b6104859190610fff565b61048f9190610fff565b9450505050505b92915050565b6104a4610e2a565b600455565b6001600160a01b038116600090815260066020526040902054801580156104d957506001600160a01b0382163314155b15610510576040517f80843b1700000000000000000000000000000000000000000000000000000000815260040160405180910390fd5b600061051d8260016107b5565b90506000670de0b6b3a7640000600254836105389190610fc6565b6105429190610fdd565b90506000670de0b6b3a76400006003548461055d9190610fc6565b6105679190610fdd565b90506000670de0b6b3a7640000600454856105829190610fc6565b61058c9190610fdd565b9050808261059a8587611012565b6105a49190611012565b6105ae9190611012565b3410156105e7576040517fcd1c886700000000000000000000000000000000000000000000000000000000815260040160405180910390fd5b6001600160a01b0386166000908152600560209081526040808320338452909152812080549161061683611025565b90915550506001600160a01b038616600090815260066020526040812080549161063f83611025565b909155507f952ff8d90add9fdeaeb478102d54441cf0cc0cbe53b1d99e51f747cdc8379e5490503387600180888888886106798e86611012565b604080516001600160a01b039a8b168152989099166020890152951515878901526060870194909452608086019290925260a085015260c084015260e08301526101008201529051908190036101200190a16001546040516000916001600160a01b03169085908381818185875af1925050503d8060008114610718576040519150601f19603f3d011682016040523d82523d6000602084013e61071d565b606091505b505090506000876001600160a01b03168460405160006040518083038185875af1925050503d806000811461076e576040519150601f19603f3d011682016040523d82523d6000602084013e610773565b606091505b505090508180156107815750805b61079e57604051634a66f90360e01b815260040160405180910390fd5b5050505050505050565b6107b0610e2a565b600355565b60008083156108105760066107cb600186610fff565b6107d6906002610fc6565b6107e1906001611012565b856107ed600182610fff565b6107f79190610fc6565b6108019190610fc6565b61080b9190610fdd565b610813565b60005b90506000841580156108255750836001145b61089a57600660016108378688611012565b6108419190610fff565b61084c906002610fc6565b610857906001611012565b6108618688611012565b600161086d888a611012565b6108779190610fff565b6108819190610fc6565b61088b9190610fc6565b6108959190610fdd565b61089d565b60005b905060006108ab8383610fff565b9050613e806108c282670de0b6b3a7640000610fc6565b6108cc9190610fdd565b9695505050505050565b6108de610e2a565b6108e86000610e84565b565b6001600160a01b03821660009081526006602052604081205461091890610912908490610fff565b836107b5565b9392505050565b610927610e2a565b600255565b6001600160a01b03821660009081526006602052604090205481811161097e576040517fb4abda3900000000000000000000000000000000000000000000000000000000815260040160405180910390fd5b6001600160a01b03831660009081526005602090815260408083203384529091529020548211156109db576040517f3999656700000000000000000000000000000000000000000000000000000000815260040160405180910390fd5b60006109f06109ea8484610fff565b846107b5565b90506000670de0b6b3a764000060025483610a0b9190610fc6565b610a159190610fdd565b90506000670de0b6b3a764000060035484610a309190610fc6565b610a3a9190610fdd565b90506000670de0b6b3a764000060045485610a559190610fc6565b610a5f9190610fdd565b6001600160a01b0388166000908152600560209081526040808320338452909152812080549293508892909190610a97908490610fff565b90915550610aa790508686610fff565b6001600160a01b0388166000908152600660205260408120919091557f952ff8d90add9fdeaeb478102d54441cf0cc0cbe53b1d99e51f747cdc8379e5490339089908988888888610af8858f610fff565b604080516001600160a01b039a8b168152989099166020890152951515878901526060870194909452608086019290925260a085015260c084015260e08301526101008201529051908190036101200190a16000338284610b598789610fff565b610b639190610fff565b610b6d9190610fff565b604051600081818185875af1925050503d8060008114610ba9576040519150601f19603f3d011682016040523d82523d6000602084013e610bae565b606091505b50506001546040519192506000916001600160a01b039091169086908381818185875af1925050503d8060008114610c02576040519150601f19603f3d011682016040523d82523d6000602084013e610c07565b606091505b505090506000896001600160a01b03168560405160006040518083038185875af1925050503d8060008114610c58576040519150601f19603f3d011682016040523d82523d6000602084013e610c5d565b606091505b50509050828015610c6b5750815b8015610c745750805b610c9157604051634a66f90360e01b815260040160405180910390fd5b50505050505050505050565b6001600160a01b0381166000908152600660205260408120546104969060016107b5565b600080610ccd83610c9d565b90506000670de0b6b3a764000060025483610ce89190610fc6565b610cf29190610fdd565b90506000670de0b6b3a764000060035484610d0d9190610fc6565b610d179190610fdd565b90506000670de0b6b3a764000060045485610d329190610fc6565b610d3c9190610fdd565b90508082610d4a8587611012565b610d549190611012565b6108cc9190611012565b610d66610e2a565b6001600160a01b038116610de75760405162461bcd60e51b815260206004820152602660248201527f4f776e61626c653a206e6577206f776e657220697320746865207a65726f206160448201527f646472657373000000000000000000000000000000000000000000000000000060648201526084015b60405180910390fd5b610df081610e84565b50565b610dfb610e2a565b6001805473ffffffffffffffffffffffffffffffffffffffff19166001600160a01b0392909216919091179055565b6000546001600160a01b031633146108e85760405162461bcd60e51b815260206004820181905260248201527f4f776e61626c653a2063616c6c6572206973206e6f7420746865206f776e65726044820152606401610dde565b600080546001600160a01b0383811673ffffffffffffffffffffffffffffffffffffffff19831681178455604051919092169283917f8be0079c531659141344cd1fd0a4f28419497f9722a3daafe3b4186f6b6457e09190a35050565b80356001600160a01b0381168114610ef857600080fd5b919050565b60008060408385031215610f1057600080fd5b610f1983610ee1565b946020939093013593505050565b600060208284031215610f3957600080fd5b5035919050565b600060208284031215610f5257600080fd5b61091882610ee1565b60008060408385031215610f6e57600080fd5b50508035926020909101359150565b60008060408385031215610f9057600080fd5b610f9983610ee1565b9150610fa760208401610ee1565b90509250929050565b634e487b7160e01b600052601160045260246000fd5b808202811582820484141761049657610496610fb0565b600082610ffa57634e487b7160e01b600052601260045260246000fd5b500490565b8181038181111561049657610496610fb0565b8082018082111561049657610496610fb0565b60006001820161103757611037610fb0565b506001019056fea2646970667358221220fc05938f89c00a517b4818a547a690c99aced5c64d2f340a5573b7b5443849bf64736f6c63430008130033",
          "opcodes": "PUSH1 0x80 PUSH1 0x40 MSTORE CALLVALUE DUP1 ISZERO PUSH2 0x10 JUMPI PUSH1 0x0 DUP1 REVERT JUMPDEST POP PUSH2 0x1A CALLER PUSH2 0x1F JUMP JUMPDEST PUSH2 0x6F JUMP JUMPDEST PUSH1 0x0 DUP1 SLOAD PUSH1 0x1 PUSH1 0x1 PUSH1 0xA0 SHL SUB DUP4 DUP2 AND PUSH1 0x1 PUSH1 0x1 PUSH1 0xA0 SHL SUB NOT DUP4 AND DUP2 OR DUP5 SSTORE PUSH1 0x40 MLOAD SWAP2 SWAP1 SWAP3 AND SWAP3 DUP4 SWAP2 PUSH32 0x8BE0079C531659141344CD1FD0A4F28419497F9722A3DAAFE3B4186F6B6457E0 SWAP2 SWAP1 LOG3 POP POP JUMP JUMPDEST PUSH2 0x1074 DUP1 PUSH2 0x7E PUSH1 0x0 CODECOPY PUSH1 0x0 RETURN INVALID PUSH1 0x80 PUSH1 0x40 MSTORE PUSH1 0x4 CALLDATASIZE LT PUSH2 0x15F JUMPI PUSH1 0x0 CALLDATALOAD PUSH1 0xE0 SHR DUP1 PUSH4 0x8E8DA06F GT PUSH2 0xC0 JUMPI DUP1 PUSH4 0xCEDC7277 GT PUSH2 0x74 JUMPI DUP1 PUSH4 0xE5AEF9F8 GT PUSH2 0x59 JUMPI DUP1 PUSH4 0xE5AEF9F8 EQ PUSH2 0x391 JUMPI DUP1 PUSH4 0xF2FDE38B EQ PUSH2 0x3B1 JUMPI DUP1 PUSH4 0xFBE53234 EQ PUSH2 0x3D1 JUMPI PUSH1 0x0 DUP1 REVERT JUMPDEST DUP1 PUSH4 0xCEDC7277 EQ PUSH2 0x35B JUMPI DUP1 PUSH4 0xD6E6EB9F EQ PUSH2 0x37B JUMPI PUSH1 0x0 DUP1 REVERT JUMPDEST DUP1 PUSH4 0xA22A5E66 GT PUSH2 0xA5 JUMPI DUP1 PUSH4 0xA22A5E66 EQ PUSH2 0x2FB JUMPI DUP1 PUSH4 0xA4983421 EQ PUSH2 0x328 JUMPI DUP1 PUSH4 0xB51D0534 EQ PUSH2 0x348 JUMPI PUSH1 0x0 DUP1 REVERT JUMPDEST DUP1 PUSH4 0x8E8DA06F EQ PUSH2 0x2A3 JUMPI DUP1 PUSH4 0x9AE71781 EQ PUSH2 0x2DB JUMPI PUSH1 0x0 DUP1 REVERT JUMPDEST DUP1 PUSH4 0x5A8A764E GT PUSH2 0x117 JUMPI DUP1 PUSH4 0x715018A6 GT PUSH2 0xFC JUMPI DUP1 PUSH4 0x715018A6 EQ PUSH2 0x25A JUMPI DUP1 PUSH4 0x8546E75F EQ PUSH2 0x26F JUMPI DUP1 PUSH4 0x8DA5CB5B EQ PUSH2 0x285 JUMPI PUSH1 0x0 DUP1 REVERT JUMPDEST DUP1 PUSH4 0x5A8A764E EQ PUSH2 0x21A JUMPI DUP1 PUSH4 0x5CF4EE91 EQ PUSH2 0x23A JUMPI PUSH1 0x0 DUP1 REVERT JUMPDEST DUP1 PUSH4 0x3365DD94 GT PUSH2 0x148 JUMPI DUP1 PUSH4 0x3365DD94 EQ PUSH2 0x1AD JUMPI DUP1 PUSH4 0x4C85B425 EQ PUSH2 0x1CF JUMPI DUP1 PUSH4 0x4CE7957C EQ PUSH2 0x1E2 JUMPI PUSH1 0x0 DUP1 REVERT JUMPDEST DUP1 PUSH4 0x2267A89C EQ PUSH2 0x164 JUMPI DUP1 PUSH4 0x24DC441D EQ PUSH2 0x197 JUMPI JUMPDEST PUSH1 0x0 DUP1 REVERT JUMPDEST CALLVALUE DUP1 ISZERO PUSH2 0x170 JUMPI PUSH1 0x0 DUP1 REVERT JUMPDEST POP PUSH2 0x184 PUSH2 0x17F CALLDATASIZE PUSH1 0x4 PUSH2 0xEFD JUMP JUMPDEST PUSH2 0x3F1 JUMP JUMPDEST PUSH1 0x40 MLOAD SWAP1 DUP2 MSTORE PUSH1 0x20 ADD JUMPDEST PUSH1 0x40 MLOAD DUP1 SWAP2 SUB SWAP1 RETURN JUMPDEST CALLVALUE DUP1 ISZERO PUSH2 0x1A3 JUMPI PUSH1 0x0 DUP1 REVERT JUMPDEST POP PUSH2 0x184 PUSH1 0x3 SLOAD DUP2 JUMP JUMPDEST CALLVALUE DUP1 ISZERO PUSH2 0x1B9 JUMPI PUSH1 0x0 DUP1 REVERT JUMPDEST POP PUSH2 0x1CD PUSH2 0x1C8 CALLDATASIZE PUSH1 0x4 PUSH2 0xF27 JUMP JUMPDEST PUSH2 0x49C JUMP JUMPDEST STOP JUMPDEST PUSH2 0x1CD PUSH2 0x1DD CALLDATASIZE PUSH1 0x4 PUSH2 0xF40 JUMP JUMPDEST PUSH2 0x4A9 JUMP JUMPDEST CALLVALUE DUP1 ISZERO PUSH2 0x1EE JUMPI PUSH1 0x0 DUP1 REVERT JUMPDEST POP PUSH1 0x1 SLOAD PUSH2 0x202 SWAP1 PUSH1 0x1 PUSH1 0x1 PUSH1 0xA0 SHL SUB AND DUP2 JUMP JUMPDEST PUSH1 0x40 MLOAD PUSH1 0x1 PUSH1 0x1 PUSH1 0xA0 SHL SUB SWAP1 SWAP2 AND DUP2 MSTORE PUSH1 0x20 ADD PUSH2 0x18E JUMP JUMPDEST CALLVALUE DUP1 ISZERO PUSH2 0x226 JUMPI PUSH1 0x0 DUP1 REVERT JUMPDEST POP PUSH2 0x1CD PUSH2 0x235 CALLDATASIZE PUSH1 0x4 PUSH2 0xF27 JUMP JUMPDEST PUSH2 0x7A8 JUMP JUMPDEST CALLVALUE DUP1 ISZERO PUSH2 0x246 JUMPI PUSH1 0x0 DUP1 REVERT JUMPDEST POP PUSH2 0x184 PUSH2 0x255 CALLDATASIZE PUSH1 0x4 PUSH2 0xF5B JUMP JUMPDEST PUSH2 0x7B5 JUMP JUMPDEST CALLVALUE DUP1 ISZERO PUSH2 0x266 JUMPI PUSH1 0x0 DUP1 REVERT JUMPDEST POP PUSH2 0x1CD PUSH2 0x8D6 JUMP JUMPDEST CALLVALUE DUP1 ISZERO PUSH2 0x27B JUMPI PUSH1 0x0 DUP1 REVERT JUMPDEST POP PUSH2 0x184 PUSH1 0x4 SLOAD DUP2 JUMP JUMPDEST CALLVALUE DUP1 ISZERO PUSH2 0x291 JUMPI PUSH1 0x0 DUP1 REVERT JUMPDEST POP PUSH1 0x0 SLOAD PUSH1 0x1 PUSH1 0x1 PUSH1 0xA0 SHL SUB AND PUSH2 0x202 JUMP JUMPDEST CALLVALUE DUP1 ISZERO PUSH2 0x2AF JUMPI PUSH1 0x0 DUP1 REVERT JUMPDEST POP PUSH2 0x184 PUSH2 0x2BE CALLDATASIZE PUSH1 0x4 PUSH2 0xF7D JUMP JUMPDEST PUSH1 0x5 PUSH1 0x20 SWAP1 DUP2 MSTORE PUSH1 0x0 SWAP3 DUP4 MSTORE PUSH1 0x40 DUP1 DUP5 KECCAK256 SWAP1 SWAP2 MSTORE SWAP1 DUP3 MSTORE SWAP1 KECCAK256 SLOAD DUP2 JUMP JUMPDEST CALLVALUE DUP1 ISZERO PUSH2 0x2E7 JUMPI PUSH1 0x0 DUP1 REVERT JUMPDEST POP PUSH2 0x184 PUSH2 0x2F6 CALLDATASIZE PUSH1 0x4 PUSH2 0xEFD JUMP JUMPDEST PUSH2 0x8EA JUMP JUMPDEST CALLVALUE DUP1 ISZERO PUSH2 0x307 JUMPI PUSH1 0x0 DUP1 REVERT JUMPDEST POP PUSH2 0x184 PUSH2 0x316 CALLDATASIZE PUSH1 0x4 PUSH2 0xF40 JUMP JUMPDEST PUSH1 0x6 PUSH1 0x20 MSTORE PUSH1 0x0 SWAP1 DUP2 MSTORE PUSH1 0x40 SWAP1 KECCAK256 SLOAD DUP2 JUMP JUMPDEST CALLVALUE DUP1 ISZERO PUSH2 0x334 JUMPI PUSH1 0x0 DUP1 REVERT JUMPDEST POP PUSH2 0x1CD PUSH2 0x343 CALLDATASIZE PUSH1 0x4 PUSH2 0xF27 JUMP JUMPDEST PUSH2 0x91F JUMP JUMPDEST PUSH2 0x1CD PUSH2 0x356 CALLDATASIZE PUSH1 0x4 PUSH2 0xEFD JUMP JUMPDEST PUSH2 0x92C JUMP JUMPDEST CALLVALUE DUP1 ISZERO PUSH2 0x367 JUMPI PUSH1 0x0 DUP1 REVERT JUMPDEST POP PUSH2 0x184 PUSH2 0x376 CALLDATASIZE PUSH1 0x4 PUSH2 0xF40 JUMP JUMPDEST PUSH2 0xC9D JUMP JUMPDEST CALLVALUE DUP1 ISZERO PUSH2 0x387 JUMPI PUSH1 0x0 DUP1 REVERT JUMPDEST POP PUSH2 0x184 PUSH1 0x2 SLOAD DUP2 JUMP JUMPDEST CALLVALUE DUP1 ISZERO PUSH2 0x39D JUMPI PUSH1 0x0 DUP1 REVERT JUMPDEST POP PUSH2 0x184 PUSH2 0x3AC CALLDATASIZE PUSH1 0x4 PUSH2 0xF40 JUMP JUMPDEST PUSH2 0xCC1 JUMP JUMPDEST CALLVALUE DUP1 ISZERO PUSH2 0x3BD JUMPI PUSH1 0x0 DUP1 REVERT JUMPDEST POP PUSH2 0x1CD PUSH2 0x3CC CALLDATASIZE PUSH1 0x4 PUSH2 0xF40 JUMP JUMPDEST PUSH2 0xD5E JUMP JUMPDEST CALLVALUE DUP1 ISZERO PUSH2 0x3DD JUMPI PUSH1 0x0 DUP1 REVERT JUMPDEST POP PUSH2 0x1CD PUSH2 0x3EC CALLDATASIZE PUSH1 0x4 PUSH2 0xF40 JUMP JUMPDEST PUSH2 0xDF3 JUMP JUMPDEST PUSH1 0x0 DUP1 PUSH2 0x3FE DUP5 DUP5 PUSH2 0x8EA JUMP JUMPDEST SWAP1 POP PUSH1 0x0 PUSH8 0xDE0B6B3A7640000 PUSH1 0x2 SLOAD DUP4 PUSH2 0x419 SWAP2 SWAP1 PUSH2 0xFC6 JUMP JUMPDEST PUSH2 0x423 SWAP2 SWAP1 PUSH2 0xFDD JUMP JUMPDEST SWAP1 POP PUSH1 0x0 PUSH8 0xDE0B6B3A7640000 PUSH1 0x3 SLOAD DUP5 PUSH2 0x43E SWAP2 SWAP1 PUSH2 0xFC6 JUMP JUMPDEST PUSH2 0x448 SWAP2 SWAP1 PUSH2 0xFDD JUMP JUMPDEST SWAP1 POP PUSH1 0x0 PUSH8 0xDE0B6B3A7640000 PUSH1 0x4 SLOAD DUP6 PUSH2 0x463 SWAP2 SWAP1 PUSH2 0xFC6 JUMP JUMPDEST PUSH2 0x46D SWAP2 SWAP1 PUSH2 0xFDD JUMP JUMPDEST SWAP1 POP DUP1 DUP3 PUSH2 0x47B DUP6 DUP8 PUSH2 0xFFF JUMP JUMPDEST PUSH2 0x485 SWAP2 SWAP1 PUSH2 0xFFF JUMP JUMPDEST PUSH2 0x48F SWAP2 SWAP1 PUSH2 0xFFF JUMP JUMPDEST SWAP5 POP POP POP POP POP JUMPDEST SWAP3 SWAP2 POP POP JUMP JUMPDEST PUSH2 0x4A4 PUSH2 0xE2A JUMP JUMPDEST PUSH1 0x4 SSTORE JUMP JUMPDEST PUSH1 0x1 PUSH1 0x1 PUSH1 0xA0 SHL SUB DUP2 AND PUSH1 0x0 SWAP1 DUP2 MSTORE PUSH1 0x6 PUSH1 0x20 MSTORE PUSH1 0x40 SWAP1 KECCAK256 SLOAD DUP1 ISZERO DUP1 ISZERO PUSH2 0x4D9 JUMPI POP PUSH1 0x1 PUSH1 0x1 PUSH1 0xA0 SHL SUB DUP3 AND CALLER EQ ISZERO JUMPDEST ISZERO PUSH2 0x510 JUMPI PUSH1 0x40 MLOAD PUSH32 0x80843B1700000000000000000000000000000000000000000000000000000000 DUP2 MSTORE PUSH1 0x4 ADD PUSH1 0x40 MLOAD DUP1 SWAP2 SUB SWAP1 REVERT JUMPDEST PUSH1 0x0 PUSH2 0x51D DUP3 PUSH1 0x1 PUSH2 0x7B5 JUMP JUMPDEST SWAP1 POP PUSH1 0x0 PUSH8 0xDE0B6B3A7640000 PUSH1 0x2 SLOAD DUP4 PUSH2 0x538 SWAP2 SWAP1 PUSH2 0xFC6 JUMP JUMPDEST PUSH2 0x542 SWAP2 SWAP1 PUSH2 0xFDD JUMP JUMPDEST SWAP1 POP PUSH1 0x0 PUSH8 0xDE0B6B3A7640000 PUSH1 0x3 SLOAD DUP5 PUSH2 0x55D SWAP2 SWAP1 PUSH2 0xFC6 JUMP JUMPDEST PUSH2 0x567 SWAP2 SWAP1 PUSH2 0xFDD JUMP JUMPDEST SWAP1 POP PUSH1 0x0 PUSH8 0xDE0B6B3A7640000 PUSH1 0x4 SLOAD DUP6 PUSH2 0x582 SWAP2 SWAP1 PUSH2 0xFC6 JUMP JUMPDEST PUSH2 0x58C SWAP2 SWAP1 PUSH2 0xFDD JUMP JUMPDEST SWAP1 POP DUP1 DUP3 PUSH2 0x59A DUP6 DUP8 PUSH2 0x1012 JUMP JUMPDEST PUSH2 0x5A4 SWAP2 SWAP1 PUSH2 0x1012 JUMP JUMPDEST PUSH2 0x5AE SWAP2 SWAP1 PUSH2 0x1012 JUMP JUMPDEST CALLVALUE LT ISZERO PUSH2 0x5E7 JUMPI PUSH1 0x40 MLOAD PUSH32 0xCD1C886700000000000000000000000000000000000000000000000000000000 DUP2 MSTORE PUSH1 0x4 ADD PUSH1 0x40 MLOAD DUP1 SWAP2 SUB SWAP1 REVERT JUMPDEST PUSH1 0x1 PUSH1 0x1 PUSH1 0xA0 SHL SUB DUP7 AND PUSH1 0x0 SWAP1 DUP2 MSTORE PUSH1 0x5 PUSH1 0x20 SWAP1 DUP2 MSTORE PUSH1 0x40 DUP1 DUP4 KECCAK256 CALLER DUP5 MSTORE SWAP1 SWAP2 MSTORE DUP2 KECCAK256 DUP1 SLOAD SWAP2 PUSH2 0x616 DUP4 PUSH2 0x1025 JUMP JUMPDEST SWAP1 SWAP2 SSTORE POP POP PUSH1 0x1 PUSH1 0x1 PUSH1 0xA0 SHL SUB DUP7 AND PUSH1 0x0 SWAP1 DUP2 MSTORE PUSH1 0x6 PUSH1 0x20 MSTORE PUSH1 0x40 DUP2 KECCAK256 DUP1 SLOAD SWAP2 PUSH2 0x63F DUP4 PUSH2 0x1025 JUMP JUMPDEST SWAP1 SWAP2 SSTORE POP PUSH32 0x952FF8D90ADD9FDEAEB478102D54441CF0CC0CBE53B1D99E51F747CDC8379E54 SWAP1 POP CALLER DUP8 PUSH1 0x1 DUP1 DUP9 DUP9 DUP9 DUP9 PUSH2 0x679 DUP15 DUP7 PUSH2 0x1012 JUMP JUMPDEST PUSH1 0x40 DUP1 MLOAD PUSH1 0x1 PUSH1 0x1 PUSH1 0xA0 SHL SUB SWAP11 DUP12 AND DUP2 MSTORE SWAP9 SWAP1 SWAP10 AND PUSH1 0x20 DUP10 ADD MSTORE SWAP6 ISZERO ISZERO DUP8 DUP10 ADD MSTORE PUSH1 0x60 DUP8 ADD SWAP5 SWAP1 SWAP5 MSTORE PUSH1 0x80 DUP7 ADD SWAP3 SWAP1 SWAP3 MSTORE PUSH1 0xA0 DUP6 ADD MSTORE PUSH1 0xC0 DUP5 ADD MSTORE PUSH1 0xE0 DUP4 ADD MSTORE PUSH2 0x100 DUP3 ADD MSTORE SWAP1 MLOAD SWAP1 DUP2 SWAP1 SUB PUSH2 0x120 ADD SWAP1 LOG1 PUSH1 0x1 SLOAD PUSH1 0x40 MLOAD PUSH1 0x0 SWAP2 PUSH1 0x1 PUSH1 0x1 PUSH1 0xA0 SHL SUB AND SWAP1 DUP6 SWAP1 DUP4 DUP2 DUP2 DUP2 DUP6 DUP8 GAS CALL SWAP3 POP POP POP RETURNDATASIZE DUP1 PUSH1 0x0 DUP2 EQ PUSH2 0x718 JUMPI PUSH1 0x40 MLOAD SWAP2 POP PUSH1 0x1F NOT PUSH1 0x3F RETURNDATASIZE ADD AND DUP3 ADD PUSH1 0x40 MSTORE RETURNDATASIZE DUP3 MSTORE RETURNDATASIZE PUSH1 0x0 PUSH1 0x20 DUP5 ADD RETURNDATACOPY PUSH2 0x71D JUMP JUMPDEST PUSH1 0x60 SWAP2 POP JUMPDEST POP POP SWAP1 POP PUSH1 0x0 DUP8 PUSH1 0x1 PUSH1 0x1 PUSH1 0xA0 SHL SUB AND DUP5 PUSH1 0x40 MLOAD PUSH1 0x0 PUSH1 0x40 MLOAD DUP1 DUP4 SUB DUP2 DUP6 DUP8 GAS CALL SWAP3 POP POP POP RETURNDATASIZE DUP1 PUSH1 0x0 DUP2 EQ PUSH2 0x76E JUMPI PUSH1 0x40 MLOAD SWAP2 POP PUSH1 0x1F NOT PUSH1 0x3F RETURNDATASIZE ADD AND DUP3 ADD PUSH1 0x40 MSTORE RETURNDATASIZE DUP3 MSTORE RETURNDATASIZE PUSH1 0x0 PUSH1 0x20 DUP5 ADD RETURNDATACOPY PUSH2 0x773 JUMP JUMPDEST PUSH1 0x60 SWAP2 POP JUMPDEST POP POP SWAP1 POP DUP2 DUP1 ISZERO PUSH2 0x781 JUMPI POP DUP1 JUMPDEST PUSH2 0x79E JUMPI PUSH1 0x40 MLOAD PUSH4 0x4A66F903 PUSH1 0xE0 SHL DUP2 MSTORE PUSH1 0x4 ADD PUSH1 0x40 MLOAD DUP1 SWAP2 SUB SWAP1 REVERT JUMPDEST POP POP POP POP POP POP POP POP JUMP JUMPDEST PUSH2 0x7B0 PUSH2 0xE2A JUMP JUMPDEST PUSH1 0x3 SSTORE JUMP JUMPDEST PUSH1 0x0 DUP1 DUP4 ISZERO PUSH2 0x810 JUMPI PUSH1 0x6 PUSH2 0x7CB PUSH1 0x1 DUP7 PUSH2 0xFFF JUMP JUMPDEST PUSH2 0x7D6 SWAP1 PUSH1 0x2 PUSH2 0xFC6 JUMP JUMPDEST PUSH2 0x7E1 SWAP1 PUSH1 0x1 PUSH2 0x1012 JUMP JUMPDEST DUP6 PUSH2 0x7ED PUSH1 0x1 DUP3 PUSH2 0xFFF JUMP JUMPDEST PUSH2 0x7F7 SWAP2 SWAP1 PUSH2 0xFC6 JUMP JUMPDEST PUSH2 0x801 SWAP2 SWAP1 PUSH2 0xFC6 JUMP JUMPDEST PUSH2 0x80B SWAP2 SWAP1 PUSH2 0xFDD JUMP JUMPDEST PUSH2 0x813 JUMP JUMPDEST PUSH1 0x0 JUMPDEST SWAP1 POP PUSH1 0x0 DUP5 ISZERO DUP1 ISZERO PUSH2 0x825 JUMPI POP DUP4 PUSH1 0x1 EQ JUMPDEST PUSH2 0x89A JUMPI PUSH1 0x6 PUSH1 0x1 PUSH2 0x837 DUP7 DUP9 PUSH2 0x1012 JUMP JUMPDEST PUSH2 0x841 SWAP2 SWAP1 PUSH2 0xFFF JUMP JUMPDEST PUSH2 0x84C SWAP1 PUSH1 0x2 PUSH2 0xFC6 JUMP JUMPDEST PUSH2 0x857 SWAP1 PUSH1 0x1 PUSH2 0x1012 JUMP JUMPDEST PUSH2 0x861 DUP7 DUP9 PUSH2 0x1012 JUMP JUMPDEST PUSH1 0x1 PUSH2 0x86D DUP9 DUP11 PUSH2 0x1012 JUMP JUMPDEST PUSH2 0x877 SWAP2 SWAP1 PUSH2 0xFFF JUMP JUMPDEST PUSH2 0x881 SWAP2 SWAP1 PUSH2 0xFC6 JUMP JUMPDEST PUSH2 0x88B SWAP2 SWAP1 PUSH2 0xFC6 JUMP JUMPDEST PUSH2 0x895 SWAP2 SWAP1 PUSH2 0xFDD JUMP JUMPDEST PUSH2 0x89D JUMP JUMPDEST PUSH1 0x0 JUMPDEST SWAP1 POP PUSH1 0x0 PUSH2 0x8AB DUP4 DUP4 PUSH2 0xFFF JUMP JUMPDEST SWAP1 POP PUSH2 0x3E80 PUSH2 0x8C2 DUP3 PUSH8 0xDE0B6B3A7640000 PUSH2 0xFC6 JUMP JUMPDEST PUSH2 0x8CC SWAP2 SWAP1 PUSH2 0xFDD JUMP JUMPDEST SWAP7 SWAP6 POP POP POP POP POP POP JUMP JUMPDEST PUSH2 0x8DE PUSH2 0xE2A JUMP JUMPDEST PUSH2 0x8E8 PUSH1 0x0 PUSH2 0xE84 JUMP JUMPDEST JUMP JUMPDEST PUSH1 0x1 PUSH1 0x1 PUSH1 0xA0 SHL SUB DUP3 AND PUSH1 0x0 SWAP1 DUP2 MSTORE PUSH1 0x6 PUSH1 0x20 MSTORE PUSH1 0x40 DUP2 KECCAK256 SLOAD PUSH2 0x918 SWAP1 PUSH2 0x912 SWAP1 DUP5 SWAP1 PUSH2 0xFFF JUMP JUMPDEST DUP4 PUSH2 0x7B5 JUMP JUMPDEST SWAP4 SWAP3 POP POP POP JUMP JUMPDEST PUSH2 0x927 PUSH2 0xE2A JUMP JUMPDEST PUSH1 0x2 SSTORE JUMP JUMPDEST PUSH1 0x1 PUSH1 0x1 PUSH1 0xA0 SHL SUB DUP3 AND PUSH1 0x0 SWAP1 DUP2 MSTORE PUSH1 0x6 PUSH1 0x20 MSTORE PUSH1 0x40 SWAP1 KECCAK256 SLOAD DUP2 DUP2 GT PUSH2 0x97E JUMPI PUSH1 0x40 MLOAD PUSH32 0xB4ABDA3900000000000000000000000000000000000000000000000000000000 DUP2 MSTORE PUSH1 0x4 ADD PUSH1 0x40 MLOAD DUP1 SWAP2 SUB SWAP1 REVERT JUMPDEST PUSH1 0x1 PUSH1 0x1 PUSH1 0xA0 SHL SUB DUP4 AND PUSH1 0x0 SWAP1 DUP2 MSTORE PUSH1 0x5 PUSH1 0x20 SWAP1 DUP2 MSTORE PUSH1 0x40 DUP1 DUP4 KECCAK256 CALLER DUP5 MSTORE SWAP1 SWAP2 MSTORE SWAP1 KECCAK256 SLOAD DUP3 GT ISZERO PUSH2 0x9DB JUMPI PUSH1 0x40 MLOAD PUSH32 0x3999656700000000000000000000000000000000000000000000000000000000 DUP2 MSTORE PUSH1 0x4 ADD PUSH1 0x40 MLOAD DUP1 SWAP2 SUB SWAP1 REVERT JUMPDEST PUSH1 0x0 PUSH2 0x9F0 PUSH2 0x9EA DUP5 DUP5 PUSH2 0xFFF JUMP JUMPDEST DUP5 PUSH2 0x7B5 JUMP JUMPDEST SWAP1 POP PUSH1 0x0 PUSH8 0xDE0B6B3A7640000 PUSH1 0x2 SLOAD DUP4 PUSH2 0xA0B SWAP2 SWAP1 PUSH2 0xFC6 JUMP JUMPDEST PUSH2 0xA15 SWAP2 SWAP1 PUSH2 0xFDD JUMP JUMPDEST SWAP1 POP PUSH1 0x0 PUSH8 0xDE0B6B3A7640000 PUSH1 0x3 SLOAD DUP5 PUSH2 0xA30 SWAP2 SWAP1 PUSH2 0xFC6 JUMP JUMPDEST PUSH2 0xA3A SWAP2 SWAP1 PUSH2 0xFDD JUMP JUMPDEST SWAP1 POP PUSH1 0x0 PUSH8 0xDE0B6B3A7640000 PUSH1 0x4 SLOAD DUP6 PUSH2 0xA55 SWAP2 SWAP1 PUSH2 0xFC6 JUMP JUMPDEST PUSH2 0xA5F SWAP2 SWAP1 PUSH2 0xFDD JUMP JUMPDEST PUSH1 0x1 PUSH1 0x1 PUSH1 0xA0 SHL SUB DUP9 AND PUSH1 0x0 SWAP1 DUP2 MSTORE PUSH1 0x5 PUSH1 0x20 SWAP1 DUP2 MSTORE PUSH1 0x40 DUP1 DUP4 KECCAK256 CALLER DUP5 MSTORE SWAP1 SWAP2 MSTORE DUP2 KECCAK256 DUP1 SLOAD SWAP3 SWAP4 POP DUP9 SWAP3 SWAP1 SWAP2 SWAP1 PUSH2 0xA97 SWAP1 DUP5 SWAP1 PUSH2 0xFFF JUMP JUMPDEST SWAP1 SWAP2 SSTORE POP PUSH2 0xAA7 SWAP1 POP DUP7 DUP7 PUSH2 0xFFF JUMP JUMPDEST PUSH1 0x1 PUSH1 0x1 PUSH1 0xA0 SHL SUB DUP9 AND PUSH1 0x0 SWAP1 DUP2 MSTORE PUSH1 0x6 PUSH1 0x20 MSTORE PUSH1 0x40 DUP2 KECCAK256 SWAP2 SWAP1 SWAP2 SSTORE PUSH32 0x952FF8D90ADD9FDEAEB478102D54441CF0CC0CBE53B1D99E51F747CDC8379E54 SWAP1 CALLER SWAP1 DUP10 SWAP1 DUP10 DUP9 DUP9 DUP9 DUP9 PUSH2 0xAF8 DUP6 DUP16 PUSH2 0xFFF JUMP JUMPDEST PUSH1 0x40 DUP1 MLOAD PUSH1 0x1 PUSH1 0x1 PUSH1 0xA0 SHL SUB SWAP11 DUP12 AND DUP2 MSTORE SWAP9 SWAP1 SWAP10 AND PUSH1 0x20 DUP10 ADD MSTORE SWAP6 ISZERO ISZERO DUP8 DUP10 ADD MSTORE PUSH1 0x60 DUP8 ADD SWAP5 SWAP1 SWAP5 MSTORE PUSH1 0x80 DUP7 ADD SWAP3 SWAP1 SWAP3 MSTORE PUSH1 0xA0 DUP6 ADD MSTORE PUSH1 0xC0 DUP5 ADD MSTORE PUSH1 0xE0 DUP4 ADD MSTORE PUSH2 0x100 DUP3 ADD MSTORE SWAP1 MLOAD SWAP1 DUP2 SWAP1 SUB PUSH2 0x120 ADD SWAP1 LOG1 PUSH1 0x0 CALLER DUP3 DUP5 PUSH2 0xB59 DUP8 DUP10 PUSH2 0xFFF JUMP JUMPDEST PUSH2 0xB63 SWAP2 SWAP1 PUSH2 0xFFF JUMP JUMPDEST PUSH2 0xB6D SWAP2 SWAP1 PUSH2 0xFFF JUMP JUMPDEST PUSH1 0x40 MLOAD PUSH1 0x0 DUP2 DUP2 DUP2 DUP6 DUP8 GAS CALL SWAP3 POP POP POP RETURNDATASIZE DUP1 PUSH1 0x0 DUP2 EQ PUSH2 0xBA9 JUMPI PUSH1 0x40 MLOAD SWAP2 POP PUSH1 0x1F NOT PUSH1 0x3F RETURNDATASIZE ADD AND DUP3 ADD PUSH1 0x40 MSTORE RETURNDATASIZE DUP3 MSTORE RETURNDATASIZE PUSH1 0x0 PUSH1 0x20 DUP5 ADD RETURNDATACOPY PUSH2 0xBAE JUMP JUMPDEST PUSH1 0x60 SWAP2 POP JUMPDEST POP POP PUSH1 0x1 SLOAD PUSH1 0x40 MLOAD SWAP2 SWAP3 POP PUSH1 0x0 SWAP2 PUSH1 0x1 PUSH1 0x1 PUSH1 0xA0 SHL SUB SWAP1 SWAP2 AND SWAP1 DUP7 SWAP1 DUP4 DUP2 DUP2 DUP2 DUP6 DUP8 GAS CALL SWAP3 POP POP POP RETURNDATASIZE DUP1 PUSH1 0x0 DUP2 EQ PUSH2 0xC02 JUMPI PUSH1 0x40 MLOAD SWAP2 POP PUSH1 0x1F NOT PUSH1 0x3F RETURNDATASIZE ADD AND DUP3 ADD PUSH1 0x40 MSTORE RETURNDATASIZE DUP3 MSTORE RETURNDATASIZE PUSH1 0x0 PUSH1 0x20 DUP5 ADD RETURNDATACOPY PUSH2 0xC07 JUMP JUMPDEST PUSH1 0x60 SWAP2 POP JUMPDEST POP POP SWAP1 POP PUSH1 0x0 DUP10 PUSH1 0x1 PUSH1 0x1 PUSH1 0xA0 SHL SUB AND DUP6 PUSH1 0x40 MLOAD PUSH1 0x0 PUSH1 0x40 MLOAD DUP1 DUP4 SUB DUP2 DUP6 DUP8 GAS CALL SWAP3 POP POP POP RETURNDATASIZE DUP1 PUSH1 0x0 DUP2 EQ PUSH2 0xC58 JUMPI PUSH1 0x40 MLOAD SWAP2 POP PUSH1 0x1F NOT PUSH1 0x3F RETURNDATASIZE ADD AND DUP3 ADD PUSH1 0x40 MSTORE RETURNDATASIZE DUP3 MSTORE RETURNDATASIZE PUSH1 0x0 PUSH1 0x20 DUP5 ADD RETURNDATACOPY PUSH2 0xC5D JUMP JUMPDEST PUSH1 0x60 SWAP2 POP JUMPDEST POP POP SWAP1 POP DUP3 DUP1 ISZERO PUSH2 0xC6B JUMPI POP DUP2 JUMPDEST DUP1 ISZERO PUSH2 0xC74 JUMPI POP DUP1 JUMPDEST PUSH2 0xC91 JUMPI PUSH1 0x40 MLOAD PUSH4 0x4A66F903 PUSH1 0xE0 SHL DUP2 MSTORE PUSH1 0x4 ADD PUSH1 0x40 MLOAD DUP1 SWAP2 SUB SWAP1 REVERT JUMPDEST POP POP POP POP POP POP POP POP POP POP JUMP JUMPDEST PUSH1 0x1 PUSH1 0x1 PUSH1 0xA0 SHL SUB DUP2 AND PUSH1 0x0 SWAP1 DUP2 MSTORE PUSH1 0x6 PUSH1 0x20 MSTORE PUSH1 0x40 DUP2 KECCAK256 SLOAD PUSH2 0x496 SWAP1 PUSH1 0x1 PUSH2 0x7B5 JUMP JUMPDEST PUSH1 0x0 DUP1 PUSH2 0xCCD DUP4 PUSH2 0xC9D JUMP JUMPDEST SWAP1 POP PUSH1 0x0 PUSH8 0xDE0B6B3A7640000 PUSH1 0x2 SLOAD DUP4 PUSH2 0xCE8 SWAP2 SWAP1 PUSH2 0xFC6 JUMP JUMPDEST PUSH2 0xCF2 SWAP2 SWAP1 PUSH2 0xFDD JUMP JUMPDEST SWAP1 POP PUSH1 0x0 PUSH8 0xDE0B6B3A7640000 PUSH1 0x3 SLOAD DUP5 PUSH2 0xD0D SWAP2 SWAP1 PUSH2 0xFC6 JUMP JUMPDEST PUSH2 0xD17 SWAP2 SWAP1 PUSH2 0xFDD JUMP JUMPDEST SWAP1 POP PUSH1 0x0 PUSH8 0xDE0B6B3A7640000 PUSH1 0x4 SLOAD DUP6 PUSH2 0xD32 SWAP2 SWAP1 PUSH2 0xFC6 JUMP JUMPDEST PUSH2 0xD3C SWAP2 SWAP1 PUSH2 0xFDD JUMP JUMPDEST SWAP1 POP DUP1 DUP3 PUSH2 0xD4A DUP6 DUP8 PUSH2 0x1012 JUMP JUMPDEST PUSH2 0xD54 SWAP2 SWAP1 PUSH2 0x1012 JUMP JUMPDEST PUSH2 0x8CC SWAP2 SWAP1 PUSH2 0x1012 JUMP JUMPDEST PUSH2 0xD66 PUSH2 0xE2A JUMP JUMPDEST PUSH1 0x1 PUSH1 0x1 PUSH1 0xA0 SHL SUB DUP2 AND PUSH2 0xDE7 JUMPI PUSH1 0x40 MLOAD PUSH3 0x461BCD PUSH1 0xE5 SHL DUP2 MSTORE PUSH1 0x20 PUSH1 0x4 DUP3 ADD MSTORE PUSH1 0x26 PUSH1 0x24 DUP3 ADD MSTORE PUSH32 0x4F776E61626C653A206E6577206F776E657220697320746865207A65726F2061 PUSH1 0x44 DUP3 ADD MSTORE PUSH32 0x6464726573730000000000000000000000000000000000000000000000000000 PUSH1 0x64 DUP3 ADD MSTORE PUSH1 0x84 ADD JUMPDEST PUSH1 0x40 MLOAD DUP1 SWAP2 SUB SWAP1 REVERT JUMPDEST PUSH2 0xDF0 DUP2 PUSH2 0xE84 JUMP JUMPDEST POP JUMP JUMPDEST PUSH2 0xDFB PUSH2 0xE2A JUMP JUMPDEST PUSH1 0x1 DUP1 SLOAD PUSH20 0xFFFFFFFFFFFFFFFFFFFFFFFFFFFFFFFFFFFFFFFF NOT AND PUSH1 0x1 PUSH1 0x1 PUSH1 0xA0 SHL SUB SWAP3 SWAP1 SWAP3 AND SWAP2 SWAP1 SWAP2 OR SWAP1 SSTORE JUMP JUMPDEST PUSH1 0x0 SLOAD PUSH1 0x1 PUSH1 0x1 PUSH1 0xA0 SHL SUB AND CALLER EQ PUSH2 0x8E8 JUMPI PUSH1 0x40 MLOAD PUSH3 0x461BCD PUSH1 0xE5 SHL DUP2 MSTORE PUSH1 0x20 PUSH1 0x4 DUP3 ADD DUP2 SWAP1 MSTORE PUSH1 0x24 DUP3 ADD MSTORE PUSH32 0x4F776E61626C653A2063616C6C6572206973206E6F7420746865206F776E6572 PUSH1 0x44 DUP3 ADD MSTORE PUSH1 0x64 ADD PUSH2 0xDDE JUMP JUMPDEST PUSH1 0x0 DUP1 SLOAD PUSH1 0x1 PUSH1 0x1 PUSH1 0xA0 SHL SUB DUP4 DUP2 AND PUSH20 0xFFFFFFFFFFFFFFFFFFFFFFFFFFFFFFFFFFFFFFFF NOT DUP4 AND DUP2 OR DUP5 SSTORE PUSH1 0x40 MLOAD SWAP2 SWAP1 SWAP3 AND SWAP3 DUP4 SWAP2 PUSH32 0x8BE0079C531659141344CD1FD0A4F28419497F9722A3DAAFE3B4186F6B6457E0 SWAP2 SWAP1 LOG3 POP POP JUMP JUMPDEST DUP1 CALLDATALOAD PUSH1 0x1 PUSH1 0x1 PUSH1 0xA0 SHL SUB DUP2 AND DUP2 EQ PUSH2 0xEF8 JUMPI PUSH1 0x0 DUP1 REVERT JUMPDEST SWAP2 SWAP1 POP JUMP JUMPDEST PUSH1 0x0 DUP1 PUSH1 0x40 DUP4 DUP6 SUB SLT ISZERO PUSH2 0xF10 JUMPI PUSH1 0x0 DUP1 REVERT JUMPDEST PUSH2 0xF19 DUP4 PUSH2 0xEE1 JUMP JUMPDEST SWAP5 PUSH1 0x20 SWAP4 SWAP1 SWAP4 ADD CALLDATALOAD SWAP4 POP POP POP JUMP JUMPDEST PUSH1 0x0 PUSH1 0x20 DUP3 DUP5 SUB SLT ISZERO PUSH2 0xF39 JUMPI PUSH1 0x0 DUP1 REVERT JUMPDEST POP CALLDATALOAD SWAP2 SWAP1 POP JUMP JUMPDEST PUSH1 0x0 PUSH1 0x20 DUP3 DUP5 SUB SLT ISZERO PUSH2 0xF52 JUMPI PUSH1 0x0 DUP1 REVERT JUMPDEST PUSH2 0x918 DUP3 PUSH2 0xEE1 JUMP JUMPDEST PUSH1 0x0 DUP1 PUSH1 0x40 DUP4 DUP6 SUB SLT ISZERO PUSH2 0xF6E JUMPI PUSH1 0x0 DUP1 REVERT JUMPDEST POP POP DUP1 CALLDATALOAD SWAP3 PUSH1 0x20 SWAP1 SWAP2 ADD CALLDATALOAD SWAP2 POP JUMP JUMPDEST PUSH1 0x0 DUP1 PUSH1 0x40 DUP4 DUP6 SUB SLT ISZERO PUSH2 0xF90 JUMPI PUSH1 0x0 DUP1 REVERT JUMPDEST PUSH2 0xF99 DUP4 PUSH2 0xEE1 JUMP JUMPDEST SWAP2 POP PUSH2 0xFA7 PUSH1 0x20 DUP5 ADD PUSH2 0xEE1 JUMP JUMPDEST SWAP1 POP SWAP3 POP SWAP3 SWAP1 POP JUMP JUMPDEST PUSH4 0x4E487B71 PUSH1 0xE0 SHL PUSH1 0x0 MSTORE PUSH1 0x11 PUSH1 0x4 MSTORE PUSH1 0x24 PUSH1 0x0 REVERT JUMPDEST DUP1 DUP3 MUL DUP2 ISZERO DUP3 DUP3 DIV DUP5 EQ OR PUSH2 0x496 JUMPI PUSH2 0x496 PUSH2 0xFB0 JUMP JUMPDEST PUSH1 0x0 DUP3 PUSH2 0xFFA JUMPI PUSH4 0x4E487B71 PUSH1 0xE0 SHL PUSH1 0x0 MSTORE PUSH1 0x12 PUSH1 0x4 MSTORE PUSH1 0x24 PUSH1 0x0 REVERT JUMPDEST POP DIV SWAP1 JUMP JUMPDEST DUP2 DUP2 SUB DUP2 DUP2 GT ISZERO PUSH2 0x496 JUMPI PUSH2 0x496 PUSH2 0xFB0 JUMP JUMPDEST DUP1 DUP3 ADD DUP1 DUP3 GT ISZERO PUSH2 0x496 JUMPI PUSH2 0x496 PUSH2 0xFB0 JUMP JUMPDEST PUSH1 0x0 PUSH1 0x1 DUP3 ADD PUSH2 0x1037 JUMPI PUSH2 0x1037 PUSH2 0xFB0 JUMP JUMPDEST POP PUSH1 0x1 ADD SWAP1 JUMP INVALID LOG2 PUSH5 0x6970667358 0x22 SLT KECCAK256 0xFC SDIV SWAP4 DUP16 DUP10 0xC0 EXP MLOAD PUSH28 0x4818A547A690C99ACED5C64D2F340A5573B7B5443849BF64736F6C63 NUMBER STOP ADDMOD SGT STOP CALLER "
        },
        "methodIdentifiers": {
          "builderCardsBalance(address,address)": "8e8da06f",
          "builderCardsSupply(address)": "a22a5e66",
          "buyShares(address)": "4c85b425",
          "getBuyPrice(address)": "cedc7277",
          "getBuyPriceAfterFee(address)": "e5aef9f8",
          "getPrice(uint256,uint256)": "5cf4ee91",
          "getSellPrice(address,uint256)": "9ae71781",
          "getSellPriceAfterFee(address,uint256)": "2267a89c",
          "hodlerFeePercent()": "8546e75f",
          "owner()": "8da5cb5b",
          "protocolFeeDestination()": "4ce7957c",
          "protocolFeePercent()": "d6e6eb9f",
          "renounceOwnership()": "715018a6",
          "sellShares(address,uint256)": "b51d0534",
          "setFeeDestination(address)": "fbe53234",
          "setHodlerFeePercent(uint256)": "3365dd94",
          "setProtocolFeePercent(uint256)": "a4983421",
          "setSubjectFeePercent(uint256)": "5a8a764e",
          "subjectFeePercent()": "24dc441d",
          "transferOwnership(address)": "f2fde38b"
        }
      },
      "storageLayout": {
        "storage": [
          {
            "astId": 7,
            "contract": "contracts/BuilderFiV1.sol:BuilderFiV1",
            "label": "_owner",
            "offset": 0,
            "slot": "0",
            "type": "t_address"
          },
          {
            "astId": 152,
            "contract": "contracts/BuilderFiV1.sol:BuilderFiV1",
            "label": "protocolFeeDestination",
            "offset": 0,
            "slot": "1",
            "type": "t_address"
          },
          {
            "astId": 154,
            "contract": "contracts/BuilderFiV1.sol:BuilderFiV1",
            "label": "protocolFeePercent",
            "offset": 0,
            "slot": "2",
            "type": "t_uint256"
          },
          {
            "astId": 156,
            "contract": "contracts/BuilderFiV1.sol:BuilderFiV1",
            "label": "subjectFeePercent",
            "offset": 0,
            "slot": "3",
            "type": "t_uint256"
          },
          {
            "astId": 158,
            "contract": "contracts/BuilderFiV1.sol:BuilderFiV1",
            "label": "hodlerFeePercent",
            "offset": 0,
            "slot": "4",
            "type": "t_uint256"
          },
          {
            "astId": 184,
            "contract": "contracts/BuilderFiV1.sol:BuilderFiV1",
            "label": "builderCardsBalance",
            "offset": 0,
            "slot": "5",
            "type": "t_mapping(t_address,t_mapping(t_address,t_uint256))"
          },
          {
            "astId": 188,
            "contract": "contracts/BuilderFiV1.sol:BuilderFiV1",
            "label": "builderCardsSupply",
            "offset": 0,
            "slot": "6",
            "type": "t_mapping(t_address,t_uint256)"
          }
        ],
        "types": {
          "t_address": {
            "encoding": "inplace",
            "label": "address",
            "numberOfBytes": "20"
          },
          "t_mapping(t_address,t_mapping(t_address,t_uint256))": {
            "encoding": "mapping",
            "key": "t_address",
            "label": "mapping(address => mapping(address => uint256))",
            "numberOfBytes": "32",
            "value": "t_mapping(t_address,t_uint256)"
          },
          "t_mapping(t_address,t_uint256)": {
            "encoding": "mapping",
            "key": "t_address",
            "label": "mapping(address => uint256)",
            "numberOfBytes": "32",
            "value": "t_uint256"
          },
          "t_uint256": {
            "encoding": "inplace",
            "label": "uint256",
            "numberOfBytes": "32"
          }
        }
      }
    }
  }
}