{"contracts/BuilderFiV1.sol":{"BuilderFiV1":{"abi":[{"inputs":[{"internalType":"address","name":"_owner","type":"address"}],"stateMutability":"nonpayable","type":"constructor"},{"inputs":[],"name":"CannotSellLastShare","type":"error"},{"inputs":[],"name":"FundsTransferFailed","type":"error"},{"inputs":[],"name":"InsufficientPayment","type":"error"},{"inputs":[],"name":"InsufficientShares","type":"error"},{"inputs":[],"name":"OnlySharesSubjectCanBuyFirstShare","type":"error"},{"anonymous":false,"inputs":[{"indexed":true,"internalType":"bytes32","name":"role","type":"bytes32"},{"indexed":true,"internalType":"bytes32","name":"previousAdminRole","type":"bytes32"},{"indexed":true,"internalType":"bytes32","name":"newAdminRole","type":"bytes32"}],"name":"RoleAdminChanged","type":"event"},{"anonymous":false,"inputs":[{"indexed":true,"internalType":"bytes32","name":"role","type":"bytes32"},{"indexed":true,"internalType":"address","name":"account","type":"address"},{"indexed":true,"internalType":"address","name":"sender","type":"address"}],"name":"RoleGranted","type":"event"},{"anonymous":false,"inputs":[{"indexed":true,"internalType":"bytes32","name":"role","type":"bytes32"},{"indexed":true,"internalType":"address","name":"account","type":"address"},{"indexed":true,"internalType":"address","name":"sender","type":"address"}],"name":"RoleRevoked","type":"event"},{"anonymous":false,"inputs":[{"indexed":false,"internalType":"address","name":"trader","type":"address"},{"indexed":false,"internalType":"address","name":"subject","type":"address"},{"indexed":false,"internalType":"bool","name":"isBuy","type":"bool"},{"indexed":false,"internalType":"uint256","name":"shareAmount","type":"uint256"},{"indexed":false,"internalType":"uint256","name":"ethAmount","type":"uint256"},{"indexed":false,"internalType":"uint256","name":"protocolEthAmount","type":"uint256"},{"indexed":false,"internalType":"uint256","name":"subjectEthAmount","type":"uint256"},{"indexed":false,"internalType":"uint256","name":"hodlerEthAmount","type":"uint256"},{"indexed":false,"internalType":"uint256","name":"supply","type":"uint256"}],"name":"Trade","type":"event"},{"inputs":[],"name":"DEFAULT_ADMIN_ROLE","outputs":[{"internalType":"bytes32","name":"","type":"bytes32"}],"stateMutability":"view","type":"function"},{"inputs":[{"internalType":"address","name":"_newAdmin","type":"address"}],"name":"addAdmin","outputs":[],"stateMutability":"nonpayable","type":"function"},{"inputs":[{"internalType":"address","name":"builder","type":"address"},{"internalType":"address","name":"holder","type":"address"}],"name":"builderCardsBalance","outputs":[{"internalType":"uint256","name":"balance","type":"uint256"}],"stateMutability":"view","type":"function"},{"inputs":[{"internalType":"address","name":"builder","type":"address"}],"name":"builderCardsSupply","outputs":[{"internalType":"uint256","name":"supply","type":"uint256"}],"stateMutability":"view","type":"function"},{"inputs":[{"internalType":"address","name":"sharesSubject","type":"address"}],"name":"buyShares","outputs":[],"stateMutability":"payable","type":"function"},{"inputs":[],"name":"disableTrading","outputs":[],"stateMutability":"nonpayable","type":"function"},{"inputs":[],"name":"enableTrading","outputs":[],"stateMutability":"nonpayable","type":"function"},{"inputs":[{"internalType":"address","name":"sharesSubject","type":"address"}],"name":"getBuyPrice","outputs":[{"internalType":"uint256","name":"","type":"uint256"}],"stateMutability":"view","type":"function"},{"inputs":[{"internalType":"address","name":"sharesSubject","type":"address"}],"name":"getBuyPriceAfterFee","outputs":[{"internalType":"uint256","name":"","type":"uint256"}],"stateMutability":"view","type":"function"},{"inputs":[{"internalType":"uint256","name":"supply","type":"uint256"},{"internalType":"uint256","name":"amount","type":"uint256"}],"name":"getPrice","outputs":[{"internalType":"uint256","name":"","type":"uint256"}],"stateMutability":"pure","type":"function"},{"inputs":[{"internalType":"bytes32","name":"role","type":"bytes32"}],"name":"getRoleAdmin","outputs":[{"internalType":"bytes32","name":"","type":"bytes32"}],"stateMutability":"view","type":"function"},{"inputs":[{"internalType":"address","name":"sharesSubject","type":"address"},{"internalType":"uint256","name":"amount","type":"uint256"}],"name":"getSellPrice","outputs":[{"internalType":"uint256","name":"","type":"uint256"}],"stateMutability":"view","type":"function"},{"inputs":[{"internalType":"address","name":"sharesSubject","type":"address"},{"internalType":"uint256","name":"amount","type":"uint256"}],"name":"getSellPriceAfterFee","outputs":[{"internalType":"uint256","name":"","type":"uint256"}],"stateMutability":"view","type":"function"},{"inputs":[{"internalType":"bytes32","name":"role","type":"bytes32"},{"internalType":"address","name":"account","type":"address"}],"name":"grantRole","outputs":[],"stateMutability":"nonpayable","type":"function"},{"inputs":[{"internalType":"bytes32","name":"role","type":"bytes32"},{"internalType":"address","name":"account","type":"address"}],"name":"hasRole","outputs":[{"internalType":"bool","name":"","type":"bool"}],"stateMutability":"view","type":"function"},{"inputs":[],"name":"hodlerFeePercent","outputs":[{"internalType":"uint256","name":"","type":"uint256"}],"stateMutability":"view","type":"function"},{"inputs":[],"name":"protocolFeeDestination","outputs":[{"internalType":"address","name":"","type":"address"}],"stateMutability":"view","type":"function"},{"inputs":[],"name":"protocolFeePercent","outputs":[{"internalType":"uint256","name":"","type":"uint256"}],"stateMutability":"view","type":"function"},{"inputs":[{"internalType":"address","name":"_newAdmin","type":"address"}],"name":"removeAdmin","outputs":[],"stateMutability":"nonpayable","type":"function"},{"inputs":[{"internalType":"bytes32","name":"role","type":"bytes32"},{"internalType":"address","name":"account","type":"address"}],"name":"renounceRole","outputs":[],"stateMutability":"nonpayable","type":"function"},{"inputs":[{"internalType":"bytes32","name":"role","type":"bytes32"},{"internalType":"address","name":"account","type":"address"}],"name":"revokeRole","outputs":[],"stateMutability":"nonpayable","type":"function"},{"inputs":[{"internalType":"address","name":"sharesSubject","type":"address"},{"internalType":"uint256","name":"amount","type":"uint256"}],"name":"sellShares","outputs":[],"stateMutability":"payable","type":"function"},{"inputs":[{"internalType":"address","name":"_feeDestination","type":"address"}],"name":"setFeeDestination","outputs":[],"stateMutability":"nonpayable","type":"function"},{"inputs":[{"internalType":"uint256","name":"_feePercent","type":"uint256"}],"name":"setHodlerFeePercent","outputs":[],"stateMutability":"nonpayable","type":"function"},{"inputs":[{"internalType":"uint256","name":"_feePercent","type":"uint256"}],"name":"setProtocolFeePercent","outputs":[],"stateMutability":"nonpayable","type":"function"},{"inputs":[{"internalType":"uint256","name":"_feePercent","type":"uint256"}],"name":"setSubjectFeePercent","outputs":[],"stateMutability":"nonpayable","type":"function"},{"inputs":[],"name":"subjectFeePercent","outputs":[{"internalType":"uint256","name":"","type":"uint256"}],"stateMutability":"view","type":"function"},{"inputs":[{"internalType":"bytes4","name":"interfaceId","type":"bytes4"}],"name":"supportsInterface","outputs":[{"internalType":"bool","name":"","type":"bool"}],"stateMutability":"view","type":"function"},{"inputs":[],"name":"tradingEnabled","outputs":[{"internalType":"bool","name":"","type":"bool"}],"stateMutability":"view","type":"function"}],"evm":{"bytecode":{"linkReferences":{},"object":"60806040523480156200001157600080fd5b506040516200199b3803806200199b8339810160408190526200003491620000e9565b6200004160008262000048565b506200011b565b6000828152602081815260408083206001600160a01b038516845290915290205460ff16620000e5576000828152602081815260408083206001600160a01b03851684529091529020805460ff19166001179055620000a43390565b6001600160a01b0316816001600160a01b0316837f2f8788117e7eff1d82e926ec794901d17c78024a50270940304540a733656f0d60405160405180910390a45b5050565b600060208284031215620000fc57600080fd5b81516001600160a01b03811681146200011457600080fd5b9392505050565b611870806200012b6000396000f3fe6080604052600436106101c25760003560e01c806370480275116100f7578063a22a5e6611610095578063d547741f11610064578063d547741f14610528578063d6e6eb9f14610548578063e5aef9f81461055e578063fbe532341461057e57600080fd5b8063a22a5e66146104a8578063a4983421146104d5578063b51d0534146104f5578063cedc72771461050857600080fd5b80638e8da06f116100d15780638e8da06f146103f757806391d148541461042f5780639ae7178114610473578063a217fddf1461049357600080fd5b806370480275146103ac5780638546e75f146103cc5780638a8c523c146103e257600080fd5b80633365dd94116101645780634c85b4251161013e5780634c85b425146103215780634ce7957c146103345780635a8a764e1461036c5780635cf4ee911461038c57600080fd5b80633365dd94146102c757806336568abe146102e75780634ada218b1461030757600080fd5b80632267a89c116101a05780632267a89c14610233578063248a9ca31461026157806324dc441d146102915780632f2ff15d146102a757600080fd5b806301ffc9a7146101c757806317700f01146101fc5780631785f53c14610213575b600080fd5b3480156101d357600080fd5b506101e76101e236600461155d565b61059e565b60405190151581526020015b60405180910390f35b34801561020857600080fd5b50610211610637565b005b34801561021f57600080fd5b5061021161022e3660046115bb565b61064f565b34801561023f57600080fd5b5061025361024e3660046115d6565b610669565b6040519081526020016101f3565b34801561026d57600080fd5b5061025361027c366004611600565b60009081526020819052604090206001015490565b34801561029d57600080fd5b5061025360035481565b3480156102b357600080fd5b506102116102c2366004611619565b610712565b3480156102d357600080fd5b506102116102e2366004611600565b61073c565b3480156102f357600080fd5b50610211610302366004611619565b61074d565b34801561031357600080fd5b506005546101e79060ff1681565b61021161032f3660046115bb565b6107da565b34801561034057600080fd5b50600154610354906001600160a01b031681565b6040516001600160a01b0390911681526020016101f3565b34801561037857600080fd5b50610211610387366004611600565b610b30565b34801561039857600080fd5b506102536103a7366004611645565b610b41565b3480156103b857600080fd5b506102116103c73660046115bb565b610c62565b3480156103d857600080fd5b5061025360045481565b3480156103ee57600080fd5b50610211610c78565b34801561040357600080fd5b50610253610412366004611667565b600660209081526000928352604080842090915290825290205481565b34801561043b57600080fd5b506101e761044a366004611619565b6000918252602082815260408084206001600160a01b0393909316845291905290205460ff1690565b34801561047f57600080fd5b5061025361048e3660046115d6565b610c93565b34801561049f57600080fd5b50610253600081565b3480156104b457600080fd5b506102536104c33660046115bb565b60076020526000908152604090205481565b3480156104e157600080fd5b506102116104f0366004611600565b610cc8565b6102116105033660046115d6565b610cd9565b34801561051457600080fd5b506102536105233660046115bb565b6110a1565b34801561053457600080fd5b50610211610543366004611619565b6110c5565b34801561055457600080fd5b5061025360025481565b34801561056a57600080fd5b506102536105793660046115bb565b6110ea565b34801561058a57600080fd5b506102116105993660046115bb565b611187565b60007fffffffff0000000000000000000000000000000000000000000000000000000082167f7965db0b00000000000000000000000000000000000000000000000000000000148061063157507f01ffc9a7000000000000000000000000000000000000000000000000000000007fffffffff000000000000000000000000000000000000000000000000000000008316145b92915050565b6000610642816111cd565b506005805460ff19169055565b600061065a816111cd565b6106656000836111da565b5050565b6000806106768484610c93565b90506000670de0b6b3a76400006002548361069191906116a7565b61069b91906116be565b90506000670de0b6b3a7640000600354846106b691906116a7565b6106c091906116be565b90506000670de0b6b3a7640000600454856106db91906116a7565b6106e591906116be565b905080826106f385876116e0565b6106fd91906116e0565b61070791906116e0565b979650505050505050565b60008281526020819052604090206001015461072d816111cd565b6107378383611259565b505050565b6000610747816111cd565b50600455565b6001600160a01b03811633146107d05760405162461bcd60e51b815260206004820152602f60248201527f416363657373436f6e74726f6c3a2063616e206f6e6c792072656e6f756e636560448201527f20726f6c657320666f722073656c66000000000000000000000000000000000060648201526084015b60405180910390fd5b61066582826111da565b60055460ff1615156001146108315760405162461bcd60e51b815260206004820152601660248201527f54726164696e67206973206e6f7420656e61626c65640000000000000000000060448201526064016107c7565b6001600160a01b0381166000908152600760205260409020548015801561086157506001600160a01b0382163314155b15610898576040517f80843b1700000000000000000000000000000000000000000000000000000000815260040160405180910390fd5b60006108a5826001610b41565b90506000670de0b6b3a7640000600254836108c091906116a7565b6108ca91906116be565b90506000670de0b6b3a7640000600354846108e591906116a7565b6108ef91906116be565b90506000670de0b6b3a76400006004548561090a91906116a7565b61091491906116be565b9050808261092285876116f3565b61092c91906116f3565b61093691906116f3565b34101561096f576040517fcd1c886700000000000000000000000000000000000000000000000000000000815260040160405180910390fd5b6001600160a01b0386166000908152600660209081526040808320338452909152812080549161099e83611706565b90915550506001600160a01b03861660009081526007602052604081208054916109c783611706565b909155507f952ff8d90add9fdeaeb478102d54441cf0cc0cbe53b1d99e51f747cdc8379e549050338760018088888888610a018e866116f3565b604080516001600160a01b039a8b168152989099166020890152951515878901526060870194909452608086019290925260a085015260c084015260e08301526101008201529051908190036101200190a16001546040516000916001600160a01b03169085908381818185875af1925050503d8060008114610aa0576040519150601f19603f3d011682016040523d82523d6000602084013e610aa5565b606091505b505090506000876001600160a01b03168460405160006040518083038185875af1925050503d8060008114610af6576040519150601f19603f3d011682016040523d82523d6000602084013e610afb565b606091505b50509050818015610b095750805b610b2657604051634a66f90360e01b815260040160405180910390fd5b5050505050505050565b6000610b3b816111cd565b50600355565b6000808315610b9c576006610b576001866116e0565b610b629060026116a7565b610b6d9060016116f3565b85610b796001826116e0565b610b8391906116a7565b610b8d91906116a7565b610b9791906116be565b610b9f565b60005b9050600084158015610bb15750836001145b610c265760066001610bc386886116f3565b610bcd91906116e0565b610bd89060026116a7565b610be39060016116f3565b610bed86886116f3565b6001610bf9888a6116f3565b610c0391906116e0565b610c0d91906116a7565b610c1791906116a7565b610c2191906116be565b610c29565b60005b90506000610c3783836116e0565b9050613e80610c4e82670de0b6b3a76400006116a7565b610c5891906116be565b9695505050505050565b6000610c6d816111cd565b610665600083611259565b6000610c83816111cd565b506005805460ff19166001179055565b6001600160a01b038216600090815260076020526040812054610cc190610cbb9084906116e0565b83610b41565b9392505050565b6000610cd3816111cd565b50600255565b60055460ff161515600114610d305760405162461bcd60e51b815260206004820152601660248201527f54726164696e67206973206e6f7420656e61626c65640000000000000000000060448201526064016107c7565b6001600160a01b038216600090815260076020526040902054818111610d82576040517fb4abda3900000000000000000000000000000000000000000000000000000000815260040160405180910390fd5b6001600160a01b0383166000908152600660209081526040808320338452909152902054821115610ddf576040517f3999656700000000000000000000000000000000000000000000000000000000815260040160405180910390fd5b6000610df4610dee84846116e0565b84610b41565b90506000670de0b6b3a764000060025483610e0f91906116a7565b610e1991906116be565b90506000670de0b6b3a764000060035484610e3491906116a7565b610e3e91906116be565b90506000670de0b6b3a764000060045485610e5991906116a7565b610e6391906116be565b6001600160a01b0388166000908152600660209081526040808320338452909152812080549293508892909190610e9b9084906116e0565b90915550610eab905086866116e0565b6001600160a01b0388166000908152600760205260408120919091557f952ff8d90add9fdeaeb478102d54441cf0cc0cbe53b1d99e51f747cdc8379e5490339089908988888888610efc858f6116e0565b604080516001600160a01b039a8b168152989099166020890152951515878901526060870194909452608086019290925260a085015260c084015260e08301526101008201529051908190036101200190a16000338284610f5d87896116e0565b610f6791906116e0565b610f7191906116e0565b604051600081818185875af1925050503d8060008114610fad576040519150601f19603f3d011682016040523d82523d6000602084013e610fb2565b606091505b50506001546040519192506000916001600160a01b039091169086908381818185875af1925050503d8060008114611006576040519150601f19603f3d011682016040523d82523d6000602084013e61100b565b606091505b505090506000896001600160a01b03168560405160006040518083038185875af1925050503d806000811461105c576040519150601f19603f3d011682016040523d82523d6000602084013e611061565b606091505b5050905082801561106f5750815b80156110785750805b61109557604051634a66f90360e01b815260040160405180910390fd5b50505050505050505050565b6001600160a01b038116600090815260076020526040812054610631906001610b41565b6000828152602081905260409020600101546110e0816111cd565b61073783836111da565b6000806110f6836110a1565b90506000670de0b6b3a76400006002548361111191906116a7565b61111b91906116be565b90506000670de0b6b3a76400006003548461113691906116a7565b61114091906116be565b90506000670de0b6b3a76400006004548561115b91906116a7565b61116591906116be565b9050808261117385876116f3565b61117d91906116f3565b610c5891906116f3565b6000611192816111cd565b50600180547fffffffffffffffffffffffff0000000000000000000000000000000000000000166001600160a01b0392909216919091179055565b6111d781336112f7565b50565b6000828152602081815260408083206001600160a01b038516845290915290205460ff1615610665576000828152602081815260408083206001600160a01b0385168085529252808320805460ff1916905551339285917ff6391f5c32d9c69d2a47ea670b442974b53935d1edc7fd64eb21e047a839171b9190a45050565b6000828152602081815260408083206001600160a01b038516845290915290205460ff16610665576000828152602081815260408083206001600160a01b03851684529091529020805460ff191660011790556112b33390565b6001600160a01b0316816001600160a01b0316837f2f8788117e7eff1d82e926ec794901d17c78024a50270940304540a733656f0d60405160405180910390a45050565b6000828152602081815260408083206001600160a01b038516845290915290205460ff16610665576113288161136a565b61133383602061137c565b604051602001611344929190611743565b60408051601f198184030181529082905262461bcd60e51b82526107c7916004016117c4565b60606106316001600160a01b03831660145b6060600061138b8360026116a7565b6113969060026116f3565b67ffffffffffffffff8111156113ae576113ae6117f7565b6040519080825280601f01601f1916602001820160405280156113d8576020820181803683370190505b5090507f30000000000000000000000000000000000000000000000000000000000000008160008151811061140f5761140f61180d565b60200101906001600160f81b031916908160001a9053507f78000000000000000000000000000000000000000000000000000000000000008160018151811061145a5761145a61180d565b60200101906001600160f81b031916908160001a905350600061147e8460026116a7565b6114899060016116f3565b90505b600181111561150e577f303132333435363738396162636465660000000000000000000000000000000085600f16601081106114ca576114ca61180d565b1a60f81b8282815181106114e0576114e061180d565b60200101906001600160f81b031916908160001a90535060049490941c9361150781611823565b905061148c565b508315610cc15760405162461bcd60e51b815260206004820181905260248201527f537472696e67733a20686578206c656e67746820696e73756666696369656e7460448201526064016107c7565b60006020828403121561156f57600080fd5b81357fffffffff0000000000000000000000000000000000000000000000000000000081168114610cc157600080fd5b80356001600160a01b03811681146115b657600080fd5b919050565b6000602082840312156115cd57600080fd5b610cc18261159f565b600080604083850312156115e957600080fd5b6115f28361159f565b946020939093013593505050565b60006020828403121561161257600080fd5b5035919050565b6000806040838503121561162c57600080fd5b8235915061163c6020840161159f565b90509250929050565b6000806040838503121561165857600080fd5b50508035926020909101359150565b6000806040838503121561167a57600080fd5b6116838361159f565b915061163c6020840161159f565b634e487b7160e01b600052601160045260246000fd5b808202811582820484141761063157610631611691565b6000826116db57634e487b7160e01b600052601260045260246000fd5b500490565b8181038181111561063157610631611691565b8082018082111561063157610631611691565b60006001820161171857611718611691565b5060010190565b60005b8381101561173a578181015183820152602001611722565b50506000910152565b7f416363657373436f6e74726f6c3a206163636f756e742000000000000000000081526000835161177b81601785016020880161171f565b7f206973206d697373696e6720726f6c652000000000000000000000000000000060179184019182015283516117b881602884016020880161171f565b01602801949350505050565b60208152600082518060208401526117e381604085016020870161171f565b601f01601f19169190910160400192915050565b634e487b7160e01b600052604160045260246000fd5b634e487b7160e01b600052603260045260246000fd5b60008161183257611832611691565b50600019019056fea2646970667358221220e41bb691e8defeeb2ad23da82c0bc0ac4a347e3b86d75cd197a930b6a2901e5864736f6c63430008130033","opcodes":"PUSH1 0x80 PUSH1 0x40 MSTORE CALLVALUE DUP1 ISZERO PUSH3 0x11 JUMPI PUSH1 0x0 DUP1 REVERT JUMPDEST POP PUSH1 0x40 MLOAD PUSH3 0x199B CODESIZE SUB DUP1 PUSH3 0x199B DUP4 CODECOPY DUP2 ADD PUSH1 0x40 DUP2 SWAP1 MSTORE PUSH3 0x34 SWAP2 PUSH3 0xE9 JUMP JUMPDEST PUSH3 0x41 PUSH1 0x0 DUP3 PUSH3 0x48 JUMP JUMPDEST POP PUSH3 0x11B JUMP JUMPDEST PUSH1 0x0 DUP3 DUP2 MSTORE PUSH1 0x20 DUP2 DUP2 MSTORE PUSH1 0x40 DUP1 DUP4 KECCAK256 PUSH1 0x1 PUSH1 0x1 PUSH1 0xA0 SHL SUB DUP6 AND DUP5 MSTORE SWAP1 SWAP2 MSTORE SWAP1 KECCAK256 SLOAD PUSH1 0xFF AND PUSH3 0xE5 JUMPI PUSH1 0x0 DUP3 DUP2 MSTORE PUSH1 0x20 DUP2 DUP2 MSTORE PUSH1 0x40 DUP1 DUP4 KECCAK256 PUSH1 0x1 PUSH1 0x1 PUSH1 0xA0 SHL SUB DUP6 AND DUP5 MSTORE SWAP1 SWAP2 MSTORE SWAP1 KECCAK256 DUP1 SLOAD PUSH1 0xFF NOT AND PUSH1 0x1 OR SWAP1 SSTORE PUSH3 0xA4 CALLER SWAP1 JUMP JUMPDEST PUSH1 0x1 PUSH1 0x1 PUSH1 0xA0 SHL SUB AND DUP2 PUSH1 0x1 PUSH1 0x1 PUSH1 0xA0 SHL SUB AND DUP4 PUSH32 0x2F8788117E7EFF1D82E926EC794901D17C78024A50270940304540A733656F0D PUSH1 0x40 MLOAD PUSH1 0x40 MLOAD DUP1 SWAP2 SUB SWAP1 LOG4 JUMPDEST POP POP JUMP JUMPDEST PUSH1 0x0 PUSH1 0x20 DUP3 DUP5 SUB SLT ISZERO PUSH3 0xFC JUMPI PUSH1 0x0 DUP1 REVERT JUMPDEST DUP2 MLOAD PUSH1 0x1 PUSH1 0x1 PUSH1 0xA0 SHL SUB DUP2 AND DUP2 EQ PUSH3 0x114 JUMPI PUSH1 0x0 DUP1 REVERT JUMPDEST SWAP4 SWAP3 POP POP POP JUMP JUMPDEST PUSH2 0x1870 DUP1 PUSH3 0x12B PUSH1 0x0 CODECOPY PUSH1 0x0 RETURN INVALID PUSH1 0x80 PUSH1 0x40 MSTORE PUSH1 0x4 CALLDATASIZE LT PUSH2 0x1C2 JUMPI PUSH1 0x0 CALLDATALOAD PUSH1 0xE0 SHR DUP1 PUSH4 0x70480275 GT PUSH2 0xF7 JUMPI DUP1 PUSH4 0xA22A5E66 GT PUSH2 0x95 JUMPI DUP1 PUSH4 0xD547741F GT PUSH2 0x64 JUMPI DUP1 PUSH4 0xD547741F EQ PUSH2 0x528 JUMPI DUP1 PUSH4 0xD6E6EB9F EQ PUSH2 0x548 JUMPI DUP1 PUSH4 0xE5AEF9F8 EQ PUSH2 0x55E JUMPI DUP1 PUSH4 0xFBE53234 EQ PUSH2 0x57E JUMPI PUSH1 0x0 DUP1 REVERT JUMPDEST DUP1 PUSH4 0xA22A5E66 EQ PUSH2 0x4A8 JUMPI DUP1 PUSH4 0xA4983421 EQ PUSH2 0x4D5 JUMPI DUP1 PUSH4 0xB51D0534 EQ PUSH2 0x4F5 JUMPI DUP1 PUSH4 0xCEDC7277 EQ PUSH2 0x508 JUMPI PUSH1 0x0 DUP1 REVERT JUMPDEST DUP1 PUSH4 0x8E8DA06F GT PUSH2 0xD1 JUMPI DUP1 PUSH4 0x8E8DA06F EQ PUSH2 0x3F7 JUMPI DUP1 PUSH4 0x91D14854 EQ PUSH2 0x42F JUMPI DUP1 PUSH4 0x9AE71781 EQ PUSH2 0x473 JUMPI DUP1 PUSH4 0xA217FDDF EQ PUSH2 0x493 JUMPI PUSH1 0x0 DUP1 REVERT JUMPDEST DUP1 PUSH4 0x70480275 EQ PUSH2 0x3AC JUMPI DUP1 PUSH4 0x8546E75F EQ PUSH2 0x3CC JUMPI DUP1 PUSH4 0x8A8C523C EQ PUSH2 0x3E2 JUMPI PUSH1 0x0 DUP1 REVERT JUMPDEST DUP1 PUSH4 0x3365DD94 GT PUSH2 0x164 JUMPI DUP1 PUSH4 0x4C85B425 GT PUSH2 0x13E JUMPI DUP1 PUSH4 0x4C85B425 EQ PUSH2 0x321 JUMPI DUP1 PUSH4 0x4CE7957C EQ PUSH2 0x334 JUMPI DUP1 PUSH4 0x5A8A764E EQ PUSH2 0x36C JUMPI DUP1 PUSH4 0x5CF4EE91 EQ PUSH2 0x38C JUMPI PUSH1 0x0 DUP1 REVERT JUMPDEST DUP1 PUSH4 0x3365DD94 EQ PUSH2 0x2C7 JUMPI DUP1 PUSH4 0x36568ABE EQ PUSH2 0x2E7 JUMPI DUP1 PUSH4 0x4ADA218B EQ PUSH2 0x307 JUMPI PUSH1 0x0 DUP1 REVERT JUMPDEST DUP1 PUSH4 0x2267A89C GT PUSH2 0x1A0 JUMPI DUP1 PUSH4 0x2267A89C EQ PUSH2 0x233 JUMPI DUP1 PUSH4 0x248A9CA3 EQ PUSH2 0x261 JUMPI DUP1 PUSH4 0x24DC441D EQ PUSH2 0x291 JUMPI DUP1 PUSH4 0x2F2FF15D EQ PUSH2 0x2A7 JUMPI PUSH1 0x0 DUP1 REVERT JUMPDEST DUP1 PUSH4 0x1FFC9A7 EQ PUSH2 0x1C7 JUMPI DUP1 PUSH4 0x17700F01 EQ PUSH2 0x1FC JUMPI DUP1 PUSH4 0x1785F53C EQ PUSH2 0x213 JUMPI JUMPDEST PUSH1 0x0 DUP1 REVERT JUMPDEST CALLVALUE DUP1 ISZERO PUSH2 0x1D3 JUMPI PUSH1 0x0 DUP1 REVERT JUMPDEST POP PUSH2 0x1E7 PUSH2 0x1E2 CALLDATASIZE PUSH1 0x4 PUSH2 0x155D JUMP JUMPDEST PUSH2 0x59E JUMP JUMPDEST PUSH1 0x40 MLOAD SWAP1 ISZERO ISZERO DUP2 MSTORE PUSH1 0x20 ADD JUMPDEST PUSH1 0x40 MLOAD DUP1 SWAP2 SUB SWAP1 RETURN JUMPDEST CALLVALUE DUP1 ISZERO PUSH2 0x208 JUMPI PUSH1 0x0 DUP1 REVERT JUMPDEST POP PUSH2 0x211 PUSH2 0x637 JUMP JUMPDEST STOP JUMPDEST CALLVALUE DUP1 ISZERO PUSH2 0x21F JUMPI PUSH1 0x0 DUP1 REVERT JUMPDEST POP PUSH2 0x211 PUSH2 0x22E CALLDATASIZE PUSH1 0x4 PUSH2 0x15BB JUMP JUMPDEST PUSH2 0x64F JUMP JUMPDEST CALLVALUE DUP1 ISZERO PUSH2 0x23F JUMPI PUSH1 0x0 DUP1 REVERT JUMPDEST POP PUSH2 0x253 PUSH2 0x24E CALLDATASIZE PUSH1 0x4 PUSH2 0x15D6 JUMP JUMPDEST PUSH2 0x669 JUMP JUMPDEST PUSH1 0x40 MLOAD SWAP1 DUP2 MSTORE PUSH1 0x20 ADD PUSH2 0x1F3 JUMP JUMPDEST CALLVALUE DUP1 ISZERO PUSH2 0x26D JUMPI PUSH1 0x0 DUP1 REVERT JUMPDEST POP PUSH2 0x253 PUSH2 0x27C CALLDATASIZE PUSH1 0x4 PUSH2 0x1600 JUMP JUMPDEST PUSH1 0x0 SWAP1 DUP2 MSTORE PUSH1 0x20 DUP2 SWAP1 MSTORE PUSH1 0x40 SWAP1 KECCAK256 PUSH1 0x1 ADD SLOAD SWAP1 JUMP JUMPDEST CALLVALUE DUP1 ISZERO PUSH2 0x29D JUMPI PUSH1 0x0 DUP1 REVERT JUMPDEST POP PUSH2 0x253 PUSH1 0x3 SLOAD DUP2 JUMP JUMPDEST CALLVALUE DUP1 ISZERO PUSH2 0x2B3 JUMPI PUSH1 0x0 DUP1 REVERT JUMPDEST POP PUSH2 0x211 PUSH2 0x2C2 CALLDATASIZE PUSH1 0x4 PUSH2 0x1619 JUMP JUMPDEST PUSH2 0x712 JUMP JUMPDEST CALLVALUE DUP1 ISZERO PUSH2 0x2D3 JUMPI PUSH1 0x0 DUP1 REVERT JUMPDEST POP PUSH2 0x211 PUSH2 0x2E2 CALLDATASIZE PUSH1 0x4 PUSH2 0x1600 JUMP JUMPDEST PUSH2 0x73C JUMP JUMPDEST CALLVALUE DUP1 ISZERO PUSH2 0x2F3 JUMPI PUSH1 0x0 DUP1 REVERT JUMPDEST POP PUSH2 0x211 PUSH2 0x302 CALLDATASIZE PUSH1 0x4 PUSH2 0x1619 JUMP JUMPDEST PUSH2 0x74D JUMP JUMPDEST CALLVALUE DUP1 ISZERO PUSH2 0x313 JUMPI PUSH1 0x0 DUP1 REVERT JUMPDEST POP PUSH1 0x5 SLOAD PUSH2 0x1E7 SWAP1 PUSH1 0xFF AND DUP2 JUMP JUMPDEST PUSH2 0x211 PUSH2 0x32F CALLDATASIZE PUSH1 0x4 PUSH2 0x15BB JUMP JUMPDEST PUSH2 0x7DA JUMP JUMPDEST CALLVALUE DUP1 ISZERO PUSH2 0x340 JUMPI PUSH1 0x0 DUP1 REVERT JUMPDEST POP PUSH1 0x1 SLOAD PUSH2 0x354 SWAP1 PUSH1 0x1 PUSH1 0x1 PUSH1 0xA0 SHL SUB AND DUP2 JUMP JUMPDEST PUSH1 0x40 MLOAD PUSH1 0x1 PUSH1 0x1 PUSH1 0xA0 SHL SUB SWAP1 SWAP2 AND DUP2 MSTORE PUSH1 0x20 ADD PUSH2 0x1F3 JUMP JUMPDEST CALLVALUE DUP1 ISZERO PUSH2 0x378 JUMPI PUSH1 0x0 DUP1 REVERT JUMPDEST POP PUSH2 0x211 PUSH2 0x387 CALLDATASIZE PUSH1 0x4 PUSH2 0x1600 JUMP JUMPDEST PUSH2 0xB30 JUMP JUMPDEST CALLVALUE DUP1 ISZERO PUSH2 0x398 JUMPI PUSH1 0x0 DUP1 REVERT JUMPDEST POP PUSH2 0x253 PUSH2 0x3A7 CALLDATASIZE PUSH1 0x4 PUSH2 0x1645 JUMP JUMPDEST PUSH2 0xB41 JUMP JUMPDEST CALLVALUE DUP1 ISZERO PUSH2 0x3B8 JUMPI PUSH1 0x0 DUP1 REVERT JUMPDEST POP PUSH2 0x211 PUSH2 0x3C7 CALLDATASIZE PUSH1 0x4 PUSH2 0x15BB JUMP JUMPDEST PUSH2 0xC62 JUMP JUMPDEST CALLVALUE DUP1 ISZERO PUSH2 0x3D8 JUMPI PUSH1 0x0 DUP1 REVERT JUMPDEST POP PUSH2 0x253 PUSH1 0x4 SLOAD DUP2 JUMP JUMPDEST CALLVALUE DUP1 ISZERO PUSH2 0x3EE JUMPI PUSH1 0x0 DUP1 REVERT JUMPDEST POP PUSH2 0x211 PUSH2 0xC78 JUMP JUMPDEST CALLVALUE DUP1 ISZERO PUSH2 0x403 JUMPI PUSH1 0x0 DUP1 REVERT JUMPDEST POP PUSH2 0x253 PUSH2 0x412 CALLDATASIZE PUSH1 0x4 PUSH2 0x1667 JUMP JUMPDEST PUSH1 0x6 PUSH1 0x20 SWAP1 DUP2 MSTORE PUSH1 0x0 SWAP3 DUP4 MSTORE PUSH1 0x40 DUP1 DUP5 KECCAK256 SWAP1 SWAP2 MSTORE SWAP1 DUP3 MSTORE SWAP1 KECCAK256 SLOAD DUP2 JUMP JUMPDEST CALLVALUE DUP1 ISZERO PUSH2 0x43B JUMPI PUSH1 0x0 DUP1 REVERT JUMPDEST POP PUSH2 0x1E7 PUSH2 0x44A CALLDATASIZE PUSH1 0x4 PUSH2 0x1619 JUMP JUMPDEST PUSH1 0x0 SWAP2 DUP3 MSTORE PUSH1 0x20 DUP3 DUP2 MSTORE PUSH1 0x40 DUP1 DUP5 KECCAK256 PUSH1 0x1 PUSH1 0x1 PUSH1 0xA0 SHL SUB SWAP4 SWAP1 SWAP4 AND DUP5 MSTORE SWAP2 SWAP1 MSTORE SWAP1 KECCAK256 SLOAD PUSH1 0xFF AND SWAP1 JUMP JUMPDEST CALLVALUE DUP1 ISZERO PUSH2 0x47F JUMPI PUSH1 0x0 DUP1 REVERT JUMPDEST POP PUSH2 0x253 PUSH2 0x48E CALLDATASIZE PUSH1 0x4 PUSH2 0x15D6 JUMP JUMPDEST PUSH2 0xC93 JUMP JUMPDEST CALLVALUE DUP1 ISZERO PUSH2 0x49F JUMPI PUSH1 0x0 DUP1 REVERT JUMPDEST POP PUSH2 0x253 PUSH1 0x0 DUP2 JUMP JUMPDEST CALLVALUE DUP1 ISZERO PUSH2 0x4B4 JUMPI PUSH1 0x0 DUP1 REVERT JUMPDEST POP PUSH2 0x253 PUSH2 0x4C3 CALLDATASIZE PUSH1 0x4 PUSH2 0x15BB JUMP JUMPDEST PUSH1 0x7 PUSH1 0x20 MSTORE PUSH1 0x0 SWAP1 DUP2 MSTORE PUSH1 0x40 SWAP1 KECCAK256 SLOAD DUP2 JUMP JUMPDEST CALLVALUE DUP1 ISZERO PUSH2 0x4E1 JUMPI PUSH1 0x0 DUP1 REVERT JUMPDEST POP PUSH2 0x211 PUSH2 0x4F0 CALLDATASIZE PUSH1 0x4 PUSH2 0x1600 JUMP JUMPDEST PUSH2 0xCC8 JUMP JUMPDEST PUSH2 0x211 PUSH2 0x503 CALLDATASIZE PUSH1 0x4 PUSH2 0x15D6 JUMP JUMPDEST PUSH2 0xCD9 JUMP JUMPDEST CALLVALUE DUP1 ISZERO PUSH2 0x514 JUMPI PUSH1 0x0 DUP1 REVERT JUMPDEST POP PUSH2 0x253 PUSH2 0x523 CALLDATASIZE PUSH1 0x4 PUSH2 0x15BB JUMP JUMPDEST PUSH2 0x10A1 JUMP JUMPDEST CALLVALUE DUP1 ISZERO PUSH2 0x534 JUMPI PUSH1 0x0 DUP1 REVERT JUMPDEST POP PUSH2 0x211 PUSH2 0x543 CALLDATASIZE PUSH1 0x4 PUSH2 0x1619 JUMP JUMPDEST PUSH2 0x10C5 JUMP JUMPDEST CALLVALUE DUP1 ISZERO PUSH2 0x554 JUMPI PUSH1 0x0 DUP1 REVERT JUMPDEST POP PUSH2 0x253 PUSH1 0x2 SLOAD DUP2 JUMP JUMPDEST CALLVALUE DUP1 ISZERO PUSH2 0x56A JUMPI PUSH1 0x0 DUP1 REVERT JUMPDEST POP PUSH2 0x253 PUSH2 0x579 CALLDATASIZE PUSH1 0x4 PUSH2 0x15BB JUMP JUMPDEST PUSH2 0x10EA JUMP JUMPDEST CALLVALUE DUP1 ISZERO PUSH2 0x58A JUMPI PUSH1 0x0 DUP1 REVERT JUMPDEST POP PUSH2 0x211 PUSH2 0x599 CALLDATASIZE PUSH1 0x4 PUSH2 0x15BB JUMP JUMPDEST PUSH2 0x1187 JUMP JUMPDEST PUSH1 0x0 PUSH32 0xFFFFFFFF00000000000000000000000000000000000000000000000000000000 DUP3 AND PUSH32 0x7965DB0B00000000000000000000000000000000000000000000000000000000 EQ DUP1 PUSH2 0x631 JUMPI POP PUSH32 0x1FFC9A700000000000000000000000000000000000000000000000000000000 PUSH32 0xFFFFFFFF00000000000000000000000000000000000000000000000000000000 DUP4 AND EQ JUMPDEST SWAP3 SWAP2 POP POP JUMP JUMPDEST PUSH1 0x0 PUSH2 0x642 DUP2 PUSH2 0x11CD JUMP JUMPDEST POP PUSH1 0x5 DUP1 SLOAD PUSH1 0xFF NOT AND SWAP1 SSTORE JUMP JUMPDEST PUSH1 0x0 PUSH2 0x65A DUP2 PUSH2 0x11CD JUMP JUMPDEST PUSH2 0x665 PUSH1 0x0 DUP4 PUSH2 0x11DA JUMP JUMPDEST POP POP JUMP JUMPDEST PUSH1 0x0 DUP1 PUSH2 0x676 DUP5 DUP5 PUSH2 0xC93 JUMP JUMPDEST SWAP1 POP PUSH1 0x0 PUSH8 0xDE0B6B3A7640000 PUSH1 0x2 SLOAD DUP4 PUSH2 0x691 SWAP2 SWAP1 PUSH2 0x16A7 JUMP JUMPDEST PUSH2 0x69B SWAP2 SWAP1 PUSH2 0x16BE JUMP JUMPDEST SWAP1 POP PUSH1 0x0 PUSH8 0xDE0B6B3A7640000 PUSH1 0x3 SLOAD DUP5 PUSH2 0x6B6 SWAP2 SWAP1 PUSH2 0x16A7 JUMP JUMPDEST PUSH2 0x6C0 SWAP2 SWAP1 PUSH2 0x16BE JUMP JUMPDEST SWAP1 POP PUSH1 0x0 PUSH8 0xDE0B6B3A7640000 PUSH1 0x4 SLOAD DUP6 PUSH2 0x6DB SWAP2 SWAP1 PUSH2 0x16A7 JUMP JUMPDEST PUSH2 0x6E5 SWAP2 SWAP1 PUSH2 0x16BE JUMP JUMPDEST SWAP1 POP DUP1 DUP3 PUSH2 0x6F3 DUP6 DUP8 PUSH2 0x16E0 JUMP JUMPDEST PUSH2 0x6FD SWAP2 SWAP1 PUSH2 0x16E0 JUMP JUMPDEST PUSH2 0x707 SWAP2 SWAP1 PUSH2 0x16E0 JUMP JUMPDEST SWAP8 SWAP7 POP POP POP POP POP POP POP JUMP JUMPDEST PUSH1 0x0 DUP3 DUP2 MSTORE PUSH1 0x20 DUP2 SWAP1 MSTORE PUSH1 0x40 SWAP1 KECCAK256 PUSH1 0x1 ADD SLOAD PUSH2 0x72D DUP2 PUSH2 0x11CD JUMP JUMPDEST PUSH2 0x737 DUP4 DUP4 PUSH2 0x1259 JUMP JUMPDEST POP POP POP JUMP JUMPDEST PUSH1 0x0 PUSH2 0x747 DUP2 PUSH2 0x11CD JUMP JUMPDEST POP PUSH1 0x4 SSTORE JUMP JUMPDEST PUSH1 0x1 PUSH1 0x1 PUSH1 0xA0 SHL SUB DUP2 AND CALLER EQ PUSH2 0x7D0 JUMPI PUSH1 0x40 MLOAD PUSH3 0x461BCD PUSH1 0xE5 SHL DUP2 MSTORE PUSH1 0x20 PUSH1 0x4 DUP3 ADD MSTORE PUSH1 0x2F PUSH1 0x24 DUP3 ADD MSTORE PUSH32 0x416363657373436F6E74726F6C3A2063616E206F6E6C792072656E6F756E6365 PUSH1 0x44 DUP3 ADD MSTORE PUSH32 0x20726F6C657320666F722073656C660000000000000000000000000000000000 PUSH1 0x64 DUP3 ADD MSTORE PUSH1 0x84 ADD JUMPDEST PUSH1 0x40 MLOAD DUP1 SWAP2 SUB SWAP1 REVERT JUMPDEST PUSH2 0x665 DUP3 DUP3 PUSH2 0x11DA JUMP JUMPDEST PUSH1 0x5 SLOAD PUSH1 0xFF AND ISZERO ISZERO PUSH1 0x1 EQ PUSH2 0x831 JUMPI PUSH1 0x40 MLOAD PUSH3 0x461BCD PUSH1 0xE5 SHL DUP2 MSTORE PUSH1 0x20 PUSH1 0x4 DUP3 ADD MSTORE PUSH1 0x16 PUSH1 0x24 DUP3 ADD MSTORE PUSH32 0x54726164696E67206973206E6F7420656E61626C656400000000000000000000 PUSH1 0x44 DUP3 ADD MSTORE PUSH1 0x64 ADD PUSH2 0x7C7 JUMP JUMPDEST PUSH1 0x1 PUSH1 0x1 PUSH1 0xA0 SHL SUB DUP2 AND PUSH1 0x0 SWAP1 DUP2 MSTORE PUSH1 0x7 PUSH1 0x20 MSTORE PUSH1 0x40 SWAP1 KECCAK256 SLOAD DUP1 ISZERO DUP1 ISZERO PUSH2 0x861 JUMPI POP PUSH1 0x1 PUSH1 0x1 PUSH1 0xA0 SHL SUB DUP3 AND CALLER EQ ISZERO JUMPDEST ISZERO PUSH2 0x898 JUMPI PUSH1 0x40 MLOAD PUSH32 0x80843B1700000000000000000000000000000000000000000000000000000000 DUP2 MSTORE PUSH1 0x4 ADD PUSH1 0x40 MLOAD DUP1 SWAP2 SUB SWAP1 REVERT JUMPDEST PUSH1 0x0 PUSH2 0x8A5 DUP3 PUSH1 0x1 PUSH2 0xB41 JUMP JUMPDEST SWAP1 POP PUSH1 0x0 PUSH8 0xDE0B6B3A7640000 PUSH1 0x2 SLOAD DUP4 PUSH2 0x8C0 SWAP2 SWAP1 PUSH2 0x16A7 JUMP JUMPDEST PUSH2 0x8CA SWAP2 SWAP1 PUSH2 0x16BE JUMP JUMPDEST SWAP1 POP PUSH1 0x0 PUSH8 0xDE0B6B3A7640000 PUSH1 0x3 SLOAD DUP5 PUSH2 0x8E5 SWAP2 SWAP1 PUSH2 0x16A7 JUMP JUMPDEST PUSH2 0x8EF SWAP2 SWAP1 PUSH2 0x16BE JUMP JUMPDEST SWAP1 POP PUSH1 0x0 PUSH8 0xDE0B6B3A7640000 PUSH1 0x4 SLOAD DUP6 PUSH2 0x90A SWAP2 SWAP1 PUSH2 0x16A7 JUMP JUMPDEST PUSH2 0x914 SWAP2 SWAP1 PUSH2 0x16BE JUMP JUMPDEST SWAP1 POP DUP1 DUP3 PUSH2 0x922 DUP6 DUP8 PUSH2 0x16F3 JUMP JUMPDEST PUSH2 0x92C SWAP2 SWAP1 PUSH2 0x16F3 JUMP JUMPDEST PUSH2 0x936 SWAP2 SWAP1 PUSH2 0x16F3 JUMP JUMPDEST CALLVALUE LT ISZERO PUSH2 0x96F JUMPI PUSH1 0x40 MLOAD PUSH32 0xCD1C886700000000000000000000000000000000000000000000000000000000 DUP2 MSTORE PUSH1 0x4 ADD PUSH1 0x40 MLOAD DUP1 SWAP2 SUB SWAP1 REVERT JUMPDEST PUSH1 0x1 PUSH1 0x1 PUSH1 0xA0 SHL SUB DUP7 AND PUSH1 0x0 SWAP1 DUP2 MSTORE PUSH1 0x6 PUSH1 0x20 SWAP1 DUP2 MSTORE PUSH1 0x40 DUP1 DUP4 KECCAK256 CALLER DUP5 MSTORE SWAP1 SWAP2 MSTORE DUP2 KECCAK256 DUP1 SLOAD SWAP2 PUSH2 0x99E DUP4 PUSH2 0x1706 JUMP JUMPDEST SWAP1 SWAP2 SSTORE POP POP PUSH1 0x1 PUSH1 0x1 PUSH1 0xA0 SHL SUB DUP7 AND PUSH1 0x0 SWAP1 DUP2 MSTORE PUSH1 0x7 PUSH1 0x20 MSTORE PUSH1 0x40 DUP2 KECCAK256 DUP1 SLOAD SWAP2 PUSH2 0x9C7 DUP4 PUSH2 0x1706 JUMP JUMPDEST SWAP1 SWAP2 SSTORE POP PUSH32 0x952FF8D90ADD9FDEAEB478102D54441CF0CC0CBE53B1D99E51F747CDC8379E54 SWAP1 POP CALLER DUP8 PUSH1 0x1 DUP1 DUP9 DUP9 DUP9 DUP9 PUSH2 0xA01 DUP15 DUP7 PUSH2 0x16F3 JUMP JUMPDEST PUSH1 0x40 DUP1 MLOAD PUSH1 0x1 PUSH1 0x1 PUSH1 0xA0 SHL SUB SWAP11 DUP12 AND DUP2 MSTORE SWAP9 SWAP1 SWAP10 AND PUSH1 0x20 DUP10 ADD MSTORE SWAP6 ISZERO ISZERO DUP8 DUP10 ADD MSTORE PUSH1 0x60 DUP8 ADD SWAP5 SWAP1 SWAP5 MSTORE PUSH1 0x80 DUP7 ADD SWAP3 SWAP1 SWAP3 MSTORE PUSH1 0xA0 DUP6 ADD MSTORE PUSH1 0xC0 DUP5 ADD MSTORE PUSH1 0xE0 DUP4 ADD MSTORE PUSH2 0x100 DUP3 ADD MSTORE SWAP1 MLOAD SWAP1 DUP2 SWAP1 SUB PUSH2 0x120 ADD SWAP1 LOG1 PUSH1 0x1 SLOAD PUSH1 0x40 MLOAD PUSH1 0x0 SWAP2 PUSH1 0x1 PUSH1 0x1 PUSH1 0xA0 SHL SUB AND SWAP1 DUP6 SWAP1 DUP4 DUP2 DUP2 DUP2 DUP6 DUP8 GAS CALL SWAP3 POP POP POP RETURNDATASIZE DUP1 PUSH1 0x0 DUP2 EQ PUSH2 0xAA0 JUMPI PUSH1 0x40 MLOAD SWAP2 POP PUSH1 0x1F NOT PUSH1 0x3F RETURNDATASIZE ADD AND DUP3 ADD PUSH1 0x40 MSTORE RETURNDATASIZE DUP3 MSTORE RETURNDATASIZE PUSH1 0x0 PUSH1 0x20 DUP5 ADD RETURNDATACOPY PUSH2 0xAA5 JUMP JUMPDEST PUSH1 0x60 SWAP2 POP JUMPDEST POP POP SWAP1 POP PUSH1 0x0 DUP8 PUSH1 0x1 PUSH1 0x1 PUSH1 0xA0 SHL SUB AND DUP5 PUSH1 0x40 MLOAD PUSH1 0x0 PUSH1 0x40 MLOAD DUP1 DUP4 SUB DUP2 DUP6 DUP8 GAS CALL SWAP3 POP POP POP RETURNDATASIZE DUP1 PUSH1 0x0 DUP2 EQ PUSH2 0xAF6 JUMPI PUSH1 0x40 MLOAD SWAP2 POP PUSH1 0x1F NOT PUSH1 0x3F RETURNDATASIZE ADD AND DUP3 ADD PUSH1 0x40 MSTORE RETURNDATASIZE DUP3 MSTORE RETURNDATASIZE PUSH1 0x0 PUSH1 0x20 DUP5 ADD RETURNDATACOPY PUSH2 0xAFB JUMP JUMPDEST PUSH1 0x60 SWAP2 POP JUMPDEST POP POP SWAP1 POP DUP2 DUP1 ISZERO PUSH2 0xB09 JUMPI POP DUP1 JUMPDEST PUSH2 0xB26 JUMPI PUSH1 0x40 MLOAD PUSH4 0x4A66F903 PUSH1 0xE0 SHL DUP2 MSTORE PUSH1 0x4 ADD PUSH1 0x40 MLOAD DUP1 SWAP2 SUB SWAP1 REVERT JUMPDEST POP POP POP POP POP POP POP POP JUMP JUMPDEST PUSH1 0x0 PUSH2 0xB3B DUP2 PUSH2 0x11CD JUMP JUMPDEST POP PUSH1 0x3 SSTORE JUMP JUMPDEST PUSH1 0x0 DUP1 DUP4 ISZERO PUSH2 0xB9C JUMPI PUSH1 0x6 PUSH2 0xB57 PUSH1 0x1 DUP7 PUSH2 0x16E0 JUMP JUMPDEST PUSH2 0xB62 SWAP1 PUSH1 0x2 PUSH2 0x16A7 JUMP JUMPDEST PUSH2 0xB6D SWAP1 PUSH1 0x1 PUSH2 0x16F3 JUMP JUMPDEST DUP6 PUSH2 0xB79 PUSH1 0x1 DUP3 PUSH2 0x16E0 JUMP JUMPDEST PUSH2 0xB83 SWAP2 SWAP1 PUSH2 0x16A7 JUMP JUMPDEST PUSH2 0xB8D SWAP2 SWAP1 PUSH2 0x16A7 JUMP JUMPDEST PUSH2 0xB97 SWAP2 SWAP1 PUSH2 0x16BE JUMP JUMPDEST PUSH2 0xB9F JUMP JUMPDEST PUSH1 0x0 JUMPDEST SWAP1 POP PUSH1 0x0 DUP5 ISZERO DUP1 ISZERO PUSH2 0xBB1 JUMPI POP DUP4 PUSH1 0x1 EQ JUMPDEST PUSH2 0xC26 JUMPI PUSH1 0x6 PUSH1 0x1 PUSH2 0xBC3 DUP7 DUP9 PUSH2 0x16F3 JUMP JUMPDEST PUSH2 0xBCD SWAP2 SWAP1 PUSH2 0x16E0 JUMP JUMPDEST PUSH2 0xBD8 SWAP1 PUSH1 0x2 PUSH2 0x16A7 JUMP JUMPDEST PUSH2 0xBE3 SWAP1 PUSH1 0x1 PUSH2 0x16F3 JUMP JUMPDEST PUSH2 0xBED DUP7 DUP9 PUSH2 0x16F3 JUMP JUMPDEST PUSH1 0x1 PUSH2 0xBF9 DUP9 DUP11 PUSH2 0x16F3 JUMP JUMPDEST PUSH2 0xC03 SWAP2 SWAP1 PUSH2 0x16E0 JUMP JUMPDEST PUSH2 0xC0D SWAP2 SWAP1 PUSH2 0x16A7 JUMP JUMPDEST PUSH2 0xC17 SWAP2 SWAP1 PUSH2 0x16A7 JUMP JUMPDEST PUSH2 0xC21 SWAP2 SWAP1 PUSH2 0x16BE JUMP JUMPDEST PUSH2 0xC29 JUMP JUMPDEST PUSH1 0x0 JUMPDEST SWAP1 POP PUSH1 0x0 PUSH2 0xC37 DUP4 DUP4 PUSH2 0x16E0 JUMP JUMPDEST SWAP1 POP PUSH2 0x3E80 PUSH2 0xC4E DUP3 PUSH8 0xDE0B6B3A7640000 PUSH2 0x16A7 JUMP JUMPDEST PUSH2 0xC58 SWAP2 SWAP1 PUSH2 0x16BE JUMP JUMPDEST SWAP7 SWAP6 POP POP POP POP POP POP JUMP JUMPDEST PUSH1 0x0 PUSH2 0xC6D DUP2 PUSH2 0x11CD JUMP JUMPDEST PUSH2 0x665 PUSH1 0x0 DUP4 PUSH2 0x1259 JUMP JUMPDEST PUSH1 0x0 PUSH2 0xC83 DUP2 PUSH2 0x11CD JUMP JUMPDEST POP PUSH1 0x5 DUP1 SLOAD PUSH1 0xFF NOT AND PUSH1 0x1 OR SWAP1 SSTORE JUMP JUMPDEST PUSH1 0x1 PUSH1 0x1 PUSH1 0xA0 SHL SUB DUP3 AND PUSH1 0x0 SWAP1 DUP2 MSTORE PUSH1 0x7 PUSH1 0x20 MSTORE PUSH1 0x40 DUP2 KECCAK256 SLOAD PUSH2 0xCC1 SWAP1 PUSH2 0xCBB SWAP1 DUP5 SWAP1 PUSH2 0x16E0 JUMP JUMPDEST DUP4 PUSH2 0xB41 JUMP JUMPDEST SWAP4 SWAP3 POP POP POP JUMP JUMPDEST PUSH1 0x0 PUSH2 0xCD3 DUP2 PUSH2 0x11CD JUMP JUMPDEST POP PUSH1 0x2 SSTORE JUMP JUMPDEST PUSH1 0x5 SLOAD PUSH1 0xFF AND ISZERO ISZERO PUSH1 0x1 EQ PUSH2 0xD30 JUMPI PUSH1 0x40 MLOAD PUSH3 0x461BCD PUSH1 0xE5 SHL DUP2 MSTORE PUSH1 0x20 PUSH1 0x4 DUP3 ADD MSTORE PUSH1 0x16 PUSH1 0x24 DUP3 ADD MSTORE PUSH32 0x54726164696E67206973206E6F7420656E61626C656400000000000000000000 PUSH1 0x44 DUP3 ADD MSTORE PUSH1 0x64 ADD PUSH2 0x7C7 JUMP JUMPDEST PUSH1 0x1 PUSH1 0x1 PUSH1 0xA0 SHL SUB DUP3 AND PUSH1 0x0 SWAP1 DUP2 MSTORE PUSH1 0x7 PUSH1 0x20 MSTORE PUSH1 0x40 SWAP1 KECCAK256 SLOAD DUP2 DUP2 GT PUSH2 0xD82 JUMPI PUSH1 0x40 MLOAD PUSH32 0xB4ABDA3900000000000000000000000000000000000000000000000000000000 DUP2 MSTORE PUSH1 0x4 ADD PUSH1 0x40 MLOAD DUP1 SWAP2 SUB SWAP1 REVERT JUMPDEST PUSH1 0x1 PUSH1 0x1 PUSH1 0xA0 SHL SUB DUP4 AND PUSH1 0x0 SWAP1 DUP2 MSTORE PUSH1 0x6 PUSH1 0x20 SWAP1 DUP2 MSTORE PUSH1 0x40 DUP1 DUP4 KECCAK256 CALLER DUP5 MSTORE SWAP1 SWAP2 MSTORE SWAP1 KECCAK256 SLOAD DUP3 GT ISZERO PUSH2 0xDDF JUMPI PUSH1 0x40 MLOAD PUSH32 0x3999656700000000000000000000000000000000000000000000000000000000 DUP2 MSTORE PUSH1 0x4 ADD PUSH1 0x40 MLOAD DUP1 SWAP2 SUB SWAP1 REVERT JUMPDEST PUSH1 0x0 PUSH2 0xDF4 PUSH2 0xDEE DUP5 DUP5 PUSH2 0x16E0 JUMP JUMPDEST DUP5 PUSH2 0xB41 JUMP JUMPDEST SWAP1 POP PUSH1 0x0 PUSH8 0xDE0B6B3A7640000 PUSH1 0x2 SLOAD DUP4 PUSH2 0xE0F SWAP2 SWAP1 PUSH2 0x16A7 JUMP JUMPDEST PUSH2 0xE19 SWAP2 SWAP1 PUSH2 0x16BE JUMP JUMPDEST SWAP1 POP PUSH1 0x0 PUSH8 0xDE0B6B3A7640000 PUSH1 0x3 SLOAD DUP5 PUSH2 0xE34 SWAP2 SWAP1 PUSH2 0x16A7 JUMP JUMPDEST PUSH2 0xE3E SWAP2 SWAP1 PUSH2 0x16BE JUMP JUMPDEST SWAP1 POP PUSH1 0x0 PUSH8 0xDE0B6B3A7640000 PUSH1 0x4 SLOAD DUP6 PUSH2 0xE59 SWAP2 SWAP1 PUSH2 0x16A7 JUMP JUMPDEST PUSH2 0xE63 SWAP2 SWAP1 PUSH2 0x16BE JUMP JUMPDEST PUSH1 0x1 PUSH1 0x1 PUSH1 0xA0 SHL SUB DUP9 AND PUSH1 0x0 SWAP1 DUP2 MSTORE PUSH1 0x6 PUSH1 0x20 SWAP1 DUP2 MSTORE PUSH1 0x40 DUP1 DUP4 KECCAK256 CALLER DUP5 MSTORE SWAP1 SWAP2 MSTORE DUP2 KECCAK256 DUP1 SLOAD SWAP3 SWAP4 POP DUP9 SWAP3 SWAP1 SWAP2 SWAP1 PUSH2 0xE9B SWAP1 DUP5 SWAP1 PUSH2 0x16E0 JUMP JUMPDEST SWAP1 SWAP2 SSTORE POP PUSH2 0xEAB SWAP1 POP DUP7 DUP7 PUSH2 0x16E0 JUMP JUMPDEST PUSH1 0x1 PUSH1 0x1 PUSH1 0xA0 SHL SUB DUP9 AND PUSH1 0x0 SWAP1 DUP2 MSTORE PUSH1 0x7 PUSH1 0x20 MSTORE PUSH1 0x40 DUP2 KECCAK256 SWAP2 SWAP1 SWAP2 SSTORE PUSH32 0x952FF8D90ADD9FDEAEB478102D54441CF0CC0CBE53B1D99E51F747CDC8379E54 SWAP1 CALLER SWAP1 DUP10 SWAP1 DUP10 DUP9 DUP9 DUP9 DUP9 PUSH2 0xEFC DUP6 DUP16 PUSH2 0x16E0 JUMP JUMPDEST PUSH1 0x40 DUP1 MLOAD PUSH1 0x1 PUSH1 0x1 PUSH1 0xA0 SHL SUB SWAP11 DUP12 AND DUP2 MSTORE SWAP9 SWAP1 SWAP10 AND PUSH1 0x20 DUP10 ADD MSTORE SWAP6 ISZERO ISZERO DUP8 DUP10 ADD MSTORE PUSH1 0x60 DUP8 ADD SWAP5 SWAP1 SWAP5 MSTORE PUSH1 0x80 DUP7 ADD SWAP3 SWAP1 SWAP3 MSTORE PUSH1 0xA0 DUP6 ADD MSTORE PUSH1 0xC0 DUP5 ADD MSTORE PUSH1 0xE0 DUP4 ADD MSTORE PUSH2 0x100 DUP3 ADD MSTORE SWAP1 MLOAD SWAP1 DUP2 SWAP1 SUB PUSH2 0x120 ADD SWAP1 LOG1 PUSH1 0x0 CALLER DUP3 DUP5 PUSH2 0xF5D DUP8 DUP10 PUSH2 0x16E0 JUMP JUMPDEST PUSH2 0xF67 SWAP2 SWAP1 PUSH2 0x16E0 JUMP JUMPDEST PUSH2 0xF71 SWAP2 SWAP1 PUSH2 0x16E0 JUMP JUMPDEST PUSH1 0x40 MLOAD PUSH1 0x0 DUP2 DUP2 DUP2 DUP6 DUP8 GAS CALL SWAP3 POP POP POP RETURNDATASIZE DUP1 PUSH1 0x0 DUP2 EQ PUSH2 0xFAD JUMPI PUSH1 0x40 MLOAD SWAP2 POP PUSH1 0x1F NOT PUSH1 0x3F RETURNDATASIZE ADD AND DUP3 ADD PUSH1 0x40 MSTORE RETURNDATASIZE DUP3 MSTORE RETURNDATASIZE PUSH1 0x0 PUSH1 0x20 DUP5 ADD RETURNDATACOPY PUSH2 0xFB2 JUMP JUMPDEST PUSH1 0x60 SWAP2 POP JUMPDEST POP POP PUSH1 0x1 SLOAD PUSH1 0x40 MLOAD SWAP2 SWAP3 POP PUSH1 0x0 SWAP2 PUSH1 0x1 PUSH1 0x1 PUSH1 0xA0 SHL SUB SWAP1 SWAP2 AND SWAP1 DUP7 SWAP1 DUP4 DUP2 DUP2 DUP2 DUP6 DUP8 GAS CALL SWAP3 POP POP POP RETURNDATASIZE DUP1 PUSH1 0x0 DUP2 EQ PUSH2 0x1006 JUMPI PUSH1 0x40 MLOAD SWAP2 POP PUSH1 0x1F NOT PUSH1 0x3F RETURNDATASIZE ADD AND DUP3 ADD PUSH1 0x40 MSTORE RETURNDATASIZE DUP3 MSTORE RETURNDATASIZE PUSH1 0x0 PUSH1 0x20 DUP5 ADD RETURNDATACOPY PUSH2 0x100B JUMP JUMPDEST PUSH1 0x60 SWAP2 POP JUMPDEST POP POP SWAP1 POP PUSH1 0x0 DUP10 PUSH1 0x1 PUSH1 0x1 PUSH1 0xA0 SHL SUB AND DUP6 PUSH1 0x40 MLOAD PUSH1 0x0 PUSH1 0x40 MLOAD DUP1 DUP4 SUB DUP2 DUP6 DUP8 GAS CALL SWAP3 POP POP POP RETURNDATASIZE DUP1 PUSH1 0x0 DUP2 EQ PUSH2 0x105C JUMPI PUSH1 0x40 MLOAD SWAP2 POP PUSH1 0x1F NOT PUSH1 0x3F RETURNDATASIZE ADD AND DUP3 ADD PUSH1 0x40 MSTORE RETURNDATASIZE DUP3 MSTORE RETURNDATASIZE PUSH1 0x0 PUSH1 0x20 DUP5 ADD RETURNDATACOPY PUSH2 0x1061 JUMP JUMPDEST PUSH1 0x60 SWAP2 POP JUMPDEST POP POP SWAP1 POP DUP3 DUP1 ISZERO PUSH2 0x106F JUMPI POP DUP2 JUMPDEST DUP1 ISZERO PUSH2 0x1078 JUMPI POP DUP1 JUMPDEST PUSH2 0x1095 JUMPI PUSH1 0x40 MLOAD PUSH4 0x4A66F903 PUSH1 0xE0 SHL DUP2 MSTORE PUSH1 0x4 ADD PUSH1 0x40 MLOAD DUP1 SWAP2 SUB SWAP1 REVERT JUMPDEST POP POP POP POP POP POP POP POP POP POP JUMP JUMPDEST PUSH1 0x1 PUSH1 0x1 PUSH1 0xA0 SHL SUB DUP2 AND PUSH1 0x0 SWAP1 DUP2 MSTORE PUSH1 0x7 PUSH1 0x20 MSTORE PUSH1 0x40 DUP2 KECCAK256 SLOAD PUSH2 0x631 SWAP1 PUSH1 0x1 PUSH2 0xB41 JUMP JUMPDEST PUSH1 0x0 DUP3 DUP2 MSTORE PUSH1 0x20 DUP2 SWAP1 MSTORE PUSH1 0x40 SWAP1 KECCAK256 PUSH1 0x1 ADD SLOAD PUSH2 0x10E0 DUP2 PUSH2 0x11CD JUMP JUMPDEST PUSH2 0x737 DUP4 DUP4 PUSH2 0x11DA JUMP JUMPDEST PUSH1 0x0 DUP1 PUSH2 0x10F6 DUP4 PUSH2 0x10A1 JUMP JUMPDEST SWAP1 POP PUSH1 0x0 PUSH8 0xDE0B6B3A7640000 PUSH1 0x2 SLOAD DUP4 PUSH2 0x1111 SWAP2 SWAP1 PUSH2 0x16A7 JUMP JUMPDEST PUSH2 0x111B SWAP2 SWAP1 PUSH2 0x16BE JUMP JUMPDEST SWAP1 POP PUSH1 0x0 PUSH8 0xDE0B6B3A7640000 PUSH1 0x3 SLOAD DUP5 PUSH2 0x1136 SWAP2 SWAP1 PUSH2 0x16A7 JUMP JUMPDEST PUSH2 0x1140 SWAP2 SWAP1 PUSH2 0x16BE JUMP JUMPDEST SWAP1 POP PUSH1 0x0 PUSH8 0xDE0B6B3A7640000 PUSH1 0x4 SLOAD DUP6 PUSH2 0x115B SWAP2 SWAP1 PUSH2 0x16A7 JUMP JUMPDEST PUSH2 0x1165 SWAP2 SWAP1 PUSH2 0x16BE JUMP JUMPDEST SWAP1 POP DUP1 DUP3 PUSH2 0x1173 DUP6 DUP8 PUSH2 0x16F3 JUMP JUMPDEST PUSH2 0x117D SWAP2 SWAP1 PUSH2 0x16F3 JUMP JUMPDEST PUSH2 0xC58 SWAP2 SWAP1 PUSH2 0x16F3 JUMP JUMPDEST PUSH1 0x0 PUSH2 0x1192 DUP2 PUSH2 0x11CD JUMP JUMPDEST POP PUSH1 0x1 DUP1 SLOAD PUSH32 0xFFFFFFFFFFFFFFFFFFFFFFFF0000000000000000000000000000000000000000 AND PUSH1 0x1 PUSH1 0x1 PUSH1 0xA0 SHL SUB SWAP3 SWAP1 SWAP3 AND SWAP2 SWAP1 SWAP2 OR SWAP1 SSTORE JUMP JUMPDEST PUSH2 0x11D7 DUP2 CALLER PUSH2 0x12F7 JUMP JUMPDEST POP JUMP JUMPDEST PUSH1 0x0 DUP3 DUP2 MSTORE PUSH1 0x20 DUP2 DUP2 MSTORE PUSH1 0x40 DUP1 DUP4 KECCAK256 PUSH1 0x1 PUSH1 0x1 PUSH1 0xA0 SHL SUB DUP6 AND DUP5 MSTORE SWAP1 SWAP2 MSTORE SWAP1 KECCAK256 SLOAD PUSH1 0xFF AND ISZERO PUSH2 0x665 JUMPI PUSH1 0x0 DUP3 DUP2 MSTORE PUSH1 0x20 DUP2 DUP2 MSTORE PUSH1 0x40 DUP1 DUP4 KECCAK256 PUSH1 0x1 PUSH1 0x1 PUSH1 0xA0 SHL SUB DUP6 AND DUP1 DUP6 MSTORE SWAP3 MSTORE DUP1 DUP4 KECCAK256 DUP1 SLOAD PUSH1 0xFF NOT AND SWAP1 SSTORE MLOAD CALLER SWAP3 DUP6 SWAP2 PUSH32 0xF6391F5C32D9C69D2A47EA670B442974B53935D1EDC7FD64EB21E047A839171B SWAP2 SWAP1 LOG4 POP POP JUMP JUMPDEST PUSH1 0x0 DUP3 DUP2 MSTORE PUSH1 0x20 DUP2 DUP2 MSTORE PUSH1 0x40 DUP1 DUP4 KECCAK256 PUSH1 0x1 PUSH1 0x1 PUSH1 0xA0 SHL SUB DUP6 AND DUP5 MSTORE SWAP1 SWAP2 MSTORE SWAP1 KECCAK256 SLOAD PUSH1 0xFF AND PUSH2 0x665 JUMPI PUSH1 0x0 DUP3 DUP2 MSTORE PUSH1 0x20 DUP2 DUP2 MSTORE PUSH1 0x40 DUP1 DUP4 KECCAK256 PUSH1 0x1 PUSH1 0x1 PUSH1 0xA0 SHL SUB DUP6 AND DUP5 MSTORE SWAP1 SWAP2 MSTORE SWAP1 KECCAK256 DUP1 SLOAD PUSH1 0xFF NOT AND PUSH1 0x1 OR SWAP1 SSTORE PUSH2 0x12B3 CALLER SWAP1 JUMP JUMPDEST PUSH1 0x1 PUSH1 0x1 PUSH1 0xA0 SHL SUB AND DUP2 PUSH1 0x1 PUSH1 0x1 PUSH1 0xA0 SHL SUB AND DUP4 PUSH32 0x2F8788117E7EFF1D82E926EC794901D17C78024A50270940304540A733656F0D PUSH1 0x40 MLOAD PUSH1 0x40 MLOAD DUP1 SWAP2 SUB SWAP1 LOG4 POP POP JUMP JUMPDEST PUSH1 0x0 DUP3 DUP2 MSTORE PUSH1 0x20 DUP2 DUP2 MSTORE PUSH1 0x40 DUP1 DUP4 KECCAK256 PUSH1 0x1 PUSH1 0x1 PUSH1 0xA0 SHL SUB DUP6 AND DUP5 MSTORE SWAP1 SWAP2 MSTORE SWAP1 KECCAK256 SLOAD PUSH1 0xFF AND PUSH2 0x665 JUMPI PUSH2 0x1328 DUP2 PUSH2 0x136A JUMP JUMPDEST PUSH2 0x1333 DUP4 PUSH1 0x20 PUSH2 0x137C JUMP JUMPDEST PUSH1 0x40 MLOAD PUSH1 0x20 ADD PUSH2 0x1344 SWAP3 SWAP2 SWAP1 PUSH2 0x1743 JUMP JUMPDEST PUSH1 0x40 DUP1 MLOAD PUSH1 0x1F NOT DUP2 DUP5 SUB ADD DUP2 MSTORE SWAP1 DUP3 SWAP1 MSTORE PUSH3 0x461BCD PUSH1 0xE5 SHL DUP3 MSTORE PUSH2 0x7C7 SWAP2 PUSH1 0x4 ADD PUSH2 0x17C4 JUMP JUMPDEST PUSH1 0x60 PUSH2 0x631 PUSH1 0x1 PUSH1 0x1 PUSH1 0xA0 SHL SUB DUP4 AND PUSH1 0x14 JUMPDEST PUSH1 0x60 PUSH1 0x0 PUSH2 0x138B DUP4 PUSH1 0x2 PUSH2 0x16A7 JUMP JUMPDEST PUSH2 0x1396 SWAP1 PUSH1 0x2 PUSH2 0x16F3 JUMP JUMPDEST PUSH8 0xFFFFFFFFFFFFFFFF DUP2 GT ISZERO PUSH2 0x13AE JUMPI PUSH2 0x13AE PUSH2 0x17F7 JUMP JUMPDEST PUSH1 0x40 MLOAD SWAP1 DUP1 DUP3 MSTORE DUP1 PUSH1 0x1F ADD PUSH1 0x1F NOT AND PUSH1 0x20 ADD DUP3 ADD PUSH1 0x40 MSTORE DUP1 ISZERO PUSH2 0x13D8 JUMPI PUSH1 0x20 DUP3 ADD DUP2 DUP1 CALLDATASIZE DUP4 CALLDATACOPY ADD SWAP1 POP JUMPDEST POP SWAP1 POP PUSH32 0x3000000000000000000000000000000000000000000000000000000000000000 DUP2 PUSH1 0x0 DUP2 MLOAD DUP2 LT PUSH2 0x140F JUMPI PUSH2 0x140F PUSH2 0x180D JUMP JUMPDEST PUSH1 0x20 ADD ADD SWAP1 PUSH1 0x1 PUSH1 0x1 PUSH1 0xF8 SHL SUB NOT AND SWAP1 DUP2 PUSH1 0x0 BYTE SWAP1 MSTORE8 POP PUSH32 0x7800000000000000000000000000000000000000000000000000000000000000 DUP2 PUSH1 0x1 DUP2 MLOAD DUP2 LT PUSH2 0x145A JUMPI PUSH2 0x145A PUSH2 0x180D JUMP JUMPDEST PUSH1 0x20 ADD ADD SWAP1 PUSH1 0x1 PUSH1 0x1 PUSH1 0xF8 SHL SUB NOT AND SWAP1 DUP2 PUSH1 0x0 BYTE SWAP1 MSTORE8 POP PUSH1 0x0 PUSH2 0x147E DUP5 PUSH1 0x2 PUSH2 0x16A7 JUMP JUMPDEST PUSH2 0x1489 SWAP1 PUSH1 0x1 PUSH2 0x16F3 JUMP JUMPDEST SWAP1 POP JUMPDEST PUSH1 0x1 DUP2 GT ISZERO PUSH2 0x150E JUMPI PUSH32 0x3031323334353637383961626364656600000000000000000000000000000000 DUP6 PUSH1 0xF AND PUSH1 0x10 DUP2 LT PUSH2 0x14CA JUMPI PUSH2 0x14CA PUSH2 0x180D JUMP JUMPDEST BYTE PUSH1 0xF8 SHL DUP3 DUP3 DUP2 MLOAD DUP2 LT PUSH2 0x14E0 JUMPI PUSH2 0x14E0 PUSH2 0x180D JUMP JUMPDEST PUSH1 0x20 ADD ADD SWAP1 PUSH1 0x1 PUSH1 0x1 PUSH1 0xF8 SHL SUB NOT AND SWAP1 DUP2 PUSH1 0x0 BYTE SWAP1 MSTORE8 POP PUSH1 0x4 SWAP5 SWAP1 SWAP5 SHR SWAP4 PUSH2 0x1507 DUP2 PUSH2 0x1823 JUMP JUMPDEST SWAP1 POP PUSH2 0x148C JUMP JUMPDEST POP DUP4 ISZERO PUSH2 0xCC1 JUMPI PUSH1 0x40 MLOAD PUSH3 0x461BCD PUSH1 0xE5 SHL DUP2 MSTORE PUSH1 0x20 PUSH1 0x4 DUP3 ADD DUP2 SWAP1 MSTORE PUSH1 0x24 DUP3 ADD MSTORE PUSH32 0x537472696E67733A20686578206C656E67746820696E73756666696369656E74 PUSH1 0x44 DUP3 ADD MSTORE PUSH1 0x64 ADD PUSH2 0x7C7 JUMP JUMPDEST PUSH1 0x0 PUSH1 0x20 DUP3 DUP5 SUB SLT ISZERO PUSH2 0x156F JUMPI PUSH1 0x0 DUP1 REVERT JUMPDEST DUP2 CALLDATALOAD PUSH32 0xFFFFFFFF00000000000000000000000000000000000000000000000000000000 DUP2 AND DUP2 EQ PUSH2 0xCC1 JUMPI PUSH1 0x0 DUP1 REVERT JUMPDEST DUP1 CALLDATALOAD PUSH1 0x1 PUSH1 0x1 PUSH1 0xA0 SHL SUB DUP2 AND DUP2 EQ PUSH2 0x15B6 JUMPI PUSH1 0x0 DUP1 REVERT JUMPDEST SWAP2 SWAP1 POP JUMP JUMPDEST PUSH1 0x0 PUSH1 0x20 DUP3 DUP5 SUB SLT ISZERO PUSH2 0x15CD JUMPI PUSH1 0x0 DUP1 REVERT JUMPDEST PUSH2 0xCC1 DUP3 PUSH2 0x159F JUMP JUMPDEST PUSH1 0x0 DUP1 PUSH1 0x40 DUP4 DUP6 SUB SLT ISZERO PUSH2 0x15E9 JUMPI PUSH1 0x0 DUP1 REVERT JUMPDEST PUSH2 0x15F2 DUP4 PUSH2 0x159F JUMP JUMPDEST SWAP5 PUSH1 0x20 SWAP4 SWAP1 SWAP4 ADD CALLDATALOAD SWAP4 POP POP POP JUMP JUMPDEST PUSH1 0x0 PUSH1 0x20 DUP3 DUP5 SUB SLT ISZERO PUSH2 0x1612 JUMPI PUSH1 0x0 DUP1 REVERT JUMPDEST POP CALLDATALOAD SWAP2 SWAP1 POP JUMP JUMPDEST PUSH1 0x0 DUP1 PUSH1 0x40 DUP4 DUP6 SUB SLT ISZERO PUSH2 0x162C JUMPI PUSH1 0x0 DUP1 REVERT JUMPDEST DUP3 CALLDATALOAD SWAP2 POP PUSH2 0x163C PUSH1 0x20 DUP5 ADD PUSH2 0x159F JUMP JUMPDEST SWAP1 POP SWAP3 POP SWAP3 SWAP1 POP JUMP JUMPDEST PUSH1 0x0 DUP1 PUSH1 0x40 DUP4 DUP6 SUB SLT ISZERO PUSH2 0x1658 JUMPI PUSH1 0x0 DUP1 REVERT JUMPDEST POP POP DUP1 CALLDATALOAD SWAP3 PUSH1 0x20 SWAP1 SWAP2 ADD CALLDATALOAD SWAP2 POP JUMP JUMPDEST PUSH1 0x0 DUP1 PUSH1 0x40 DUP4 DUP6 SUB SLT ISZERO PUSH2 0x167A JUMPI PUSH1 0x0 DUP1 REVERT JUMPDEST PUSH2 0x1683 DUP4 PUSH2 0x159F JUMP JUMPDEST SWAP2 POP PUSH2 0x163C PUSH1 0x20 DUP5 ADD PUSH2 0x159F JUMP JUMPDEST PUSH4 0x4E487B71 PUSH1 0xE0 SHL PUSH1 0x0 MSTORE PUSH1 0x11 PUSH1 0x4 MSTORE PUSH1 0x24 PUSH1 0x0 REVERT JUMPDEST DUP1 DUP3 MUL DUP2 ISZERO DUP3 DUP3 DIV DUP5 EQ OR PUSH2 0x631 JUMPI PUSH2 0x631 PUSH2 0x1691 JUMP JUMPDEST PUSH1 0x0 DUP3 PUSH2 0x16DB JUMPI PUSH4 0x4E487B71 PUSH1 0xE0 SHL PUSH1 0x0 MSTORE PUSH1 0x12 PUSH1 0x4 MSTORE PUSH1 0x24 PUSH1 0x0 REVERT JUMPDEST POP DIV SWAP1 JUMP JUMPDEST DUP2 DUP2 SUB DUP2 DUP2 GT ISZERO PUSH2 0x631 JUMPI PUSH2 0x631 PUSH2 0x1691 JUMP JUMPDEST DUP1 DUP3 ADD DUP1 DUP3 GT ISZERO PUSH2 0x631 JUMPI PUSH2 0x631 PUSH2 0x1691 JUMP JUMPDEST PUSH1 0x0 PUSH1 0x1 DUP3 ADD PUSH2 0x1718 JUMPI PUSH2 0x1718 PUSH2 0x1691 JUMP JUMPDEST POP PUSH1 0x1 ADD SWAP1 JUMP JUMPDEST PUSH1 0x0 JUMPDEST DUP4 DUP2 LT ISZERO PUSH2 0x173A JUMPI DUP2 DUP2 ADD MLOAD DUP4 DUP3 ADD MSTORE PUSH1 0x20 ADD PUSH2 0x1722 JUMP JUMPDEST POP POP PUSH1 0x0 SWAP2 ADD MSTORE JUMP JUMPDEST PUSH32 0x416363657373436F6E74726F6C3A206163636F756E7420000000000000000000 DUP2 MSTORE PUSH1 0x0 DUP4 MLOAD PUSH2 0x177B DUP2 PUSH1 0x17 DUP6 ADD PUSH1 0x20 DUP9 ADD PUSH2 0x171F JUMP JUMPDEST PUSH32 0x206973206D697373696E6720726F6C6520000000000000000000000000000000 PUSH1 0x17 SWAP2 DUP5 ADD SWAP2 DUP3 ADD MSTORE DUP4 MLOAD PUSH2 0x17B8 DUP2 PUSH1 0x28 DUP5 ADD PUSH1 0x20 DUP9 ADD PUSH2 0x171F JUMP JUMPDEST ADD PUSH1 0x28 ADD SWAP5 SWAP4 POP POP POP POP JUMP JUMPDEST PUSH1 0x20 DUP2 MSTORE PUSH1 0x0 DUP3 MLOAD DUP1 PUSH1 0x20 DUP5 ADD MSTORE PUSH2 0x17E3 DUP2 PUSH1 0x40 DUP6 ADD PUSH1 0x20 DUP8 ADD PUSH2 0x171F JUMP JUMPDEST PUSH1 0x1F ADD PUSH1 0x1F NOT AND SWAP2 SWAP1 SWAP2 ADD PUSH1 0x40 ADD SWAP3 SWAP2 POP POP JUMP JUMPDEST PUSH4 0x4E487B71 PUSH1 0xE0 SHL PUSH1 0x0 MSTORE PUSH1 0x41 PUSH1 0x4 MSTORE PUSH1 0x24 PUSH1 0x0 REVERT JUMPDEST PUSH4 0x4E487B71 PUSH1 0xE0 SHL PUSH1 0x0 MSTORE PUSH1 0x32 PUSH1 0x4 MSTORE PUSH1 0x24 PUSH1 0x0 REVERT JUMPDEST PUSH1 0x0 DUP2 PUSH2 0x1832 JUMPI PUSH2 0x1832 PUSH2 0x1691 JUMP JUMPDEST POP PUSH1 0x0 NOT ADD SWAP1 JUMP INVALID LOG2 PUSH5 0x6970667358 0x22 SLT KECCAK256 0xE4 SHL 0xB6 SWAP2 0xE8 0xDE INVALID 0xEB 0x2A 0xD2 RETURNDATASIZE 0xA8 0x2C SIGNEXTEND 0xC0 0xAC 0x4A CALLVALUE PUSH31 0x3B86D75CD197A930B6A2901E5864736F6C6343000813003300000000000000 "},"methodIdentifiers":{"DEFAULT_ADMIN_ROLE()":"a217fddf","addAdmin(address)":"70480275","builderCardsBalance(address,address)":"8e8da06f","builderCardsSupply(address)":"a22a5e66","buyShares(address)":"4c85b425","disableTrading()":"17700f01","enableTrading()":"8a8c523c","getBuyPrice(address)":"cedc7277","getBuyPriceAfterFee(address)":"e5aef9f8","getPrice(uint256,uint256)":"5cf4ee91","getRoleAdmin(bytes32)":"248a9ca3","getSellPrice(address,uint256)":"9ae71781","getSellPriceAfterFee(address,uint256)":"2267a89c","grantRole(bytes32,address)":"2f2ff15d","hasRole(bytes32,address)":"91d14854","hodlerFeePercent()":"8546e75f","protocolFeeDestination()":"4ce7957c","protocolFeePercent()":"d6e6eb9f","removeAdmin(address)":"1785f53c","renounceRole(bytes32,address)":"36568abe","revokeRole(bytes32,address)":"d547741f","sellShares(address,uint256)":"b51d0534","setFeeDestination(address)":"fbe53234","setHodlerFeePercent(uint256)":"3365dd94","setProtocolFeePercent(uint256)":"a4983421","setSubjectFeePercent(uint256)":"5a8a764e","subjectFeePercent()":"24dc441d","supportsInterface(bytes4)":"01ffc9a7","tradingEnabled()":"4ada218b"}},"storageLayout":{"storage":[{"astId":24,"contract":"contracts/BuilderFiV1.sol:BuilderFiV1","label":"_roles","offset":0,"slot":"0","type":"t_mapping(t_bytes32,t_struct(RoleData)19_storage)"},{"astId":1664,"contract":"contracts/BuilderFiV1.sol:BuilderFiV1","label":"protocolFeeDestination","offset":0,"slot":"1","type":"t_address"},{"astId":1666,"contract":"contracts/BuilderFiV1.sol:BuilderFiV1","label":"protocolFeePercent","offset":0,"slot":"2","type":"t_uint256"},{"astId":1668,"contract":"contracts/BuilderFiV1.sol:BuilderFiV1","label":"subjectFeePercent","offset":0,"slot":"3","type":"t_uint256"},{"astId":1670,"contract":"contracts/BuilderFiV1.sol:BuilderFiV1","label":"hodlerFeePercent","offset":0,"slot":"4","type":"t_uint256"},{"astId":1672,"contract":"contracts/BuilderFiV1.sol:BuilderFiV1","label":"tradingEnabled","offset":0,"slot":"5","type":"t_bool"},{"astId":1698,"contract":"contracts/BuilderFiV1.sol:BuilderFiV1","label":"builderCardsBalance","offset":0,"slot":"6","type":"t_mapping(t_address,t_mapping(t_address,t_uint256))"},{"astId":1702,"contract":"contracts/BuilderFiV1.sol:BuilderFiV1","label":"builderCardsSupply","offset":0,"slot":"7","type":"t_mapping(t_address,t_uint256)"}],"types":{"t_address":{"encoding":"inplace","label":"address","numberOfBytes":"20"},"t_bool":{"encoding":"inplace","label":"bool","numberOfBytes":"1"},"t_bytes32":{"encoding":"inplace","label":"bytes32","numberOfBytes":"32"},"t_mapping(t_address,t_bool)":{"encoding":"mapping","key":"t_address","label":"mapping(address => bool)","numberOfBytes":"32","value":"t_bool"},"t_mapping(t_address,t_mapping(t_address,t_uint256))":{"encoding":"mapping","key":"t_address","label":"mapping(address => mapping(address => uint256))","numberOfBytes":"32","value":"t_mapping(t_address,t_uint256)"},"t_mapping(t_address,t_uint256)":{"encoding":"mapping","key":"t_address","label":"mapping(address => uint256)","numberOfBytes":"32","value":"t_uint256"},"t_mapping(t_bytes32,t_struct(RoleData)19_storage)":{"encoding":"mapping","key":"t_bytes32","label":"mapping(bytes32 => struct AccessControl.RoleData)","numberOfBytes":"32","value":"t_struct(RoleData)19_storage"},"t_struct(RoleData)19_storage":{"encoding":"inplace","label":"struct AccessControl.RoleData","members":[{"astId":16,"contract":"contracts/BuilderFiV1.sol:BuilderFiV1","label":"members","offset":0,"slot":"0","type":"t_mapping(t_address,t_bool)"},{"astId":18,"contract":"contracts/BuilderFiV1.sol:BuilderFiV1","label":"adminRole","offset":0,"slot":"1","type":"t_bytes32"}],"numberOfBytes":"64"},"t_uint256":{"encoding":"inplace","label":"uint256","numberOfBytes":"32"}}}}}}